{
  "address": "0xF99139f09164B092bD9e8558984Becfb0d2eCb87",
  "abi": [
    {
      "inputs": [
        {
          "internalType": "contract IERC20",
          "name": "_tbtc",
          "type": "address"
        },
        {
          "internalType": "address",
          "name": "_treasury",
          "type": "address"
        }
      ],
      "stateMutability": "nonpayable",
      "type": "constructor"
    },
    {
      "inputs": [
        {
          "internalType": "address",
          "name": "target",
          "type": "address"
        }
      ],
      "name": "AddressEmptyCode",
      "type": "error"
    },
    {
      "inputs": [
        {
          "internalType": "address",
          "name": "account",
          "type": "address"
        }
      ],
      "name": "AddressInsufficientBalance",
      "type": "error"
    },
    {
      "inputs": [],
      "name": "DisallowedAddress",
      "type": "error"
    },
    {
      "inputs": [
        {
          "internalType": "address",
          "name": "spender",
          "type": "address"
        },
        {
          "internalType": "uint256",
          "name": "allowance",
          "type": "uint256"
        },
        {
          "internalType": "uint256",
          "name": "needed",
          "type": "uint256"
        }
      ],
      "name": "ERC20InsufficientAllowance",
      "type": "error"
    },
    {
      "inputs": [
        {
          "internalType": "address",
          "name": "sender",
          "type": "address"
        },
        {
          "internalType": "uint256",
          "name": "balance",
          "type": "uint256"
        },
        {
          "internalType": "uint256",
          "name": "needed",
          "type": "uint256"
        }
      ],
      "name": "ERC20InsufficientBalance",
      "type": "error"
    },
    {
      "inputs": [
        {
          "internalType": "address",
          "name": "approver",
          "type": "address"
        }
      ],
      "name": "ERC20InvalidApprover",
      "type": "error"
    },
    {
      "inputs": [
        {
          "internalType": "address",
          "name": "receiver",
          "type": "address"
        }
      ],
      "name": "ERC20InvalidReceiver",
      "type": "error"
    },
    {
      "inputs": [
        {
          "internalType": "address",
          "name": "sender",
          "type": "address"
        }
      ],
      "name": "ERC20InvalidSender",
      "type": "error"
    },
    {
      "inputs": [
        {
          "internalType": "address",
          "name": "spender",
          "type": "address"
        }
      ],
      "name": "ERC20InvalidSpender",
      "type": "error"
    },
    {
      "inputs": [
        {
          "internalType": "address",
          "name": "receiver",
          "type": "address"
        },
        {
          "internalType": "uint256",
          "name": "assets",
          "type": "uint256"
        },
        {
          "internalType": "uint256",
          "name": "max",
          "type": "uint256"
        }
      ],
      "name": "ERC4626ExceededMaxDeposit",
      "type": "error"
    },
    {
      "inputs": [
        {
          "internalType": "address",
          "name": "receiver",
          "type": "address"
        },
        {
          "internalType": "uint256",
          "name": "shares",
          "type": "uint256"
        },
        {
          "internalType": "uint256",
          "name": "max",
          "type": "uint256"
        }
      ],
      "name": "ERC4626ExceededMaxMint",
      "type": "error"
    },
    {
      "inputs": [
        {
          "internalType": "address",
          "name": "owner",
          "type": "address"
        },
        {
          "internalType": "uint256",
          "name": "shares",
          "type": "uint256"
        },
        {
          "internalType": "uint256",
          "name": "max",
          "type": "uint256"
        }
      ],
      "name": "ERC4626ExceededMaxRedeem",
      "type": "error"
    },
    {
      "inputs": [
        {
          "internalType": "address",
          "name": "owner",
          "type": "address"
        },
        {
          "internalType": "uint256",
          "name": "assets",
          "type": "uint256"
        },
        {
          "internalType": "uint256",
          "name": "max",
          "type": "uint256"
        }
      ],
      "name": "ERC4626ExceededMaxWithdraw",
      "type": "error"
    },
    {
      "inputs": [],
      "name": "FailedInnerCall",
      "type": "error"
    },
    {
      "inputs": [
        {
          "internalType": "uint256",
          "name": "amount",
          "type": "uint256"
        },
        {
          "internalType": "uint256",
          "name": "min",
          "type": "uint256"
        }
      ],
      "name": "LessThanMinDeposit",
      "type": "error"
    },
    {
      "inputs": [],
      "name": "MathOverflowedMulDiv",
      "type": "error"
    },
    {
      "inputs": [
        {
          "internalType": "address",
          "name": "owner",
          "type": "address"
        }
      ],
      "name": "OwnableInvalidOwner",
      "type": "error"
    },
    {
      "inputs": [
        {
          "internalType": "address",
          "name": "account",
          "type": "address"
        }
      ],
      "name": "OwnableUnauthorizedAccount",
      "type": "error"
    },
    {
      "inputs": [
        {
          "internalType": "address",
          "name": "token",
          "type": "address"
        }
      ],
      "name": "SafeERC20FailedOperation",
      "type": "error"
    },
    {
      "inputs": [],
      "name": "ZeroAddress",
      "type": "error"
    },
    {
      "anonymous": false,
      "inputs": [
        {
          "indexed": true,
          "internalType": "address",
          "name": "owner",
          "type": "address"
        },
        {
          "indexed": true,
          "internalType": "address",
          "name": "spender",
          "type": "address"
        },
        {
          "indexed": false,
          "internalType": "uint256",
          "name": "value",
          "type": "uint256"
        }
      ],
      "name": "Approval",
      "type": "event"
    },
    {
      "anonymous": false,
      "inputs": [
        {
          "indexed": true,
          "internalType": "address",
          "name": "sender",
          "type": "address"
        },
        {
          "indexed": true,
          "internalType": "address",
          "name": "owner",
          "type": "address"
        },
        {
          "indexed": false,
          "internalType": "uint256",
          "name": "assets",
          "type": "uint256"
        },
        {
          "indexed": false,
          "internalType": "uint256",
          "name": "shares",
          "type": "uint256"
        }
      ],
      "name": "Deposit",
      "type": "event"
    },
    {
      "anonymous": false,
      "inputs": [
        {
          "indexed": false,
          "internalType": "uint256",
          "name": "minimumDepositAmount",
          "type": "uint256"
        },
        {
          "indexed": false,
          "internalType": "uint256",
          "name": "maximumTotalAssets",
          "type": "uint256"
        }
      ],
      "name": "DepositParametersUpdated",
      "type": "event"
    },
    {
      "anonymous": false,
      "inputs": [
        {
          "indexed": false,
          "internalType": "address",
          "name": "oldDispatcher",
          "type": "address"
        },
        {
          "indexed": false,
          "internalType": "address",
          "name": "newDispatcher",
          "type": "address"
        }
      ],
      "name": "DispatcherUpdated",
      "type": "event"
    },
    {
      "anonymous": false,
      "inputs": [
        {
          "indexed": false,
          "internalType": "uint256",
          "name": "entryFeeBasisPoints",
          "type": "uint256"
        }
      ],
      "name": "EntryFeeBasisPointsUpdated",
      "type": "event"
    },
    {
      "anonymous": false,
      "inputs": [
        {
          "indexed": true,
          "internalType": "address",
          "name": "previousOwner",
          "type": "address"
        },
        {
          "indexed": true,
          "internalType": "address",
          "name": "newOwner",
          "type": "address"
        }
      ],
      "name": "OwnershipTransferred",
      "type": "event"
    },
    {
      "anonymous": false,
      "inputs": [
        {
          "indexed": true,
          "internalType": "uint16",
          "name": "referral",
          "type": "uint16"
        },
        {
          "indexed": false,
          "internalType": "uint256",
          "name": "assets",
          "type": "uint256"
        }
      ],
      "name": "StakeReferral",
      "type": "event"
    },
    {
      "anonymous": false,
      "inputs": [
        {
          "indexed": true,
          "internalType": "address",
          "name": "from",
          "type": "address"
        },
        {
          "indexed": true,
          "internalType": "address",
          "name": "to",
          "type": "address"
        },
        {
          "indexed": false,
          "internalType": "uint256",
          "name": "value",
          "type": "uint256"
        }
      ],
      "name": "Transfer",
      "type": "event"
    },
    {
      "anonymous": false,
      "inputs": [
        {
          "indexed": false,
          "internalType": "address",
          "name": "treasury",
          "type": "address"
        }
      ],
      "name": "TreasuryUpdated",
      "type": "event"
    },
    {
      "anonymous": false,
      "inputs": [
        {
          "indexed": true,
          "internalType": "address",
          "name": "sender",
          "type": "address"
        },
        {
          "indexed": true,
          "internalType": "address",
          "name": "receiver",
          "type": "address"
        },
        {
          "indexed": true,
          "internalType": "address",
          "name": "owner",
          "type": "address"
        },
        {
          "indexed": false,
          "internalType": "uint256",
          "name": "assets",
          "type": "uint256"
        },
        {
          "indexed": false,
          "internalType": "uint256",
          "name": "shares",
          "type": "uint256"
        }
      ],
      "name": "Withdraw",
      "type": "event"
    },
    {
      "inputs": [
        {
          "internalType": "address",
          "name": "owner",
          "type": "address"
        },
        {
          "internalType": "address",
          "name": "spender",
          "type": "address"
        }
      ],
      "name": "allowance",
      "outputs": [
        {
          "internalType": "uint256",
          "name": "",
          "type": "uint256"
        }
      ],
      "stateMutability": "view",
      "type": "function"
    },
    {
      "inputs": [
        {
          "internalType": "address",
          "name": "spender",
          "type": "address"
        },
        {
          "internalType": "uint256",
          "name": "value",
          "type": "uint256"
        }
      ],
      "name": "approve",
      "outputs": [
        {
          "internalType": "bool",
          "name": "",
          "type": "bool"
        }
      ],
      "stateMutability": "nonpayable",
      "type": "function"
    },
    {
      "inputs": [],
      "name": "asset",
      "outputs": [
        {
          "internalType": "address",
          "name": "",
          "type": "address"
        }
      ],
      "stateMutability": "view",
      "type": "function"
    },
    {
      "inputs": [
        {
          "internalType": "address",
          "name": "account",
          "type": "address"
        }
      ],
      "name": "balanceOf",
      "outputs": [
        {
          "internalType": "uint256",
          "name": "",
          "type": "uint256"
        }
      ],
      "stateMutability": "view",
      "type": "function"
    },
    {
      "inputs": [
        {
          "internalType": "uint256",
          "name": "shares",
          "type": "uint256"
        }
      ],
      "name": "convertToAssets",
      "outputs": [
        {
          "internalType": "uint256",
          "name": "",
          "type": "uint256"
        }
      ],
      "stateMutability": "view",
      "type": "function"
    },
    {
      "inputs": [
        {
          "internalType": "uint256",
          "name": "assets",
          "type": "uint256"
        }
      ],
      "name": "convertToShares",
      "outputs": [
        {
          "internalType": "uint256",
          "name": "",
          "type": "uint256"
        }
      ],
      "stateMutability": "view",
      "type": "function"
    },
    {
      "inputs": [],
      "name": "decimals",
      "outputs": [
        {
          "internalType": "uint8",
          "name": "",
          "type": "uint8"
        }
      ],
      "stateMutability": "view",
      "type": "function"
    },
    {
      "inputs": [
        {
          "internalType": "uint256",
          "name": "assets",
          "type": "uint256"
        },
        {
          "internalType": "address",
          "name": "receiver",
          "type": "address"
        }
      ],
      "name": "deposit",
      "outputs": [
        {
          "internalType": "uint256",
          "name": "",
          "type": "uint256"
        }
      ],
      "stateMutability": "nonpayable",
      "type": "function"
    },
    {
      "inputs": [],
      "name": "depositParameters",
      "outputs": [
        {
          "internalType": "uint256",
          "name": "",
          "type": "uint256"
        },
        {
          "internalType": "uint256",
          "name": "",
          "type": "uint256"
        }
      ],
      "stateMutability": "view",
      "type": "function"
    },
    {
      "inputs": [],
      "name": "dispatcher",
      "outputs": [
        {
          "internalType": "contract Dispatcher",
          "name": "",
          "type": "address"
        }
      ],
      "stateMutability": "view",
      "type": "function"
    },
    {
      "inputs": [],
      "name": "entryFeeBasisPoints",
      "outputs": [
        {
          "internalType": "uint256",
          "name": "",
          "type": "uint256"
        }
      ],
      "stateMutability": "view",
      "type": "function"
    },
    {
      "inputs": [
        {
          "internalType": "address",
          "name": "",
          "type": "address"
        }
      ],
      "name": "maxDeposit",
      "outputs": [
        {
          "internalType": "uint256",
          "name": "",
          "type": "uint256"
        }
      ],
      "stateMutability": "view",
      "type": "function"
    },
    {
      "inputs": [
        {
          "internalType": "address",
          "name": "receiver",
          "type": "address"
        }
      ],
      "name": "maxMint",
      "outputs": [
        {
          "internalType": "uint256",
          "name": "",
          "type": "uint256"
        }
      ],
      "stateMutability": "view",
      "type": "function"
    },
    {
      "inputs": [
        {
          "internalType": "address",
          "name": "owner",
          "type": "address"
        }
      ],
      "name": "maxRedeem",
      "outputs": [
        {
          "internalType": "uint256",
          "name": "",
          "type": "uint256"
        }
      ],
      "stateMutability": "view",
      "type": "function"
    },
    {
      "inputs": [
        {
          "internalType": "address",
          "name": "owner",
          "type": "address"
        }
      ],
      "name": "maxWithdraw",
      "outputs": [
        {
          "internalType": "uint256",
          "name": "",
          "type": "uint256"
        }
      ],
      "stateMutability": "view",
      "type": "function"
    },
    {
      "inputs": [],
      "name": "maximumTotalAssets",
      "outputs": [
        {
          "internalType": "uint256",
          "name": "",
          "type": "uint256"
        }
      ],
      "stateMutability": "view",
      "type": "function"
    },
    {
      "inputs": [],
      "name": "minimumDepositAmount",
      "outputs": [
        {
          "internalType": "uint256",
          "name": "",
          "type": "uint256"
        }
      ],
      "stateMutability": "view",
      "type": "function"
    },
    {
      "inputs": [
        {
          "internalType": "uint256",
          "name": "shares",
          "type": "uint256"
        },
        {
          "internalType": "address",
          "name": "receiver",
          "type": "address"
        }
      ],
      "name": "mint",
      "outputs": [
        {
          "internalType": "uint256",
          "name": "assets",
          "type": "uint256"
        }
      ],
      "stateMutability": "nonpayable",
      "type": "function"
    },
    {
      "inputs": [],
      "name": "name",
      "outputs": [
        {
          "internalType": "string",
          "name": "",
          "type": "string"
        }
      ],
      "stateMutability": "view",
      "type": "function"
    },
    {
      "inputs": [],
      "name": "owner",
      "outputs": [
        {
          "internalType": "address",
          "name": "",
          "type": "address"
        }
      ],
      "stateMutability": "view",
      "type": "function"
    },
    {
      "inputs": [
        {
          "internalType": "uint256",
          "name": "assets",
          "type": "uint256"
        }
      ],
      "name": "previewDeposit",
      "outputs": [
        {
          "internalType": "uint256",
          "name": "",
          "type": "uint256"
        }
      ],
      "stateMutability": "view",
      "type": "function"
    },
    {
      "inputs": [
        {
          "internalType": "uint256",
          "name": "shares",
          "type": "uint256"
        }
      ],
      "name": "previewMint",
      "outputs": [
        {
          "internalType": "uint256",
          "name": "",
          "type": "uint256"
        }
      ],
      "stateMutability": "view",
      "type": "function"
    },
    {
      "inputs": [
        {
          "internalType": "uint256",
          "name": "shares",
          "type": "uint256"
        }
      ],
      "name": "previewRedeem",
      "outputs": [
        {
          "internalType": "uint256",
          "name": "",
          "type": "uint256"
        }
      ],
      "stateMutability": "view",
      "type": "function"
    },
    {
      "inputs": [
        {
          "internalType": "uint256",
          "name": "assets",
          "type": "uint256"
        }
      ],
      "name": "previewWithdraw",
      "outputs": [
        {
          "internalType": "uint256",
          "name": "",
          "type": "uint256"
        }
      ],
      "stateMutability": "view",
      "type": "function"
    },
    {
      "inputs": [
        {
          "internalType": "uint256",
          "name": "shares",
          "type": "uint256"
        },
        {
          "internalType": "address",
          "name": "receiver",
          "type": "address"
        },
        {
          "internalType": "address",
          "name": "owner",
          "type": "address"
        }
      ],
      "name": "redeem",
      "outputs": [
        {
          "internalType": "uint256",
          "name": "",
          "type": "uint256"
        }
      ],
      "stateMutability": "nonpayable",
      "type": "function"
    },
    {
      "inputs": [],
      "name": "renounceOwnership",
      "outputs": [],
      "stateMutability": "nonpayable",
      "type": "function"
    },
    {
      "inputs": [
        {
          "internalType": "uint256",
          "name": "assets",
          "type": "uint256"
        },
        {
          "internalType": "address",
          "name": "receiver",
          "type": "address"
        },
        {
          "internalType": "uint16",
          "name": "referral",
          "type": "uint16"
        }
      ],
      "name": "stake",
      "outputs": [
        {
          "internalType": "uint256",
          "name": "",
          "type": "uint256"
        }
      ],
      "stateMutability": "nonpayable",
      "type": "function"
    },
    {
      "inputs": [],
      "name": "symbol",
      "outputs": [
        {
          "internalType": "string",
          "name": "",
          "type": "string"
        }
      ],
      "stateMutability": "view",
      "type": "function"
    },
    {
      "inputs": [],
      "name": "totalAssets",
      "outputs": [
        {
          "internalType": "uint256",
          "name": "",
          "type": "uint256"
        }
      ],
      "stateMutability": "view",
      "type": "function"
    },
    {
      "inputs": [],
      "name": "totalSupply",
      "outputs": [
        {
          "internalType": "uint256",
          "name": "",
          "type": "uint256"
        }
      ],
      "stateMutability": "view",
      "type": "function"
    },
    {
      "inputs": [
        {
          "internalType": "address",
          "name": "to",
          "type": "address"
        },
        {
          "internalType": "uint256",
          "name": "value",
          "type": "uint256"
        }
      ],
      "name": "transfer",
      "outputs": [
        {
          "internalType": "bool",
          "name": "",
          "type": "bool"
        }
      ],
      "stateMutability": "nonpayable",
      "type": "function"
    },
    {
      "inputs": [
        {
          "internalType": "address",
          "name": "from",
          "type": "address"
        },
        {
          "internalType": "address",
          "name": "to",
          "type": "address"
        },
        {
          "internalType": "uint256",
          "name": "value",
          "type": "uint256"
        }
      ],
      "name": "transferFrom",
      "outputs": [
        {
          "internalType": "bool",
          "name": "",
          "type": "bool"
        }
      ],
      "stateMutability": "nonpayable",
      "type": "function"
    },
    {
      "inputs": [
        {
          "internalType": "address",
          "name": "newOwner",
          "type": "address"
        }
      ],
      "name": "transferOwnership",
      "outputs": [],
      "stateMutability": "nonpayable",
      "type": "function"
    },
    {
      "inputs": [],
      "name": "treasury",
      "outputs": [
        {
          "internalType": "address",
          "name": "",
          "type": "address"
        }
      ],
      "stateMutability": "view",
      "type": "function"
    },
    {
      "inputs": [
        {
          "internalType": "uint256",
          "name": "_minimumDepositAmount",
          "type": "uint256"
        },
        {
          "internalType": "uint256",
          "name": "_maximumTotalAssets",
          "type": "uint256"
        }
      ],
      "name": "updateDepositParameters",
      "outputs": [],
      "stateMutability": "nonpayable",
      "type": "function"
    },
    {
      "inputs": [
        {
          "internalType": "contract Dispatcher",
          "name": "newDispatcher",
          "type": "address"
        }
      ],
      "name": "updateDispatcher",
      "outputs": [],
      "stateMutability": "nonpayable",
      "type": "function"
    },
    {
      "inputs": [
        {
          "internalType": "uint256",
          "name": "newEntryFeeBasisPoints",
          "type": "uint256"
        }
      ],
      "name": "updateEntryFeeBasisPoints",
      "outputs": [],
      "stateMutability": "nonpayable",
      "type": "function"
    },
    {
      "inputs": [
        {
          "internalType": "address",
          "name": "newTreasury",
          "type": "address"
        }
      ],
      "name": "updateTreasury",
      "outputs": [],
      "stateMutability": "nonpayable",
      "type": "function"
    },
    {
      "inputs": [
        {
          "internalType": "uint256",
          "name": "assets",
          "type": "uint256"
        },
        {
          "internalType": "address",
          "name": "receiver",
          "type": "address"
        },
        {
          "internalType": "address",
          "name": "owner",
          "type": "address"
        }
      ],
      "name": "withdraw",
      "outputs": [
        {
          "internalType": "uint256",
          "name": "",
          "type": "uint256"
        }
      ],
      "stateMutability": "nonpayable",
      "type": "function"
    }
  ],
  "transactionHash": "0xe391d9f8196548e08172cd330bfe61a0c75e5825b29319f981a97854f5ee67b6",
  "args": [
    "0x517f2982701695D4E52f1ECFBEf3ba31Df470161",
    "0x2d154A5c7cE9939274b89bbCe9f5B069E57b09A8"
  ],
  "numDeployments": 1,
  "solcInputHash": "b22c277b248ba02f9ec5bf62d176f9ce",
  "bytecode": "0x60c06040523480156200001157600080fd5b5060405162002459380380620024598339810160408190526200003491620002da565b33826040518060400160405280601381526020017f41637265205374616b656420426974636f696e0000000000000000000000000081525060405180604001604052806005815260200164737442544360d81b81525081600390816200009b9190620003be565b506004620000aa8282620003be565b505050600080620000c1836200018a60201b60201c565b9150915081620000d3576012620000d5565b805b60ff1660a05250506001600160a01b0390811660805281166200011257604051631e4fbdf760e01b81526000600482015260240160405180910390fd5b6200011d816200026f565b506001600160a01b038116620001465760405163d92e233d60e01b815260040160405180910390fd5b600780546001600160a01b0319166001600160a01b03929092169190911790555066038d7ea4c6800060095568015af1d78b58c40000600a556005600855620004d5565b60408051600481526024810182526020810180516001600160e01b031663313ce56760e01b17905290516000918291829182916001600160a01b03871691620001d3916200048a565b600060405180830381855afa9150503d806000811462000210576040519150601f19603f3d011682016040523d82523d6000602084013e62000215565b606091505b50915091508180156200022a57506020815110155b156200026257600081806020019051810190620002489190620004bb565b905060ff811162000260576001969095509350505050565b505b5060009485945092505050565b600580546001600160a01b038381166001600160a01b0319831681179093556040519116919082907f8be0079c531659141344cd1fd0a4f28419497f9722a3daafe3b4186f6b6457e090600090a35050565b6001600160a01b0381168114620002d757600080fd5b50565b60008060408385031215620002ee57600080fd5b8251620002fb81620002c1565b60208401519092506200030e81620002c1565b809150509250929050565b634e487b7160e01b600052604160045260246000fd5b600181811c908216806200034457607f821691505b6020821081036200036557634e487b7160e01b600052602260045260246000fd5b50919050565b601f821115620003b957600081815260208120601f850160051c81016020861015620003945750805b601f850160051c820191505b81811015620003b557828155600101620003a0565b5050505b505050565b81516001600160401b03811115620003da57620003da62000319565b620003f281620003eb84546200032f565b846200036b565b602080601f8311600181146200042a5760008415620004115750858301515b600019600386901b1c1916600185901b178555620003b5565b600085815260208120601f198616915b828110156200045b578886015182559484019460019091019084016200043a565b50858210156200047a5787850151600019600388901b60f8161c191681555b5050505050600190811b01905550565b6000825160005b81811015620004ad576020818601810151858301520162000491565b506000920191825250919050565b600060208284031215620004ce57600080fd5b5051919050565b60805160a051611f3462000525600039600061077201526000818161036b01528181610602015281816108a9015281816108ee01528181611209015281816116bc015261186e0152611f346000f3fe608060405234801561001057600080fd5b50600436106102ad5760003560e01c80638da5cb5b1161017b578063c6e6f592116100d8578063dc8c4ffe1161008c578063e9c092e311610071578063e9c092e314610598578063ef8b30f7146105ab578063f2fde38b146105be57600080fd5b8063dc8c4ffe1461054c578063dd62ed3e1461055f57600080fd5b8063ce96cb77116100bd578063ce96cb7714610513578063d57636c914610526578063d905777e1461053957600080fd5b8063c6e6f592146104ed578063cb7e90571461050057600080fd5b8063b460af941161012f578063ba0af7a911610114578063ba0af7a9146104b6578063c42b64d0146104bf578063c63d75b6146104da57600080fd5b8063b460af9414610490578063ba087652146104a357600080fd5b806395d89b411161016057806395d89b4114610462578063a9059cbb1461046a578063b3d7f6b91461047d57600080fd5b80638da5cb5b1461043e57806394bf804d1461044f57600080fd5b806338d52e0f1161022957806361d027b3116101dd57806370a08231116101c257806370a08231146103fa578063715018a6146104235780637f51bb1f1461042b57600080fd5b806361d027b3146103d45780636e553f65146103e757600080fd5b806342af11981161020e57806342af1198146103b65780634cdad506146102e2578063543bda75146103cb57600080fd5b806338d52e0f14610369578063402d267d146103a357600080fd5b8063095ea7b31161028057806318160ddd1161026557806318160ddd1461033457806323b872dd1461033c578063313ce5671461034f57600080fd5b8063095ea7b3146102fe5780630a28a4771461032157600080fd5b806301e1d114146102b257806306fdde03146102cd57806307a2d13a146102e2578063080c279a146102f5575b600080fd5b6102ba6105d1565b6040519081526020015b60405180910390f35b6102d561067a565b6040516102c49190611ade565b6102ba6102f0366004611b11565b61070c565b6102ba60095481565b61031161030c366004611b3f565b61071f565b60405190151581526020016102c4565b6102ba61032f366004611b11565b610737565b6002546102ba565b61031161034a366004611b6b565b610744565b61035761076a565b60405160ff90911681526020016102c4565b7f00000000000000000000000000000000000000000000000000000000000000005b6040516001600160a01b0390911681526020016102c4565b6102ba6103b1366004611bac565b610796565b6103c96103c4366004611bac565b6107f6565b005b6102ba600a5481565b60075461038b906001600160a01b031681565b6102ba6103f5366004611bc9565b610916565b6102ba610408366004611bac565b6001600160a01b031660009081526020819052604090205490565b6103c961095c565b6103c9610439366004611bac565b610970565b6005546001600160a01b031661038b565b6102ba61045d366004611bc9565b610a43565b6102d5610a82565b610311610478366004611b3f565b610a91565b6102ba61048b366004611b11565b610a9f565b6102ba61049e366004611bf9565b610ac9565b6102ba6104b1366004611bf9565b610b4d565b6102ba60085481565b600954600a54604080519283526020830191909152016102c4565b6102ba6104e8366004611bac565b610bc8565b6102ba6104fb366004611b11565b610bf7565b60065461038b906001600160a01b031681565b6102ba610521366004611bac565b610c04565b6103c9610534366004611b11565b610c28565b6102ba610547366004611bac565b610c65565b6102ba61055a366004611c3b565b610c83565b6102ba61056d366004611c79565b6001600160a01b03918216600090815260016020908152604080832093909416825291909152205490565b6103c96105a6366004611ca7565b610ce2565b6102ba6105b9366004611b11565b610d31565b6103c96105cc366004611bac565b610d55565b6040517f70a082310000000000000000000000000000000000000000000000000000000081523060048201526000907f00000000000000000000000000000000000000000000000000000000000000006001600160a01b0316906370a0823190602401602060405180830381865afa158015610651573d6000803e3d6000fd5b505050506040513d601f19601f820116820180604052508101906106759190611cc9565b905090565b60606003805461068990611ce2565b80601f01602080910402602001604051908101604052809291908181526020018280546106b590611ce2565b80156107025780601f106106d757610100808354040283529160200191610702565b820191906000526020600020905b8154815290600101906020018083116106e557829003601f168201915b5050505050905090565b6000610719826000610dac565b92915050565b60003361072d818585610de6565b5060019392505050565b6000610719826001610df8565b600033610752858285610e28565b61075d858585610ebf565b60019150505b9392505050565b6000610675817f0000000000000000000000000000000000000000000000000000000000000000611d32565b6000600019600a54036107ac5750600019919050565b60006107b66105d1565b9050600a5481106107ca5750600092915050565b600081600a546107da9190611d4b565b905080600954116107eb57806107ee565b60005b949350505050565b6107fe610f1e565b6001600160a01b0381166108255760405163d92e233d60e01b815260040160405180910390fd5b600654604080516001600160a01b0392831680825292841660208201527ff6e490308a0c67484cf1082cb89a68053c7a7bbf474247e8b634957e2ce2f296910160405180910390a16006805473ffffffffffffffffffffffffffffffffffffffff19166001600160a01b03848116919091179091558116156108d9576108d98160007f00000000000000000000000000000000000000000000000000000000000000005b6001600160a01b03169190610f64565b600654610912906001600160a01b03166000197f00000000000000000000000000000000000000000000000000000000000000006108c9565b5050565b6000600954831015610952576009546040516314d6e77b60e31b8152610949918591600401918252602082015260400190565b60405180910390fd5b6107638383611065565b610964610f1e565b61096e60006110df565b565b610978610f1e565b6001600160a01b03811661099f5760405163d92e233d60e01b815260040160405180910390fd5b306001600160a01b038216036109e1576040517f593230f700000000000000000000000000000000000000000000000000000000815260040160405180910390fd5b6007805473ffffffffffffffffffffffffffffffffffffffff19166001600160a01b0383169081179091556040519081527f7dae230f18360d76a040c81f050aa14eb9d6dc7901b20fc5d855e2a20fe814d1906020015b60405180910390a150565b6000600954610a52848461113e565b9150811015610719576009546040516314d6e77b60e31b8152610949918391600401918252602082015260400190565b60606004805461068990611ce2565b60003361072d818585610ebf565b600080610aab836111b8565b9050610abf81610aba60085490565b6111c5565b6107639082611d5e565b600080610ad583610c04565b905080851115610b2a576040517ffe9cceec0000000000000000000000000000000000000000000000000000000081526001600160a01b03841660048201526024810186905260448101829052606401610949565b6000610b3586610737565b9050610b4433868689856111d6565b95945050505050565b600080610b5983610c65565b905080851115610bae576040517fb94abeec0000000000000000000000000000000000000000000000000000000081526001600160a01b03841660048201526024810186905260448101829052606401610949565b6000610bb98661070c565b9050610b44338686848a6111d6565b600080610bd483610796565b90506000198114610bed57610be881610bf7565b610763565b6000199392505050565b6000610719826000610df8565b6001600160a01b038116600090815260208190526040812054610719906000610dac565b610c30610f1e565b60088190556040518181527f5af127f521fefc539e7e224fd330591102c4288877cf9b83c5d8a100cbb88ceb90602001610a38565b6001600160a01b038116600090815260208190526040812054610719565b600080610c908585610916565b905061ffff8316156107ee578261ffff167f246e5dcdb71dfbdc1088d365e35a9f8e3aefefebf0b9bee103bf4f3a2edec12b86604051610cd291815260200190565b60405180910390a2949350505050565b610cea610f1e565b6009829055600a81905560408051838152602081018390527f5543b97d9277fef57d70edac6c4c10f4426957b886dfe97286c01d2218a53280910160405180910390a15050565b600080610d4683610d4160085490565b611296565b90506107636104fb8285611d4b565b610d5d610f1e565b6001600160a01b038116610da0576040517f1e4fbdf700000000000000000000000000000000000000000000000000000000815260006004820152602401610949565b610da9816110df565b50565b6000610763610db96105d1565b610dc4906001611d5e565b610dd06000600a611e55565b600254610ddd9190611d5e565b859190856112ae565b610df383838360016112fd565b505050565b6000610763610e0882600a611e55565b600254610e159190611d5e565b610e1d6105d1565b610ddd906001611d5e565b6001600160a01b038381166000908152600160209081526040808320938616835292905220546000198114610eb95781811015610eaa576040517ffb8f41b20000000000000000000000000000000000000000000000000000000081526001600160a01b03841660048201526024810182905260448101839052606401610949565b610eb9848484840360006112fd565b50505050565b6001600160a01b038316610ee957604051634b637e8f60e11b815260006004820152602401610949565b6001600160a01b038216610f135760405163ec442f0560e01b815260006004820152602401610949565b610df3838383611404565b6005546001600160a01b0316331461096e576040517f118cdaa7000000000000000000000000000000000000000000000000000000008152336004820152602401610949565b604080516001600160a01b038416602482015260448082018490528251808303909101815260649091019091526020810180517bffffffffffffffffffffffffffffffffffffffffffffffffffffffff167f095ea7b300000000000000000000000000000000000000000000000000000000179052610fe38482611547565b610eb9576040516001600160a01b0384811660248301526000604483015261105b91869182169063095ea7b3906064015b604051602081830303815290604052915060e01b6020820180517bffffffffffffffffffffffffffffffffffffffffffffffffffffffff83818316178352505050506115ea565b610eb984826115ea565b60008061107183610796565b9050808411156110c6576040517f79012fb20000000000000000000000000000000000000000000000000000000081526001600160a01b03841660048201526024810185905260448101829052606401610949565b60006110d185610d31565b90506107ee33858784611666565b600580546001600160a01b0383811673ffffffffffffffffffffffffffffffffffffffff19831681179093556040519116919082907f8be0079c531659141344cd1fd0a4f28419497f9722a3daafe3b4186f6b6457e090600090a35050565b60008061114a83610bc8565b90508084111561119f576040517f284ff6670000000000000000000000000000000000000000000000000000000081526001600160a01b03841660048201526024810185905260448101829052606401610949565b60006111aa85610a9f565b90506107ee33858388611666565b6000610719826001610dac565b6000610763838361271060016112ae565b826001600160a01b0316856001600160a01b0316146111fa576111fa838683610e28565b61120483826116ea565b61122f7f00000000000000000000000000000000000000000000000000000000000000008584611720565b826001600160a01b0316846001600160a01b0316866001600160a01b03167ffbde797d201c681b91056529119e0b02407c7bb96a4a2c75c01fc9667232c8db8585604051611287929190918252602082015260400190565b60405180910390a45050505050565b6000610763826112a861271082611d5e565b85919060015b6000806112bc868686611751565b90506112c78361182e565b80156112e35750600084806112de576112de611e64565b868809115b15610b44576112f3600182611d5e565b9695505050505050565b6001600160a01b038416611340576040517fe602df0500000000000000000000000000000000000000000000000000000000815260006004820152602401610949565b6001600160a01b038316611383576040517f94280d6200000000000000000000000000000000000000000000000000000000815260006004820152602401610949565b6001600160a01b0380851660009081526001602090815260408083209387168352929052208290558015610eb957826001600160a01b0316846001600160a01b03167f8c5be1e5ebec7d5bd14f71427d1e84f3dd0314c0f7b2291e5b200ac8c7c3b925846040516113f691815260200190565b60405180910390a350505050565b6001600160a01b03831661142f5780600260008282546114249190611d5e565b909155506114ba9050565b6001600160a01b0383166000908152602081905260409020548181101561149b576040517fe450d38c0000000000000000000000000000000000000000000000000000000081526001600160a01b03851660048201526024810182905260448101839052606401610949565b6001600160a01b03841660009081526020819052604090209082900390555b6001600160a01b0382166114d6576002805482900390556114f5565b6001600160a01b03821660009081526020819052604090208054820190555b816001600160a01b0316836001600160a01b03167fddf252ad1be2c89b69c2b068fc378daa952ba7f163c4a11628f55a4df523b3ef8360405161153a91815260200190565b60405180910390a3505050565b6000806000846001600160a01b0316846040516115649190611e7a565b6000604051808303816000865af19150503d80600081146115a1576040519150601f19603f3d011682016040523d82523d6000602084013e6115a6565b606091505b50915091508180156115d05750805115806115d05750808060200190518101906115d09190611e96565b8015610b445750505050506001600160a01b03163b151590565b60006115ff6001600160a01b0384168361185b565b905080516000141580156116245750808060200190518101906116229190611e96565b155b15610df3576040517f5274afe70000000000000000000000000000000000000000000000000000000081526001600160a01b0384166004820152602401610949565b600061167583610d4160085490565b9050600061168b6007546001600160a01b031690565b905061169986868686611869565b6000821180156116b257506001600160a01b0381163014155b156116e2576116e27f00000000000000000000000000000000000000000000000000000000000000008284611720565b505050505050565b6001600160a01b03821661171457604051634b637e8f60e11b815260006004820152602401610949565b61091282600083611404565b6040516001600160a01b03838116602483015260448201839052610df391859182169063a9059cbb90606401611014565b60008383028160001985870982811083820303915050806000036117885783828161177e5761177e611e64565b0492505050610763565b8084116117c1576040517f227bc15300000000000000000000000000000000000000000000000000000000815260040160405180910390fd5b6000848688096000868103871696879004966002600389028118808a02820302808a02820302808a02820302808a02820302808a02820302808a02909103029181900381900460010186841190950394909402919094039290920491909117919091029150509392505050565b6000600282600381111561184457611844611eb8565b61184e9190611ece565b60ff166001149050919050565b6060610763838360006118ed565b6118957f0000000000000000000000000000000000000000000000000000000000000000853085611999565b61189f83826119d2565b826001600160a01b0316846001600160a01b03167fdcbc1c05240f31ff3ad067ef1ee35ce4997762752e3a095284754544f4c709d784846040516113f6929190918252602082015260400190565b60608147101561192b576040517fcd786059000000000000000000000000000000000000000000000000000000008152306004820152602401610949565b600080856001600160a01b031684866040516119479190611e7a565b60006040518083038185875af1925050503d8060008114611984576040519150601f19603f3d011682016040523d82523d6000602084013e611989565b606091505b50915091506112f3868383611a08565b6040516001600160a01b038481166024830152838116604483015260648201839052610eb99186918216906323b872dd90608401611014565b6001600160a01b0382166119fc5760405163ec442f0560e01b815260006004820152602401610949565b61091260008383611404565b606082611a1857610be882611a78565b8151158015611a2f57506001600160a01b0384163b155b15611a71576040517f9996b3150000000000000000000000000000000000000000000000000000000081526001600160a01b0385166004820152602401610949565b5080610763565b805115611a885780518082602001fd5b6040517f1425ea4200000000000000000000000000000000000000000000000000000000815260040160405180910390fd5b60005b83811015611ad5578181015183820152602001611abd565b50506000910152565b6020815260008251806020840152611afd816040850160208701611aba565b601f01601f19169190910160400192915050565b600060208284031215611b2357600080fd5b5035919050565b6001600160a01b0381168114610da957600080fd5b60008060408385031215611b5257600080fd5b8235611b5d81611b2a565b946020939093013593505050565b600080600060608486031215611b8057600080fd5b8335611b8b81611b2a565b92506020840135611b9b81611b2a565b929592945050506040919091013590565b600060208284031215611bbe57600080fd5b813561076381611b2a565b60008060408385031215611bdc57600080fd5b823591506020830135611bee81611b2a565b809150509250929050565b600080600060608486031215611c0e57600080fd5b833592506020840135611c2081611b2a565b91506040840135611c3081611b2a565b809150509250925092565b600080600060608486031215611c5057600080fd5b833592506020840135611c6281611b2a565b9150604084013561ffff81168114611c3057600080fd5b60008060408385031215611c8c57600080fd5b8235611c9781611b2a565b91506020830135611bee81611b2a565b60008060408385031215611cba57600080fd5b50508035926020909101359150565b600060208284031215611cdb57600080fd5b5051919050565b600181811c90821680611cf657607f821691505b602082108103611d1657634e487b7160e01b600052602260045260246000fd5b50919050565b634e487b7160e01b600052601160045260246000fd5b60ff818116838216019081111561071957610719611d1c565b8181038181111561071957610719611d1c565b8082018082111561071957610719611d1c565b600181815b80851115611dac578160001904821115611d9257611d92611d1c565b80851615611d9f57918102915b93841c9390800290611d76565b509250929050565b600082611dc357506001610719565b81611dd057506000610719565b8160018114611de65760028114611df057611e0c565b6001915050610719565b60ff841115611e0157611e01611d1c565b50506001821b610719565b5060208310610133831016604e8410600b8410161715611e2f575081810a610719565b611e398383611d71565b8060001904821115611e4d57611e4d611d1c565b029392505050565b600061076360ff841683611db4565b634e487b7160e01b600052601260045260246000fd5b60008251611e8c818460208701611aba565b9190910192915050565b600060208284031215611ea857600080fd5b8151801515811461076357600080fd5b634e487b7160e01b600052602160045260246000fd5b600060ff831680611eef57634e487b7160e01b600052601260045260246000fd5b8060ff8416069150509291505056fea264697066735822122078be0d61f06be7b31d82934e38e0e01f533e761933d73e729a05ac0e4d4cba7164736f6c63430008150033",
  "devdoc": {
    "details": "ERC-4626 is a standard to optimize and unify the technical parameters      of yield-bearing vaults. This contract facilitates the minting and      burning of shares (stBTC), which are represented as standard ERC20      tokens, providing a seamless exchange with tBTC tokens.",
    "errors": {
      "AddressEmptyCode(address)": [
        {
          "details": "There's no code at `target` (it is not a contract)."
        }
      ],
      "AddressInsufficientBalance(address)": [
        {
          "details": "The ETH balance of the account is not enough to perform the operation."
        }
      ],
      "ERC20InsufficientAllowance(address,uint256,uint256)": [
        {
          "details": "Indicates a failure with the `spender`s `allowance`. Used in transfers.",
          "params": {
            "allowance": "Amount of tokens a `spender` is allowed to operate with.",
            "needed": "Minimum amount required to perform a transfer.",
            "spender": "Address that may be allowed to operate on tokens without being their owner."
          }
        }
      ],
      "ERC20InsufficientBalance(address,uint256,uint256)": [
        {
          "details": "Indicates an error related to the current `balance` of a `sender`. Used in transfers.",
          "params": {
            "balance": "Current balance for the interacting account.",
            "needed": "Minimum amount required to perform a transfer.",
            "sender": "Address whose tokens are being transferred."
          }
        }
      ],
      "ERC20InvalidApprover(address)": [
        {
          "details": "Indicates a failure with the `approver` of a token to be approved. Used in approvals.",
          "params": {
            "approver": "Address initiating an approval operation."
          }
        }
      ],
      "ERC20InvalidReceiver(address)": [
        {
          "details": "Indicates a failure with the token `receiver`. Used in transfers.",
          "params": {
            "receiver": "Address to which tokens are being transferred."
          }
        }
      ],
      "ERC20InvalidSender(address)": [
        {
          "details": "Indicates a failure with the token `sender`. Used in transfers.",
          "params": {
            "sender": "Address whose tokens are being transferred."
          }
        }
      ],
      "ERC20InvalidSpender(address)": [
        {
          "details": "Indicates a failure with the `spender` to be approved. Used in approvals.",
          "params": {
            "spender": "Address that may be allowed to operate on tokens without being their owner."
          }
        }
      ],
      "ERC4626ExceededMaxDeposit(address,uint256,uint256)": [
        {
          "details": "Attempted to deposit more assets than the max amount for `receiver`."
        }
      ],
      "ERC4626ExceededMaxMint(address,uint256,uint256)": [
        {
          "details": "Attempted to mint more shares than the max amount for `receiver`."
        }
      ],
      "ERC4626ExceededMaxRedeem(address,uint256,uint256)": [
        {
          "details": "Attempted to redeem more shares than the max amount for `receiver`."
        }
      ],
      "ERC4626ExceededMaxWithdraw(address,uint256,uint256)": [
        {
          "details": "Attempted to withdraw more assets than the max amount for `receiver`."
        }
      ],
      "FailedInnerCall()": [
        {
          "details": "A call to an address target failed. The target may have reverted."
        }
      ],
      "LessThanMinDeposit(uint256,uint256)": [
        {
          "params": {
            "amount": "Amount to check.",
            "min": "Minimum amount to check 'amount' against."
          }
        }
      ],
      "MathOverflowedMulDiv()": [
        {
          "details": "Muldiv operation overflow."
        }
      ],
      "OwnableInvalidOwner(address)": [
        {
          "details": "The owner is not a valid owner account. (eg. `address(0)`)"
        }
      ],
      "OwnableUnauthorizedAccount(address)": [
        {
          "details": "The caller account is not authorized to perform an operation."
        }
      ],
      "SafeERC20FailedOperation(address)": [
        {
          "details": "An operation with an ERC20 token failed."
        }
      ]
    },
    "events": {
      "Approval(address,address,uint256)": {
        "details": "Emitted when the allowance of a `spender` for an `owner` is set by a call to {approve}. `value` is the new allowance."
      },
      "DepositParametersUpdated(uint256,uint256)": {
        "params": {
          "maximumTotalAssets": "New value of the maximum total assets amount.",
          "minimumDepositAmount": "New value of the minimum deposit amount."
        }
      },
      "DispatcherUpdated(address,address)": {
        "params": {
          "newDispatcher": "Address of the new dispatcher contract.",
          "oldDispatcher": "Address of the old dispatcher contract."
        }
      },
      "EntryFeeBasisPointsUpdated(uint256)": {
        "params": {
          "entryFeeBasisPoints": "New value of the fee basis points."
        }
      },
      "StakeReferral(uint16,uint256)": {
        "params": {
          "assets": "Amount of tBTC tokens staked.",
          "referral": "Used for referral program."
        }
      },
      "Transfer(address,address,uint256)": {
        "details": "Emitted when `value` tokens are moved from one account (`from`) to another (`to`). Note that `value` may be zero."
      },
      "TreasuryUpdated(address)": {
        "params": {
          "treasury": "New treasury wallet address."
        }
      }
    },
    "kind": "dev",
    "methods": {
      "allowance(address,address)": {
        "details": "See {IERC20-allowance}."
      },
      "approve(address,uint256)": {
        "details": "See {IERC20-approve}. NOTE: If `value` is the maximum `uint256`, the allowance is not updated on `transferFrom`. This is semantically equivalent to an infinite approval. Requirements: - `spender` cannot be the zero address."
      },
      "asset()": {
        "details": "See {IERC4626-asset}. "
      },
      "balanceOf(address)": {
        "details": "See {IERC20-balanceOf}."
      },
      "convertToAssets(uint256)": {
        "details": "See {IERC4626-convertToAssets}. "
      },
      "convertToShares(uint256)": {
        "details": "See {IERC4626-convertToShares}. "
      },
      "decimals()": {
        "details": "Decimals are computed by adding the decimal offset on top of the underlying asset's decimals. This \"original\" value is cached during construction of the vault contract. If this read operation fails (e.g., the asset has not been created yet), a default of 18 is used to represent the underlying asset's decimals. See {IERC20Metadata-decimals}."
      },
      "deposit(uint256,address)": {
        "details": "Takes into account a deposit parameter, minimum deposit amount,      which determines the minimum amount for a single deposit operation.      The amount of the assets has to be pre-approved in the tBTC      contract.",
        "params": {
          "assets": "Approved amount of tBTC tokens to deposit. This includes               treasury fees for staking tBTC.",
          "receiver": "The address to which the shares will be minted."
        },
        "returns": {
          "_0": "Minted shares adjusted for the fees taken by the treasury."
        }
      },
      "depositParameters()": {
        "returns": {
          "_0": "Returns deposit parameters."
        }
      },
      "maxDeposit(address)": {
        "returns": {
          "_0": "The maximum amount of tBTC token that can be deposited into         Acre protocol for the receiver."
        }
      },
      "maxMint(address)": {
        "details": "Since the stBTC contract limits the maximum total tBTC tokens this      function converts the maximum deposit amount to shares.",
        "returns": {
          "_0": "The maximum amount of the vault shares."
        }
      },
      "maxRedeem(address)": {
        "details": "See {IERC4626-maxRedeem}. "
      },
      "maxWithdraw(address)": {
        "details": "See {IERC4626-maxWithdraw}. "
      },
      "mint(uint256,address)": {
        "details": "Takes into account a deposit parameter, minimum deposit amount,      which determines the minimum amount for a single deposit operation.      The amount of the assets has to be pre-approved in the tBTC      contract.      The msg.sender is required to grant approval for the transfer of a      certain amount of tBTC, and in addition, approval for the associated      fee. Specifically, the total amount to be approved (amountToApprove)      should be equal to the sum of the deposited amount and the fee.      To determine the total assets amount necessary for approval      corresponding to a given share amount, use the `previewMint` function.",
        "params": {
          "receiver": "The address to which the shares will be minted.",
          "shares": "Amount of shares to mint."
        }
      },
      "name()": {
        "details": "Returns the name of the token."
      },
      "owner()": {
        "details": "Returns the address of the current owner."
      },
      "previewDeposit(uint256)": {
        "details": "Preview taking an entry fee on deposit. See {IERC4626-previewDeposit}."
      },
      "previewMint(uint256)": {
        "details": "Preview adding an entry fee on mint. See {IERC4626-previewMint}."
      },
      "previewRedeem(uint256)": {
        "details": "See {IERC4626-previewRedeem}. "
      },
      "previewWithdraw(uint256)": {
        "details": "See {IERC4626-previewWithdraw}. "
      },
      "redeem(uint256,address,address)": {
        "details": "See {IERC4626-redeem}. "
      },
      "renounceOwnership()": {
        "details": "Leaves the contract without owner. It will not be possible to call `onlyOwner` functions. Can only be called by the current owner. NOTE: Renouncing ownership will leave the contract without an owner, thereby disabling any functionality that is only available to the owner."
      },
      "stake(uint256,address,uint16)": {
        "details": "This function calls `deposit` function from `ERC4626` contract. The      amount of the assets has to be pre-approved in the tBTC contract.",
        "params": {
          "assets": "Approved amount for the transfer and stake.",
          "receiver": "The address to which the shares will be minted.",
          "referral": "Data used for referral program."
        },
        "returns": {
          "_0": "shares Minted shares."
        }
      },
      "symbol()": {
        "details": "Returns the symbol of the token, usually a shorter version of the name."
      },
      "totalAssets()": {
        "details": "See {IERC4626-totalAssets}. "
      },
      "totalSupply()": {
        "details": "See {IERC20-totalSupply}."
      },
      "transfer(address,uint256)": {
        "details": "See {IERC20-transfer}. Requirements: - `to` cannot be the zero address. - the caller must have a balance of at least `value`."
      },
      "transferFrom(address,address,uint256)": {
        "details": "See {IERC20-transferFrom}. Emits an {Approval} event indicating the updated allowance. This is not required by the EIP. See the note at the beginning of {ERC20}. NOTE: Does not update the allowance if the current allowance is the maximum `uint256`. Requirements: - `from` and `to` cannot be the zero address. - `from` must have a balance of at least `value`. - the caller must have allowance for ``from``'s tokens of at least `value`."
      },
      "transferOwnership(address)": {
        "details": "Transfers ownership of the contract to a new account (`newOwner`). Can only be called by the current owner."
      },
      "updateDepositParameters(uint256,uint256)": {
        "details": "To disable the limit for deposits, set the maximum total assets to      maximum (`type(uint256).max`).",
        "params": {
          "_maximumTotalAssets": "New value of the maximum total assets amount.        It is the maximum amount of the tBTC token that the Acre protocol        can hold.",
          "_minimumDepositAmount": "New value of the minimum deposit amount. It        is the minimum amount for a single deposit operation."
        }
      },
      "updateDispatcher(address)": {
        "params": {
          "newDispatcher": "Address of the new dispatcher contract."
        }
      },
      "updateEntryFeeBasisPoints(uint256)": {
        "params": {
          "newEntryFeeBasisPoints": "New value of the fee basis points."
        }
      },
      "updateTreasury(address)": {
        "params": {
          "newTreasury": "New treasury wallet address."
        }
      },
      "withdraw(uint256,address,address)": {
        "details": "See {IERC4626-withdraw}. "
      }
    },
    "title": "stBTC",
    "version": 1
  },
  "userdoc": {
    "errors": {
      "DisallowedAddress()": [
        {
          "notice": "Reverts if the address is disallowed."
        }
      ],
      "LessThanMinDeposit(uint256,uint256)": [
        {
          "notice": "Reverts if the amount is less than the minimum deposit amount."
        }
      ],
      "ZeroAddress()": [
        {
          "notice": "Reverts if the address is zero."
        }
      ]
    },
    "events": {
      "DepositParametersUpdated(uint256,uint256)": {
        "notice": "Emitted when deposit parameters are updated."
      },
      "DispatcherUpdated(address,address)": {
        "notice": "Emitted when the dispatcher contract is updated."
      },
      "EntryFeeBasisPointsUpdated(uint256)": {
        "notice": "Emitted when the entry fee basis points are updated."
      },
      "StakeReferral(uint16,uint256)": {
        "notice": "Emitted when a referral is used."
      },
      "TreasuryUpdated(address)": {
        "notice": "Emitted when the treasury wallet address is updated."
      }
    },
    "kind": "user",
    "methods": {
      "deposit(uint256,address)": {
        "notice": "Mints shares to receiver by depositing exactly amount of         tBTC tokens."
      },
      "dispatcher()": {
        "notice": "Dispatcher contract that routes tBTC from stBTC to a given vault and back."
      },
      "entryFeeBasisPoints()": {
        "notice": "Entry fee basis points applied to entry fee calculation."
      },
      "maxDeposit(address)": {
        "notice": "Returns the maximum amount of the tBTC token that can be         deposited into the vault for the receiver through a deposit         call. It takes into account the deposit parameter, maximum total         assets, which determines the total amount of tBTC token held by         Acre. This function always returns available limit for deposits,         but the fee is not taken into account. As a result of this, there         always will be some dust left. If the dust is lower than the         minimum deposit amount, this function will return 0."
      },
      "maxMint(address)": {
        "notice": "Returns the maximum amount of the vault shares that can be         minted for the receiver, through a mint call."
      },
      "maximumTotalAssets()": {
        "notice": "Maximum total amount of tBTC token held by Acre protocol."
      },
      "minimumDepositAmount()": {
        "notice": "Minimum amount for a single deposit operation. The value should be set low enough so the deposits routed through TbtcDepositor contract won't be rejected. It means that minimumDepositAmount should be lower than tBTC protocol's depositDustThreshold reduced by all the minting fees taken before depositing in the Acre contract."
      },
      "mint(uint256,address)": {
        "notice": "Mints shares to receiver by depositing tBTC tokens."
      },
      "stake(uint256,address,uint16)": {
        "notice": "Stakes a given amount of tBTC token and mints shares to a         receiver."
      },
      "treasury()": {
        "notice": "Address of the treasury wallet, where fees should be transferred to."
      },
      "updateDepositParameters(uint256,uint256)": {
        "notice": "Updates deposit parameters."
      },
      "updateDispatcher(address)": {
        "notice": "Updates the dispatcher contract and gives it an unlimited         allowance to transfer staked tBTC."
      },
      "updateEntryFeeBasisPoints(uint256)": {
        "notice": "Update the entry fee basis points."
      },
      "updateTreasury(address)": {
        "notice": "Updates treasury wallet address."
      }
    },
    "notice": "This contract implements the ERC-4626 tokenized vault standard. By         staking tBTC, users acquire a liquid staking token called stBTC,         commonly referred to as \"shares\". The staked tBTC is securely         deposited into Acre's vaults, where it generates yield over time.         Users have the flexibility to redeem stBTC, enabling them to         withdraw their staked tBTC along with the accrued yield.",
    "version": 1
  },
  "storageLayout": {
    "storage": [
      {
        "astId": 4066,
        "contract": "contracts/stBTC.sol:stBTC",
        "label": "_balances",
        "offset": 0,
        "slot": "0",
        "type": "t_mapping(t_address,t_uint256)"
      },
      {
        "astId": 4072,
        "contract": "contracts/stBTC.sol:stBTC",
        "label": "_allowances",
        "offset": 0,
        "slot": "1",
        "type": "t_mapping(t_address,t_mapping(t_address,t_uint256))"
      },
      {
        "astId": 4074,
        "contract": "contracts/stBTC.sol:stBTC",
        "label": "_totalSupply",
        "offset": 0,
        "slot": "2",
        "type": "t_uint256"
      },
      {
        "astId": 4076,
        "contract": "contracts/stBTC.sol:stBTC",
        "label": "_name",
        "offset": 0,
        "slot": "3",
        "type": "t_string_storage"
      },
      {
        "astId": 4078,
        "contract": "contracts/stBTC.sol:stBTC",
        "label": "_symbol",
        "offset": 0,
        "slot": "4",
        "type": "t_string_storage"
      },
      {
        "astId": 3597,
        "contract": "contracts/stBTC.sol:stBTC",
        "label": "_owner",
        "offset": 0,
        "slot": "5",
        "type": "t_address"
      },
      {
        "astId": 8071,
        "contract": "contracts/stBTC.sol:stBTC",
        "label": "dispatcher",
        "offset": 0,
        "slot": "6",
        "type": "t_contract(Dispatcher)7334"
      },
      {
        "astId": 8074,
        "contract": "contracts/stBTC.sol:stBTC",
        "label": "treasury",
        "offset": 0,
        "slot": "7",
        "type": "t_address"
      },
      {
        "astId": 8077,
        "contract": "contracts/stBTC.sol:stBTC",
        "label": "entryFeeBasisPoints",
        "offset": 0,
        "slot": "8",
        "type": "t_uint256"
      },
      {
        "astId": 8080,
        "contract": "contracts/stBTC.sol:stBTC",
        "label": "minimumDepositAmount",
        "offset": 0,
        "slot": "9",
        "type": "t_uint256"
      },
      {
        "astId": 8083,
        "contract": "contracts/stBTC.sol:stBTC",
        "label": "maximumTotalAssets",
        "offset": 0,
        "slot": "10",
        "type": "t_uint256"
      }
    ],
    "types": {
      "t_address": {
        "encoding": "inplace",
        "label": "address",
        "numberOfBytes": "20"
      },
      "t_contract(Dispatcher)7334": {
        "encoding": "inplace",
        "label": "contract Dispatcher",
        "numberOfBytes": "20"
      },
      "t_mapping(t_address,t_mapping(t_address,t_uint256))": {
        "encoding": "mapping",
        "key": "t_address",
        "label": "mapping(address => mapping(address => uint256))",
        "numberOfBytes": "32",
        "value": "t_mapping(t_address,t_uint256)"
      },
      "t_mapping(t_address,t_uint256)": {
        "encoding": "mapping",
        "key": "t_address",
        "label": "mapping(address => uint256)",
        "numberOfBytes": "32",
        "value": "t_uint256"
      },
      "t_string_storage": {
        "encoding": "bytes",
        "label": "string",
        "numberOfBytes": "32"
      },
      "t_uint256": {
        "encoding": "inplace",
        "label": "uint256",
        "numberOfBytes": "32"
      }
    }
  }
}