{
  "address": "0x1265bDDDd268daf903551cAf52800D758F8930c4",
  "abi": [
    {
      "inputs": [
        {
          "internalType": "contract IERC20",
          "name": "_tbtc",
          "type": "address"
        },
        {
          "internalType": "address",
          "name": "_treasury",
          "type": "address"
        }
      ],
      "stateMutability": "nonpayable",
      "type": "constructor"
    },
    {
      "inputs": [
        {
          "internalType": "address",
          "name": "target",
          "type": "address"
        }
      ],
      "name": "AddressEmptyCode",
      "type": "error"
    },
    {
      "inputs": [
        {
          "internalType": "address",
          "name": "account",
          "type": "address"
        }
      ],
      "name": "AddressInsufficientBalance",
      "type": "error"
    },
    {
      "inputs": [],
      "name": "DisallowedAddress",
      "type": "error"
    },
    {
      "inputs": [
        {
          "internalType": "address",
          "name": "spender",
          "type": "address"
        },
        {
          "internalType": "uint256",
          "name": "allowance",
          "type": "uint256"
        },
        {
          "internalType": "uint256",
          "name": "needed",
          "type": "uint256"
        }
      ],
      "name": "ERC20InsufficientAllowance",
      "type": "error"
    },
    {
      "inputs": [
        {
          "internalType": "address",
          "name": "sender",
          "type": "address"
        },
        {
          "internalType": "uint256",
          "name": "balance",
          "type": "uint256"
        },
        {
          "internalType": "uint256",
          "name": "needed",
          "type": "uint256"
        }
      ],
      "name": "ERC20InsufficientBalance",
      "type": "error"
    },
    {
      "inputs": [
        {
          "internalType": "address",
          "name": "approver",
          "type": "address"
        }
      ],
      "name": "ERC20InvalidApprover",
      "type": "error"
    },
    {
      "inputs": [
        {
          "internalType": "address",
          "name": "receiver",
          "type": "address"
        }
      ],
      "name": "ERC20InvalidReceiver",
      "type": "error"
    },
    {
      "inputs": [
        {
          "internalType": "address",
          "name": "sender",
          "type": "address"
        }
      ],
      "name": "ERC20InvalidSender",
      "type": "error"
    },
    {
      "inputs": [
        {
          "internalType": "address",
          "name": "spender",
          "type": "address"
        }
      ],
      "name": "ERC20InvalidSpender",
      "type": "error"
    },
    {
      "inputs": [
        {
          "internalType": "address",
          "name": "receiver",
          "type": "address"
        },
        {
          "internalType": "uint256",
          "name": "assets",
          "type": "uint256"
        },
        {
          "internalType": "uint256",
          "name": "max",
          "type": "uint256"
        }
      ],
      "name": "ERC4626ExceededMaxDeposit",
      "type": "error"
    },
    {
      "inputs": [
        {
          "internalType": "address",
          "name": "receiver",
          "type": "address"
        },
        {
          "internalType": "uint256",
          "name": "shares",
          "type": "uint256"
        },
        {
          "internalType": "uint256",
          "name": "max",
          "type": "uint256"
        }
      ],
      "name": "ERC4626ExceededMaxMint",
      "type": "error"
    },
    {
      "inputs": [
        {
          "internalType": "address",
          "name": "owner",
          "type": "address"
        },
        {
          "internalType": "uint256",
          "name": "shares",
          "type": "uint256"
        },
        {
          "internalType": "uint256",
          "name": "max",
          "type": "uint256"
        }
      ],
      "name": "ERC4626ExceededMaxRedeem",
      "type": "error"
    },
    {
      "inputs": [
        {
          "internalType": "address",
          "name": "owner",
          "type": "address"
        },
        {
          "internalType": "uint256",
          "name": "assets",
          "type": "uint256"
        },
        {
          "internalType": "uint256",
          "name": "max",
          "type": "uint256"
        }
      ],
      "name": "ERC4626ExceededMaxWithdraw",
      "type": "error"
    },
    {
      "inputs": [],
      "name": "FailedInnerCall",
      "type": "error"
    },
    {
      "inputs": [
        {
          "internalType": "uint256",
          "name": "amount",
          "type": "uint256"
        },
        {
          "internalType": "uint256",
          "name": "min",
          "type": "uint256"
        }
      ],
      "name": "LessThanMinDeposit",
      "type": "error"
    },
    {
      "inputs": [],
      "name": "MathOverflowedMulDiv",
      "type": "error"
    },
    {
      "inputs": [
        {
          "internalType": "address",
          "name": "owner",
          "type": "address"
        }
      ],
      "name": "OwnableInvalidOwner",
      "type": "error"
    },
    {
      "inputs": [
        {
          "internalType": "address",
          "name": "account",
          "type": "address"
        }
      ],
      "name": "OwnableUnauthorizedAccount",
      "type": "error"
    },
    {
      "inputs": [
        {
          "internalType": "address",
          "name": "token",
          "type": "address"
        }
      ],
      "name": "SafeERC20FailedOperation",
      "type": "error"
    },
    {
      "inputs": [],
      "name": "ZeroAddress",
      "type": "error"
    },
    {
      "anonymous": false,
      "inputs": [
        {
          "indexed": true,
          "internalType": "address",
          "name": "owner",
          "type": "address"
        },
        {
          "indexed": true,
          "internalType": "address",
          "name": "spender",
          "type": "address"
        },
        {
          "indexed": false,
          "internalType": "uint256",
          "name": "value",
          "type": "uint256"
        }
      ],
      "name": "Approval",
      "type": "event"
    },
    {
      "anonymous": false,
      "inputs": [
        {
          "indexed": true,
          "internalType": "address",
          "name": "sender",
          "type": "address"
        },
        {
          "indexed": true,
          "internalType": "address",
          "name": "owner",
          "type": "address"
        },
        {
          "indexed": false,
          "internalType": "uint256",
          "name": "assets",
          "type": "uint256"
        },
        {
          "indexed": false,
          "internalType": "uint256",
          "name": "shares",
          "type": "uint256"
        }
      ],
      "name": "Deposit",
      "type": "event"
    },
    {
      "anonymous": false,
      "inputs": [
        {
          "indexed": false,
          "internalType": "uint256",
          "name": "minimumDepositAmount",
          "type": "uint256"
        },
        {
          "indexed": false,
          "internalType": "uint256",
          "name": "maximumTotalAssets",
          "type": "uint256"
        }
      ],
      "name": "DepositParametersUpdated",
      "type": "event"
    },
    {
      "anonymous": false,
      "inputs": [
        {
          "indexed": false,
          "internalType": "address",
          "name": "oldDispatcher",
          "type": "address"
        },
        {
          "indexed": false,
          "internalType": "address",
          "name": "newDispatcher",
          "type": "address"
        }
      ],
      "name": "DispatcherUpdated",
      "type": "event"
    },
    {
      "anonymous": false,
      "inputs": [
        {
          "indexed": true,
          "internalType": "address",
          "name": "previousOwner",
          "type": "address"
        },
        {
          "indexed": true,
          "internalType": "address",
          "name": "newOwner",
          "type": "address"
        }
      ],
      "name": "OwnershipTransferred",
      "type": "event"
    },
    {
      "anonymous": false,
      "inputs": [
        {
          "indexed": true,
          "internalType": "address",
          "name": "from",
          "type": "address"
        },
        {
          "indexed": true,
          "internalType": "address",
          "name": "to",
          "type": "address"
        },
        {
          "indexed": false,
          "internalType": "uint256",
          "name": "value",
          "type": "uint256"
        }
      ],
      "name": "Transfer",
      "type": "event"
    },
    {
      "anonymous": false,
      "inputs": [
        {
          "indexed": false,
          "internalType": "address",
          "name": "treasury",
          "type": "address"
        }
      ],
      "name": "TreasuryUpdated",
      "type": "event"
    },
    {
      "anonymous": false,
      "inputs": [
        {
          "indexed": true,
          "internalType": "address",
          "name": "sender",
          "type": "address"
        },
        {
          "indexed": true,
          "internalType": "address",
          "name": "receiver",
          "type": "address"
        },
        {
          "indexed": true,
          "internalType": "address",
          "name": "owner",
          "type": "address"
        },
        {
          "indexed": false,
          "internalType": "uint256",
          "name": "assets",
          "type": "uint256"
        },
        {
          "indexed": false,
          "internalType": "uint256",
          "name": "shares",
          "type": "uint256"
        }
      ],
      "name": "Withdraw",
      "type": "event"
    },
    {
      "inputs": [
        {
          "internalType": "address",
          "name": "owner",
          "type": "address"
        },
        {
          "internalType": "address",
          "name": "spender",
          "type": "address"
        }
      ],
      "name": "allowance",
      "outputs": [
        {
          "internalType": "uint256",
          "name": "",
          "type": "uint256"
        }
      ],
      "stateMutability": "view",
      "type": "function"
    },
    {
      "inputs": [
        {
          "internalType": "address",
          "name": "spender",
          "type": "address"
        },
        {
          "internalType": "uint256",
          "name": "value",
          "type": "uint256"
        }
      ],
      "name": "approve",
      "outputs": [
        {
          "internalType": "bool",
          "name": "",
          "type": "bool"
        }
      ],
      "stateMutability": "nonpayable",
      "type": "function"
    },
    {
      "inputs": [],
      "name": "asset",
      "outputs": [
        {
          "internalType": "address",
          "name": "",
          "type": "address"
        }
      ],
      "stateMutability": "view",
      "type": "function"
    },
    {
      "inputs": [
        {
          "internalType": "address",
          "name": "account",
          "type": "address"
        }
      ],
      "name": "assetsBalanceOf",
      "outputs": [
        {
          "internalType": "uint256",
          "name": "",
          "type": "uint256"
        }
      ],
      "stateMutability": "view",
      "type": "function"
    },
    {
      "inputs": [
        {
          "internalType": "address",
          "name": "account",
          "type": "address"
        }
      ],
      "name": "balanceOf",
      "outputs": [
        {
          "internalType": "uint256",
          "name": "",
          "type": "uint256"
        }
      ],
      "stateMutability": "view",
      "type": "function"
    },
    {
      "inputs": [
        {
          "internalType": "uint256",
          "name": "shares",
          "type": "uint256"
        }
      ],
      "name": "convertToAssets",
      "outputs": [
        {
          "internalType": "uint256",
          "name": "",
          "type": "uint256"
        }
      ],
      "stateMutability": "view",
      "type": "function"
    },
    {
      "inputs": [
        {
          "internalType": "uint256",
          "name": "assets",
          "type": "uint256"
        }
      ],
      "name": "convertToShares",
      "outputs": [
        {
          "internalType": "uint256",
          "name": "",
          "type": "uint256"
        }
      ],
      "stateMutability": "view",
      "type": "function"
    },
    {
      "inputs": [],
      "name": "decimals",
      "outputs": [
        {
          "internalType": "uint8",
          "name": "",
          "type": "uint8"
        }
      ],
      "stateMutability": "view",
      "type": "function"
    },
    {
      "inputs": [
        {
          "internalType": "uint256",
          "name": "assets",
          "type": "uint256"
        },
        {
          "internalType": "address",
          "name": "receiver",
          "type": "address"
        }
      ],
      "name": "deposit",
      "outputs": [
        {
          "internalType": "uint256",
          "name": "",
          "type": "uint256"
        }
      ],
      "stateMutability": "nonpayable",
      "type": "function"
    },
    {
      "inputs": [],
      "name": "depositParameters",
      "outputs": [
        {
          "internalType": "uint256",
          "name": "",
          "type": "uint256"
        },
        {
          "internalType": "uint256",
          "name": "",
          "type": "uint256"
        }
      ],
      "stateMutability": "view",
      "type": "function"
    },
    {
      "inputs": [],
      "name": "dispatcher",
      "outputs": [
        {
          "internalType": "contract Dispatcher",
          "name": "",
          "type": "address"
        }
      ],
      "stateMutability": "view",
      "type": "function"
    },
    {
      "inputs": [
        {
          "internalType": "address",
          "name": "",
          "type": "address"
        }
      ],
      "name": "maxDeposit",
      "outputs": [
        {
          "internalType": "uint256",
          "name": "",
          "type": "uint256"
        }
      ],
      "stateMutability": "view",
      "type": "function"
    },
    {
      "inputs": [
        {
          "internalType": "address",
          "name": "receiver",
          "type": "address"
        }
      ],
      "name": "maxMint",
      "outputs": [
        {
          "internalType": "uint256",
          "name": "",
          "type": "uint256"
        }
      ],
      "stateMutability": "view",
      "type": "function"
    },
    {
      "inputs": [
        {
          "internalType": "address",
          "name": "owner",
          "type": "address"
        }
      ],
      "name": "maxRedeem",
      "outputs": [
        {
          "internalType": "uint256",
          "name": "",
          "type": "uint256"
        }
      ],
      "stateMutability": "view",
      "type": "function"
    },
    {
      "inputs": [
        {
          "internalType": "address",
          "name": "owner",
          "type": "address"
        }
      ],
      "name": "maxWithdraw",
      "outputs": [
        {
          "internalType": "uint256",
          "name": "",
          "type": "uint256"
        }
      ],
      "stateMutability": "view",
      "type": "function"
    },
    {
      "inputs": [],
      "name": "maximumTotalAssets",
      "outputs": [
        {
          "internalType": "uint256",
          "name": "",
          "type": "uint256"
        }
      ],
      "stateMutability": "view",
      "type": "function"
    },
    {
      "inputs": [],
      "name": "minimumDepositAmount",
      "outputs": [
        {
          "internalType": "uint256",
          "name": "",
          "type": "uint256"
        }
      ],
      "stateMutability": "view",
      "type": "function"
    },
    {
      "inputs": [
        {
          "internalType": "uint256",
          "name": "shares",
          "type": "uint256"
        },
        {
          "internalType": "address",
          "name": "receiver",
          "type": "address"
        }
      ],
      "name": "mint",
      "outputs": [
        {
          "internalType": "uint256",
          "name": "assets",
          "type": "uint256"
        }
      ],
      "stateMutability": "nonpayable",
      "type": "function"
    },
    {
      "inputs": [],
      "name": "name",
      "outputs": [
        {
          "internalType": "string",
          "name": "",
          "type": "string"
        }
      ],
      "stateMutability": "view",
      "type": "function"
    },
    {
      "inputs": [],
      "name": "owner",
      "outputs": [
        {
          "internalType": "address",
          "name": "",
          "type": "address"
        }
      ],
      "stateMutability": "view",
      "type": "function"
    },
    {
      "inputs": [
        {
          "internalType": "uint256",
          "name": "assets",
          "type": "uint256"
        }
      ],
      "name": "previewDeposit",
      "outputs": [
        {
          "internalType": "uint256",
          "name": "",
          "type": "uint256"
        }
      ],
      "stateMutability": "view",
      "type": "function"
    },
    {
      "inputs": [
        {
          "internalType": "uint256",
          "name": "shares",
          "type": "uint256"
        }
      ],
      "name": "previewMint",
      "outputs": [
        {
          "internalType": "uint256",
          "name": "",
          "type": "uint256"
        }
      ],
      "stateMutability": "view",
      "type": "function"
    },
    {
      "inputs": [
        {
          "internalType": "uint256",
          "name": "shares",
          "type": "uint256"
        }
      ],
      "name": "previewRedeem",
      "outputs": [
        {
          "internalType": "uint256",
          "name": "",
          "type": "uint256"
        }
      ],
      "stateMutability": "view",
      "type": "function"
    },
    {
      "inputs": [
        {
          "internalType": "uint256",
          "name": "assets",
          "type": "uint256"
        }
      ],
      "name": "previewWithdraw",
      "outputs": [
        {
          "internalType": "uint256",
          "name": "",
          "type": "uint256"
        }
      ],
      "stateMutability": "view",
      "type": "function"
    },
    {
      "inputs": [
        {
          "internalType": "uint256",
          "name": "shares",
          "type": "uint256"
        },
        {
          "internalType": "address",
          "name": "receiver",
          "type": "address"
        },
        {
          "internalType": "address",
          "name": "owner",
          "type": "address"
        }
      ],
      "name": "redeem",
      "outputs": [
        {
          "internalType": "uint256",
          "name": "",
          "type": "uint256"
        }
      ],
      "stateMutability": "nonpayable",
      "type": "function"
    },
    {
      "inputs": [],
      "name": "renounceOwnership",
      "outputs": [],
      "stateMutability": "nonpayable",
      "type": "function"
    },
    {
      "inputs": [],
      "name": "symbol",
      "outputs": [
        {
          "internalType": "string",
          "name": "",
          "type": "string"
        }
      ],
      "stateMutability": "view",
      "type": "function"
    },
    {
      "inputs": [],
      "name": "totalAssets",
      "outputs": [
        {
          "internalType": "uint256",
          "name": "",
          "type": "uint256"
        }
      ],
      "stateMutability": "view",
      "type": "function"
    },
    {
      "inputs": [],
      "name": "totalSupply",
      "outputs": [
        {
          "internalType": "uint256",
          "name": "",
          "type": "uint256"
        }
      ],
      "stateMutability": "view",
      "type": "function"
    },
    {
      "inputs": [
        {
          "internalType": "address",
          "name": "to",
          "type": "address"
        },
        {
          "internalType": "uint256",
          "name": "value",
          "type": "uint256"
        }
      ],
      "name": "transfer",
      "outputs": [
        {
          "internalType": "bool",
          "name": "",
          "type": "bool"
        }
      ],
      "stateMutability": "nonpayable",
      "type": "function"
    },
    {
      "inputs": [
        {
          "internalType": "address",
          "name": "from",
          "type": "address"
        },
        {
          "internalType": "address",
          "name": "to",
          "type": "address"
        },
        {
          "internalType": "uint256",
          "name": "value",
          "type": "uint256"
        }
      ],
      "name": "transferFrom",
      "outputs": [
        {
          "internalType": "bool",
          "name": "",
          "type": "bool"
        }
      ],
      "stateMutability": "nonpayable",
      "type": "function"
    },
    {
      "inputs": [
        {
          "internalType": "address",
          "name": "newOwner",
          "type": "address"
        }
      ],
      "name": "transferOwnership",
      "outputs": [],
      "stateMutability": "nonpayable",
      "type": "function"
    },
    {
      "inputs": [],
      "name": "treasury",
      "outputs": [
        {
          "internalType": "address",
          "name": "",
          "type": "address"
        }
      ],
      "stateMutability": "view",
      "type": "function"
    },
    {
      "inputs": [
        {
          "internalType": "uint256",
          "name": "_minimumDepositAmount",
          "type": "uint256"
        },
        {
          "internalType": "uint256",
          "name": "_maximumTotalAssets",
          "type": "uint256"
        }
      ],
      "name": "updateDepositParameters",
      "outputs": [],
      "stateMutability": "nonpayable",
      "type": "function"
    },
    {
      "inputs": [
        {
          "internalType": "contract Dispatcher",
          "name": "newDispatcher",
          "type": "address"
        }
      ],
      "name": "updateDispatcher",
      "outputs": [],
      "stateMutability": "nonpayable",
      "type": "function"
    },
    {
      "inputs": [
        {
          "internalType": "address",
          "name": "newTreasury",
          "type": "address"
        }
      ],
      "name": "updateTreasury",
      "outputs": [],
      "stateMutability": "nonpayable",
      "type": "function"
    },
    {
      "inputs": [
        {
          "internalType": "uint256",
          "name": "assets",
          "type": "uint256"
        },
        {
          "internalType": "address",
          "name": "receiver",
          "type": "address"
        },
        {
          "internalType": "address",
          "name": "owner",
          "type": "address"
        }
      ],
      "name": "withdraw",
      "outputs": [
        {
          "internalType": "uint256",
          "name": "",
          "type": "uint256"
        }
      ],
      "stateMutability": "nonpayable",
      "type": "function"
    }
  ],
  "transactionHash": "0x15d8cea2a1d7bc42ef13ac211cf8cc7c438c110432d8695f77b303b2eab1a1a1",
  "args": [
    "0x517f2982701695D4E52f1ECFBEf3ba31Df470161",
    "0x2d154A5c7cE9939274b89bbCe9f5B069E57b09A8"
  ],
  "numDeployments": 1,
  "solcInputHash": "ca2ee42c4a116704dc3eb0bec6d11bc6",
  "bytecode": "0x60c06040523480156200001157600080fd5b506040516200221a3803806200221a8339810160408190526200003491620002d5565b33826040518060400160405280601381526020017f41637265205374616b656420426974636f696e0000000000000000000000000081525060405180604001604052806005815260200164737442544360d81b81525081600390816200009b9190620003b9565b506004620000aa8282620003b9565b505050600080620000c1836200018560201b60201c565b9150915081620000d3576012620000d5565b805b60ff1660a05250506001600160a01b0390811660805281166200011257604051631e4fbdf760e01b81526000600482015260240160405180910390fd5b6200011d816200026a565b506001600160a01b038116620001465760405163d92e233d60e01b815260040160405180910390fd5b600780546001600160a01b0319166001600160a01b03929092169190911790555066038d7ea4c6800060085568015af1d78b58c40000600955620004d0565b60408051600481526024810182526020810180516001600160e01b031663313ce56760e01b17905290516000918291829182916001600160a01b03871691620001ce9162000485565b600060405180830381855afa9150503d80600081146200020b576040519150601f19603f3d011682016040523d82523d6000602084013e62000210565b606091505b50915091508180156200022557506020815110155b156200025d57600081806020019051810190620002439190620004b6565b905060ff81116200025b576001969095509350505050565b505b5060009485945092505050565b600580546001600160a01b038381166001600160a01b0319831681179093556040519116919082907f8be0079c531659141344cd1fd0a4f28419497f9722a3daafe3b4186f6b6457e090600090a35050565b6001600160a01b0381168114620002d257600080fd5b50565b60008060408385031215620002e957600080fd5b8251620002f681620002bc565b60208401519092506200030981620002bc565b809150509250929050565b634e487b7160e01b600052604160045260246000fd5b600181811c908216806200033f57607f821691505b6020821081036200036057634e487b7160e01b600052602260045260246000fd5b50919050565b601f821115620003b457600081815260208120601f850160051c810160208610156200038f5750805b601f850160051c820191505b81811015620003b0578281556001016200039b565b5050505b505050565b81516001600160401b03811115620003d557620003d562000314565b620003ed81620003e684546200032a565b8462000366565b602080601f8311600181146200042557600084156200040c5750858301515b600019600386901b1c1916600185901b178555620003b0565b600085815260208120601f198616915b82811015620004565788860151825594840194600190910190840162000435565b5085821015620004755787850151600019600388901b60f8161c191681555b5050505050600190811b01905550565b6000825160005b81811015620004a857602081860181015185830152016200048c565b506000920191825250919050565b600060208284031215620004c957600080fd5b5051919050565b60805160a051611d0162000519600039600061070d0152600081816103350152818161059d0152818161082c01528181610871015281816110b501526114ff0152611d016000f3fe608060405234801561001057600080fd5b50600436106102775760003560e01c80637f51bb1f11610160578063c42b64d0116100d8578063d905777e1161008c578063e9c092e311610071578063e9c092e314610546578063ef8b30f7146104c1578063f2fde38b1461055957600080fd5b8063d905777e146104fa578063dd62ed3e1461050d57600080fd5b8063c6e6f592116100bd578063c6e6f592146104c1578063cb7e9057146104d4578063ce96cb77146104e757600080fd5b8063c42b64d014610493578063c63d75b6146104ae57600080fd5b8063995bd0c11161012f578063b3d7f6b911610114578063b3d7f6b91461045a578063b460af941461046d578063ba0876521461048057600080fd5b8063995bd0c114610434578063a9059cbb1461044757600080fd5b80637f51bb1f146103f55780638da5cb5b1461040857806394bf804d1461041957806395d89b411461042c57600080fd5b806338d52e0f116101f3578063543bda75116101c25780636e553f65116101a75780636e553f65146103b157806370a08231146103c4578063715018a6146103ed57600080fd5b8063543bda751461039557806361d027b31461039e57600080fd5b806338d52e0f14610333578063402d267d1461036d57806342af1198146103805780634cdad506146102ac57600080fd5b8063095ea7b31161024a57806318160ddd1161022f57806318160ddd146102fe57806323b872dd14610306578063313ce5671461031957600080fd5b8063095ea7b3146102c85780630a28a477146102eb57600080fd5b806301e1d1141461027c57806306fdde031461029757806307a2d13a146102ac578063080c279a146102bf575b600080fd5b61028461056c565b6040519081526020015b60405180910390f35b61029f610615565b60405161028e91906118e9565b6102846102ba36600461191c565b6106a7565b61028460085481565b6102db6102d636600461194a565b6106ba565b604051901515815260200161028e565b6102846102f936600461191c565b6106d2565b600254610284565b6102db610314366004611976565b6106df565b610321610705565b60405160ff909116815260200161028e565b7f00000000000000000000000000000000000000000000000000000000000000005b6040516001600160a01b03909116815260200161028e565b61028461037b3660046119b7565b610731565b61039361038e3660046119b7565b610779565b005b61028460095481565b600754610355906001600160a01b031681565b6102846103bf3660046119d4565b610899565b6102846103d23660046119b7565b6001600160a01b031660009081526020819052604090205490565b6103936108df565b6103936104033660046119b7565b6108f3565b6005546001600160a01b0316610355565b6102846104273660046119d4565b6109c5565b61029f610a04565b6102846104423660046119b7565b610a13565b6102db61045536600461194a565b610a35565b61028461046836600461191c565b610a43565b61028461047b366004611a04565b610a50565b61028461048e366004611a04565b610ad4565b6008546009546040805192835260208301919091520161028e565b6102846104bc3660046119b7565b610b4f565b6102846104cf36600461191c565b610b79565b600654610355906001600160a01b031681565b6102846104f53660046119b7565b610b86565b6102846105083660046119b7565b610baa565b61028461051b366004611a46565b6001600160a01b03918216600090815260016020908152604080832093909416825291909152205490565b610393610554366004611a74565b610bc8565b6103936105673660046119b7565b610c17565b6040517f70a082310000000000000000000000000000000000000000000000000000000081523060048201526000907f00000000000000000000000000000000000000000000000000000000000000006001600160a01b0316906370a0823190602401602060405180830381865afa1580156105ec573d6000803e3d6000fd5b505050506040513d601f19601f820116820180604052508101906106109190611a96565b905090565b60606003805461062490611aaf565b80601f016020809104026020016040519081016040528092919081815260200182805461065090611aaf565b801561069d5780601f106106725761010080835404028352916020019161069d565b820191906000526020600020905b81548152906001019060200180831161068057829003601f168201915b5050505050905090565b60006106b4826000610c6e565b92915050565b6000336106c8818585610ca8565b5060019392505050565b60006106b4826001610cba565b6000336106ed858285610cea565b6106f8858585610d81565b60019150505b9392505050565b6000610610817f0000000000000000000000000000000000000000000000000000000000000000611aff565b6000600019600954036107475750600019919050565b600061075161056c565b9050600954811015610770578060095461076b9190611b18565b6106fe565b60009392505050565b610781610de0565b6001600160a01b0381166107a85760405163d92e233d60e01b815260040160405180910390fd5b600654604080516001600160a01b0392831680825292841660208201527ff6e490308a0c67484cf1082cb89a68053c7a7bbf474247e8b634957e2ce2f296910160405180910390a16006805473ffffffffffffffffffffffffffffffffffffffff19166001600160a01b038481169190911790915581161561085c5761085c8160007f00000000000000000000000000000000000000000000000000000000000000005b6001600160a01b03169190610e26565b600654610895906001600160a01b03166000197f000000000000000000000000000000000000000000000000000000000000000061084c565b5050565b60006008548310156108d5576008546040516314d6e77b60e31b81526108cc918591600401918252602082015260400190565b60405180910390fd5b6106fe8383610f27565b6108e7610de0565b6108f16000610fa9565b565b6108fb610de0565b6001600160a01b0381166109225760405163d92e233d60e01b815260040160405180910390fd5b306001600160a01b03821603610964576040517f593230f700000000000000000000000000000000000000000000000000000000815260040160405180910390fd5b6007805473ffffffffffffffffffffffffffffffffffffffff19166001600160a01b0383169081179091556040519081527f7dae230f18360d76a040c81f050aa14eb9d6dc7901b20fc5d855e2a20fe814d19060200160405180910390a150565b60006008546109d48484611008565b91508110156106b4576008546040516314d6e77b60e31b81526108cc918391600401918252602082015260400190565b60606004805461062490611aaf565b6001600160a01b0381166000908152602081905260408120546106b4906106a7565b6000336106c8818585610d81565b60006106b4826001610c6e565b600080610a5c83610b86565b905080851115610ab1576040517ffe9cceec0000000000000000000000000000000000000000000000000000000081526001600160a01b038416600482015260248101869052604481018290526064016108cc565b6000610abc866106d2565b9050610acb3386868985611082565b95945050505050565b600080610ae083610baa565b905080851115610b35576040517fb94abeec0000000000000000000000000000000000000000000000000000000081526001600160a01b038416600482015260248101869052604481018290526064016108cc565b6000610b40866106a7565b9050610acb338686848a611082565b600080610b5b83610731565b90506000198114610b6f5761076b81610b79565b6000199392505050565b60006106b4826000610cba565b6001600160a01b0381166000908152602081905260408120546106b4906000610c6e565b6001600160a01b0381166000908152602081905260408120546106b4565b610bd0610de0565b6008829055600981905560408051838152602081018390527f5543b97d9277fef57d70edac6c4c10f4426957b886dfe97286c01d2218a53280910160405180910390a15050565b610c1f610de0565b6001600160a01b038116610c62576040517f1e4fbdf7000000000000000000000000000000000000000000000000000000008152600060048201526024016108cc565b610c6b81610fa9565b50565b60006106fe610c7b61056c565b610c86906001611b2b565b610c926000600a611c22565b600254610c9f9190611b2b565b85919085611142565b610cb58383836001611191565b505050565b60006106fe610cca82600a611c22565b600254610cd79190611b2b565b610cdf61056c565b610c9f906001611b2b565b6001600160a01b038381166000908152600160209081526040808320938616835292905220546000198114610d7b5781811015610d6c576040517ffb8f41b20000000000000000000000000000000000000000000000000000000081526001600160a01b038416600482015260248101829052604481018390526064016108cc565b610d7b84848484036000611191565b50505050565b6001600160a01b038316610dab57604051634b637e8f60e11b8152600060048201526024016108cc565b6001600160a01b038216610dd55760405163ec442f0560e01b8152600060048201526024016108cc565b610cb5838383611298565b6005546001600160a01b031633146108f1576040517f118cdaa70000000000000000000000000000000000000000000000000000000081523360048201526024016108cc565b604080516001600160a01b038416602482015260448082018490528251808303909101815260649091019091526020810180517bffffffffffffffffffffffffffffffffffffffffffffffffffffffff167f095ea7b300000000000000000000000000000000000000000000000000000000179052610ea584826113db565b610d7b576040516001600160a01b03848116602483015260006044830152610f1d91869182169063095ea7b3906064015b604051602081830303815290604052915060e01b6020820180517bffffffffffffffffffffffffffffffffffffffffffffffffffffffff838183161783525050505061147e565b610d7b848261147e565b600080610f3383610731565b905080841115610f88576040517f79012fb20000000000000000000000000000000000000000000000000000000081526001600160a01b038416600482015260248101859052604481018290526064016108cc565b6000610f9385610b79565b9050610fa1338587846114fa565b949350505050565b600580546001600160a01b0383811673ffffffffffffffffffffffffffffffffffffffff19831681179093556040519116919082907f8be0079c531659141344cd1fd0a4f28419497f9722a3daafe3b4186f6b6457e090600090a35050565b60008061101483610b4f565b905080841115611069576040517f284ff6670000000000000000000000000000000000000000000000000000000081526001600160a01b038416600482015260248101859052604481018290526064016108cc565b600061107485610a43565b9050610fa1338583886114fa565b826001600160a01b0316856001600160a01b0316146110a6576110a6838683610cea565b6110b0838261157e565b6110db7f000000000000000000000000000000000000000000000000000000000000000085846115b4565b826001600160a01b0316846001600160a01b0316866001600160a01b03167ffbde797d201c681b91056529119e0b02407c7bb96a4a2c75c01fc9667232c8db8585604051611133929190918252602082015260400190565b60405180910390a45050505050565b6000806111508686866115e5565b905061115b836116c2565b801561117757506000848061117257611172611c31565b868809115b15610acb57611187600182611b2b565b9695505050505050565b6001600160a01b0384166111d4576040517fe602df05000000000000000000000000000000000000000000000000000000008152600060048201526024016108cc565b6001600160a01b038316611217576040517f94280d62000000000000000000000000000000000000000000000000000000008152600060048201526024016108cc565b6001600160a01b0380851660009081526001602090815260408083209387168352929052208290558015610d7b57826001600160a01b0316846001600160a01b03167f8c5be1e5ebec7d5bd14f71427d1e84f3dd0314c0f7b2291e5b200ac8c7c3b9258460405161128a91815260200190565b60405180910390a350505050565b6001600160a01b0383166112c35780600260008282546112b89190611b2b565b9091555061134e9050565b6001600160a01b0383166000908152602081905260409020548181101561132f576040517fe450d38c0000000000000000000000000000000000000000000000000000000081526001600160a01b038516600482015260248101829052604481018390526064016108cc565b6001600160a01b03841660009081526020819052604090209082900390555b6001600160a01b03821661136a57600280548290039055611389565b6001600160a01b03821660009081526020819052604090208054820190555b816001600160a01b0316836001600160a01b03167fddf252ad1be2c89b69c2b068fc378daa952ba7f163c4a11628f55a4df523b3ef836040516113ce91815260200190565b60405180910390a3505050565b6000806000846001600160a01b0316846040516113f89190611c47565b6000604051808303816000865af19150503d8060008114611435576040519150601f19603f3d011682016040523d82523d6000602084013e61143a565b606091505b50915091508180156114645750805115806114645750808060200190518101906114649190611c63565b8015610acb5750505050506001600160a01b03163b151590565b60006114936001600160a01b038416836116ef565b905080516000141580156114b85750808060200190518101906114b69190611c63565b155b15610cb5576040517f5274afe70000000000000000000000000000000000000000000000000000000081526001600160a01b03841660048201526024016108cc565b6115267f00000000000000000000000000000000000000000000000000000000000000008530856116fd565b6115308382611736565b826001600160a01b0316846001600160a01b03167fdcbc1c05240f31ff3ad067ef1ee35ce4997762752e3a095284754544f4c709d7848460405161128a929190918252602082015260400190565b6001600160a01b0382166115a857604051634b637e8f60e11b8152600060048201526024016108cc565b61089582600083611298565b6040516001600160a01b03838116602483015260448201839052610cb591859182169063a9059cbb90606401610ed6565b600083830281600019858709828110838203039150508060000361161c5783828161161257611612611c31565b04925050506106fe565b808411611655576040517f227bc15300000000000000000000000000000000000000000000000000000000815260040160405180910390fd5b6000848688096000868103871696879004966002600389028118808a02820302808a02820302808a02820302808a02820302808a02820302808a02909103029181900381900460010186841190950394909402919094039290920491909117919091029150509392505050565b600060028260038111156116d8576116d8611c85565b6116e29190611c9b565b60ff166001149050919050565b60606106fe8383600061176c565b6040516001600160a01b038481166024830152838116604483015260648201839052610d7b9186918216906323b872dd90608401610ed6565b6001600160a01b0382166117605760405163ec442f0560e01b8152600060048201526024016108cc565b61089560008383611298565b6060814710156117aa576040517fcd7860590000000000000000000000000000000000000000000000000000000081523060048201526024016108cc565b600080856001600160a01b031684866040516117c69190611c47565b60006040518083038185875af1925050503d8060008114611803576040519150601f19603f3d011682016040523d82523d6000602084013e611808565b606091505b50915091506111878683836060826118235761076b82611883565b815115801561183a57506001600160a01b0384163b155b1561187c576040517f9996b3150000000000000000000000000000000000000000000000000000000081526001600160a01b03851660048201526024016108cc565b50806106fe565b8051156118935780518082602001fd5b6040517f1425ea4200000000000000000000000000000000000000000000000000000000815260040160405180910390fd5b60005b838110156118e05781810151838201526020016118c8565b50506000910152565b60208152600082518060208401526119088160408501602087016118c5565b601f01601f19169190910160400192915050565b60006020828403121561192e57600080fd5b5035919050565b6001600160a01b0381168114610c6b57600080fd5b6000806040838503121561195d57600080fd5b823561196881611935565b946020939093013593505050565b60008060006060848603121561198b57600080fd5b833561199681611935565b925060208401356119a681611935565b929592945050506040919091013590565b6000602082840312156119c957600080fd5b81356106fe81611935565b600080604083850312156119e757600080fd5b8235915060208301356119f981611935565b809150509250929050565b600080600060608486031215611a1957600080fd5b833592506020840135611a2b81611935565b91506040840135611a3b81611935565b809150509250925092565b60008060408385031215611a5957600080fd5b8235611a6481611935565b915060208301356119f981611935565b60008060408385031215611a8757600080fd5b50508035926020909101359150565b600060208284031215611aa857600080fd5b5051919050565b600181811c90821680611ac357607f821691505b602082108103611ae357634e487b7160e01b600052602260045260246000fd5b50919050565b634e487b7160e01b600052601160045260246000fd5b60ff81811683821601908111156106b4576106b4611ae9565b818103818111156106b4576106b4611ae9565b808201808211156106b4576106b4611ae9565b600181815b80851115611b79578160001904821115611b5f57611b5f611ae9565b80851615611b6c57918102915b93841c9390800290611b43565b509250929050565b600082611b90575060016106b4565b81611b9d575060006106b4565b8160018114611bb35760028114611bbd57611bd9565b60019150506106b4565b60ff841115611bce57611bce611ae9565b50506001821b6106b4565b5060208310610133831016604e8410600b8410161715611bfc575081810a6106b4565b611c068383611b3e565b8060001904821115611c1a57611c1a611ae9565b029392505050565b60006106fe60ff841683611b81565b634e487b7160e01b600052601260045260246000fd5b60008251611c598184602087016118c5565b9190910192915050565b600060208284031215611c7557600080fd5b815180151581146106fe57600080fd5b634e487b7160e01b600052602160045260246000fd5b600060ff831680611cbc57634e487b7160e01b600052601260045260246000fd5b8060ff8416069150509291505056fea2646970667358221220613e87e5d7e469eae628fc2f45b68eaf8d314fc3fbd6b5de50baf2a5e5c5a97664736f6c63430008150033",
  "devdoc": {
    "details": "ERC-4626 is a standard to optimize and unify the technical parameters      of yield-bearing vaults. This contract facilitates the minting and      burning of shares (stBTC), which are represented as standard ERC20      tokens, providing a seamless exchange with tBTC tokens.",
    "errors": {
      "AddressEmptyCode(address)": [
        {
          "details": "There's no code at `target` (it is not a contract)."
        }
      ],
      "AddressInsufficientBalance(address)": [
        {
          "details": "The ETH balance of the account is not enough to perform the operation."
        }
      ],
      "ERC20InsufficientAllowance(address,uint256,uint256)": [
        {
          "details": "Indicates a failure with the `spender`s `allowance`. Used in transfers.",
          "params": {
            "allowance": "Amount of tokens a `spender` is allowed to operate with.",
            "needed": "Minimum amount required to perform a transfer.",
            "spender": "Address that may be allowed to operate on tokens without being their owner."
          }
        }
      ],
      "ERC20InsufficientBalance(address,uint256,uint256)": [
        {
          "details": "Indicates an error related to the current `balance` of a `sender`. Used in transfers.",
          "params": {
            "balance": "Current balance for the interacting account.",
            "needed": "Minimum amount required to perform a transfer.",
            "sender": "Address whose tokens are being transferred."
          }
        }
      ],
      "ERC20InvalidApprover(address)": [
        {
          "details": "Indicates a failure with the `approver` of a token to be approved. Used in approvals.",
          "params": {
            "approver": "Address initiating an approval operation."
          }
        }
      ],
      "ERC20InvalidReceiver(address)": [
        {
          "details": "Indicates a failure with the token `receiver`. Used in transfers.",
          "params": {
            "receiver": "Address to which tokens are being transferred."
          }
        }
      ],
      "ERC20InvalidSender(address)": [
        {
          "details": "Indicates a failure with the token `sender`. Used in transfers.",
          "params": {
            "sender": "Address whose tokens are being transferred."
          }
        }
      ],
      "ERC20InvalidSpender(address)": [
        {
          "details": "Indicates a failure with the `spender` to be approved. Used in approvals.",
          "params": {
            "spender": "Address that may be allowed to operate on tokens without being their owner."
          }
        }
      ],
      "ERC4626ExceededMaxDeposit(address,uint256,uint256)": [
        {
          "details": "Attempted to deposit more assets than the max amount for `receiver`."
        }
      ],
      "ERC4626ExceededMaxMint(address,uint256,uint256)": [
        {
          "details": "Attempted to mint more shares than the max amount for `receiver`."
        }
      ],
      "ERC4626ExceededMaxRedeem(address,uint256,uint256)": [
        {
          "details": "Attempted to redeem more shares than the max amount for `receiver`."
        }
      ],
      "ERC4626ExceededMaxWithdraw(address,uint256,uint256)": [
        {
          "details": "Attempted to withdraw more assets than the max amount for `receiver`."
        }
      ],
      "FailedInnerCall()": [
        {
          "details": "A call to an address target failed. The target may have reverted."
        }
      ],
      "LessThanMinDeposit(uint256,uint256)": [
        {
          "params": {
            "amount": "Amount to check.",
            "min": "Minimum amount to check 'amount' against."
          }
        }
      ],
      "MathOverflowedMulDiv()": [
        {
          "details": "Muldiv operation overflow."
        }
      ],
      "OwnableInvalidOwner(address)": [
        {
          "details": "The owner is not a valid owner account. (eg. `address(0)`)"
        }
      ],
      "OwnableUnauthorizedAccount(address)": [
        {
          "details": "The caller account is not authorized to perform an operation."
        }
      ],
      "SafeERC20FailedOperation(address)": [
        {
          "details": "An operation with an ERC20 token failed."
        }
      ]
    },
    "events": {
      "Approval(address,address,uint256)": {
        "details": "Emitted when the allowance of a `spender` for an `owner` is set by a call to {approve}. `value` is the new allowance."
      },
      "DepositParametersUpdated(uint256,uint256)": {
        "params": {
          "maximumTotalAssets": "New value of the maximum total assets amount.",
          "minimumDepositAmount": "New value of the minimum deposit amount."
        }
      },
      "DispatcherUpdated(address,address)": {
        "params": {
          "newDispatcher": "Address of the new dispatcher contract.",
          "oldDispatcher": "Address of the old dispatcher contract."
        }
      },
      "Transfer(address,address,uint256)": {
        "details": "Emitted when `value` tokens are moved from one account (`from`) to another (`to`). Note that `value` may be zero."
      },
      "TreasuryUpdated(address)": {
        "params": {
          "treasury": "New treasury wallet address."
        }
      }
    },
    "kind": "dev",
    "methods": {
      "allowance(address,address)": {
        "details": "See {IERC20-allowance}."
      },
      "approve(address,uint256)": {
        "details": "See {IERC20-approve}. NOTE: If `value` is the maximum `uint256`, the allowance is not updated on `transferFrom`. This is semantically equivalent to an infinite approval. Requirements: - `spender` cannot be the zero address."
      },
      "asset()": {
        "details": "See {IERC4626-asset}. "
      },
      "assetsBalanceOf(address)": {
        "params": {
          "account": "Owner of shares."
        },
        "returns": {
          "_0": "Assets amount."
        }
      },
      "balanceOf(address)": {
        "details": "See {IERC20-balanceOf}."
      },
      "convertToAssets(uint256)": {
        "details": "See {IERC4626-convertToAssets}. "
      },
      "convertToShares(uint256)": {
        "details": "See {IERC4626-convertToShares}. "
      },
      "decimals()": {
        "details": "Decimals are computed by adding the decimal offset on top of the underlying asset's decimals. This \"original\" value is cached during construction of the vault contract. If this read operation fails (e.g., the asset has not been created yet), a default of 18 is used to represent the underlying asset's decimals. See {IERC20Metadata-decimals}."
      },
      "deposit(uint256,address)": {
        "details": "Takes into account a deposit parameter, minimum deposit amount,      which determines the minimum amount for a single deposit operation.      The amount of the assets has to be pre-approved in the tBTC      contract.",
        "params": {
          "assets": "Approved amount of tBTC tokens to deposit.",
          "receiver": "The address to which the shares will be minted."
        },
        "returns": {
          "_0": "Minted shares."
        }
      },
      "depositParameters()": {
        "returns": {
          "_0": "Returns deposit parameters."
        }
      },
      "maxDeposit(address)": {
        "details": "When the remaining amount of unused limit is less than the minimum      deposit amount, this function returns 0.",
        "returns": {
          "_0": "The maximum amount of tBTC token that can be deposited into         Acre protocol for the receiver."
        }
      },
      "maxMint(address)": {
        "details": "Since the stBTC contract limits the maximum total tBTC tokens this      function converts the maximum deposit amount to shares.",
        "returns": {
          "_0": "The maximum amount of the vault shares."
        }
      },
      "maxRedeem(address)": {
        "details": "See {IERC4626-maxRedeem}. "
      },
      "maxWithdraw(address)": {
        "details": "See {IERC4626-maxWithdraw}. "
      },
      "mint(uint256,address)": {
        "details": "Takes into account a deposit parameter, minimum deposit amount,      which determines the minimum amount for a single deposit operation.      The amount of the assets has to be pre-approved in the tBTC      contract.      The msg.sender is required to grant approval for tBTC transfer.      To determine the total assets amount necessary for approval      corresponding to a given share amount, use the `previewMint` function.",
        "params": {
          "receiver": "The address to which the shares will be minted.",
          "shares": "Amount of shares to mint."
        }
      },
      "name()": {
        "details": "Returns the name of the token."
      },
      "owner()": {
        "details": "Returns the address of the current owner."
      },
      "previewDeposit(uint256)": {
        "details": "See {IERC4626-previewDeposit}. "
      },
      "previewMint(uint256)": {
        "details": "See {IERC4626-previewMint}. "
      },
      "previewRedeem(uint256)": {
        "details": "See {IERC4626-previewRedeem}. "
      },
      "previewWithdraw(uint256)": {
        "details": "See {IERC4626-previewWithdraw}. "
      },
      "redeem(uint256,address,address)": {
        "details": "See {IERC4626-redeem}. "
      },
      "renounceOwnership()": {
        "details": "Leaves the contract without owner. It will not be possible to call `onlyOwner` functions. Can only be called by the current owner. NOTE: Renouncing ownership will leave the contract without an owner, thereby disabling any functionality that is only available to the owner."
      },
      "symbol()": {
        "details": "Returns the symbol of the token, usually a shorter version of the name."
      },
      "totalAssets()": {
        "details": "See {IERC4626-totalAssets}. "
      },
      "totalSupply()": {
        "details": "See {IERC20-totalSupply}."
      },
      "transfer(address,uint256)": {
        "details": "See {IERC20-transfer}. Requirements: - `to` cannot be the zero address. - the caller must have a balance of at least `value`."
      },
      "transferFrom(address,address,uint256)": {
        "details": "See {IERC20-transferFrom}. Emits an {Approval} event indicating the updated allowance. This is not required by the EIP. See the note at the beginning of {ERC20}. NOTE: Does not update the allowance if the current allowance is the maximum `uint256`. Requirements: - `from` and `to` cannot be the zero address. - `from` must have a balance of at least `value`. - the caller must have allowance for ``from``'s tokens of at least `value`."
      },
      "transferOwnership(address)": {
        "details": "Transfers ownership of the contract to a new account (`newOwner`). Can only be called by the current owner."
      },
      "updateDepositParameters(uint256,uint256)": {
        "details": "To disable the limit for deposits, set the maximum total assets to      maximum (`type(uint256).max`).",
        "params": {
          "_maximumTotalAssets": "New value of the maximum total assets amount.        It is the maximum amount of the tBTC token that the Acre protocol        can hold.",
          "_minimumDepositAmount": "New value of the minimum deposit amount. It        is the minimum amount for a single deposit operation."
        }
      },
      "updateDispatcher(address)": {
        "params": {
          "newDispatcher": "Address of the new dispatcher contract."
        }
      },
      "updateTreasury(address)": {
        "params": {
          "newTreasury": "New treasury wallet address."
        }
      },
      "withdraw(uint256,address,address)": {
        "details": "See {IERC4626-withdraw}. "
      }
    },
    "title": "stBTC",
    "version": 1
  },
  "userdoc": {
    "errors": {
      "DisallowedAddress()": [
        {
          "notice": "Reverts if the address is disallowed."
        }
      ],
      "LessThanMinDeposit(uint256,uint256)": [
        {
          "notice": "Reverts if the amount is less than the minimum deposit amount."
        }
      ],
      "ZeroAddress()": [
        {
          "notice": "Reverts if the address is zero."
        }
      ]
    },
    "events": {
      "DepositParametersUpdated(uint256,uint256)": {
        "notice": "Emitted when deposit parameters are updated."
      },
      "DispatcherUpdated(address,address)": {
        "notice": "Emitted when the dispatcher contract is updated."
      },
      "TreasuryUpdated(address)": {
        "notice": "Emitted when the treasury wallet address is updated."
      }
    },
    "kind": "user",
    "methods": {
      "assetsBalanceOf(address)": {
        "notice": "Returns value of assets that would be exchanged for the amount of         shares owned by the `account`."
      },
      "deposit(uint256,address)": {
        "notice": "Mints shares to receiver by depositing exactly amount of         tBTC tokens."
      },
      "dispatcher()": {
        "notice": "Dispatcher contract that routes tBTC from stBTC to a given vault and back."
      },
      "maxDeposit(address)": {
        "notice": "Returns the maximum amount of the tBTC token that can be         deposited into the vault for the receiver through a deposit         call. It takes into account the deposit parameter, maximum total         assets, which determines the total amount of tBTC token held by         Acre protocol."
      },
      "maxMint(address)": {
        "notice": "Returns the maximum amount of the vault shares that can be         minted for the receiver, through a mint call."
      },
      "maximumTotalAssets()": {
        "notice": "Maximum total amount of tBTC token held by Acre protocol."
      },
      "minimumDepositAmount()": {
        "notice": "Minimum amount for a single deposit operation."
      },
      "mint(uint256,address)": {
        "notice": "Mints shares to receiver by depositing tBTC tokens."
      },
      "treasury()": {
        "notice": "Address of the treasury wallet, where fees should be transferred to."
      },
      "updateDepositParameters(uint256,uint256)": {
        "notice": "Updates deposit parameters."
      },
      "updateDispatcher(address)": {
        "notice": "Updates the dispatcher contract and gives it an unlimited         allowance to transfer staked tBTC."
      },
      "updateTreasury(address)": {
        "notice": "Updates treasury wallet address."
      }
    },
    "notice": "This contract implements the ERC-4626 tokenized vault standard. By         staking tBTC, users acquire a liquid staking token called stBTC,         commonly referred to as \"shares\". The staked tBTC is securely         deposited into Acre's vaults, where it generates yield over time.         Users have the flexibility to redeem stBTC, enabling them to         withdraw their staked tBTC along with the accrued yield.",
    "version": 1
  },
  "storageLayout": {
    "storage": [
      {
        "astId": 3600,
        "contract": "contracts/stBTC.sol:stBTC",
        "label": "_balances",
        "offset": 0,
        "slot": "0",
        "type": "t_mapping(t_address,t_uint256)"
      },
      {
        "astId": 3606,
        "contract": "contracts/stBTC.sol:stBTC",
        "label": "_allowances",
        "offset": 0,
        "slot": "1",
        "type": "t_mapping(t_address,t_mapping(t_address,t_uint256))"
      },
      {
        "astId": 3608,
        "contract": "contracts/stBTC.sol:stBTC",
        "label": "_totalSupply",
        "offset": 0,
        "slot": "2",
        "type": "t_uint256"
      },
      {
        "astId": 3610,
        "contract": "contracts/stBTC.sol:stBTC",
        "label": "_name",
        "offset": 0,
        "slot": "3",
        "type": "t_string_storage"
      },
      {
        "astId": 3612,
        "contract": "contracts/stBTC.sol:stBTC",
        "label": "_symbol",
        "offset": 0,
        "slot": "4",
        "type": "t_string_storage"
      },
      {
        "astId": 3131,
        "contract": "contracts/stBTC.sol:stBTC",
        "label": "_owner",
        "offset": 0,
        "slot": "5",
        "type": "t_address"
      },
      {
        "astId": 6958,
        "contract": "contracts/stBTC.sol:stBTC",
        "label": "dispatcher",
        "offset": 0,
        "slot": "6",
        "type": "t_contract(Dispatcher)6868"
      },
      {
        "astId": 6961,
        "contract": "contracts/stBTC.sol:stBTC",
        "label": "treasury",
        "offset": 0,
        "slot": "7",
        "type": "t_address"
      },
      {
        "astId": 6964,
        "contract": "contracts/stBTC.sol:stBTC",
        "label": "minimumDepositAmount",
        "offset": 0,
        "slot": "8",
        "type": "t_uint256"
      },
      {
        "astId": 6967,
        "contract": "contracts/stBTC.sol:stBTC",
        "label": "maximumTotalAssets",
        "offset": 0,
        "slot": "9",
        "type": "t_uint256"
      }
    ],
    "types": {
      "t_address": {
        "encoding": "inplace",
        "label": "address",
        "numberOfBytes": "20"
      },
      "t_contract(Dispatcher)6868": {
        "encoding": "inplace",
        "label": "contract Dispatcher",
        "numberOfBytes": "20"
      },
      "t_mapping(t_address,t_mapping(t_address,t_uint256))": {
        "encoding": "mapping",
        "key": "t_address",
        "label": "mapping(address => mapping(address => uint256))",
        "numberOfBytes": "32",
        "value": "t_mapping(t_address,t_uint256)"
      },
      "t_mapping(t_address,t_uint256)": {
        "encoding": "mapping",
        "key": "t_address",
        "label": "mapping(address => uint256)",
        "numberOfBytes": "32",
        "value": "t_uint256"
      },
      "t_string_storage": {
        "encoding": "bytes",
        "label": "string",
        "numberOfBytes": "32"
      },
      "t_uint256": {
        "encoding": "inplace",
        "label": "uint256",
        "numberOfBytes": "32"
      }
    }
  }
}