{
  "address": "0x37E34EbC743FFAf96b56b3f62854bb7E733a4B50",
  "abi": [
    {
      "inputs": [
        {
          "internalType": "address",
          "name": "bridge",
          "type": "address"
        },
        {
          "internalType": "address",
          "name": "tbtcVault",
          "type": "address"
        },
        {
          "internalType": "address",
          "name": "_tbtcToken",
          "type": "address"
        },
        {
          "internalType": "address",
          "name": "_stbtc",
          "type": "address"
        }
      ],
      "stateMutability": "nonpayable",
      "type": "constructor"
    },
    {
      "inputs": [
        {
          "internalType": "address",
          "name": "target",
          "type": "address"
        }
      ],
      "name": "AddressEmptyCode",
      "type": "error"
    },
    {
      "inputs": [
        {
          "internalType": "address",
          "name": "account",
          "type": "address"
        }
      ],
      "name": "AddressInsufficientBalance",
      "type": "error"
    },
    {
      "inputs": [],
      "name": "BridgingCompletionAlreadyNotified",
      "type": "error"
    },
    {
      "inputs": [],
      "name": "BridgingFinalizationAlreadyCalled",
      "type": "error"
    },
    {
      "inputs": [],
      "name": "BridgingNotCompleted",
      "type": "error"
    },
    {
      "inputs": [],
      "name": "CallerNotStaker",
      "type": "error"
    },
    {
      "inputs": [
        {
          "internalType": "uint256",
          "name": "depositorFee",
          "type": "uint256"
        },
        {
          "internalType": "uint256",
          "name": "bridgedAmount",
          "type": "uint256"
        }
      ],
      "name": "DepositorFeeExceedsBridgedAmount",
      "type": "error"
    },
    {
      "inputs": [],
      "name": "FailedInnerCall",
      "type": "error"
    },
    {
      "inputs": [
        {
          "internalType": "uint256",
          "name": "amountToStake",
          "type": "uint256"
        },
        {
          "internalType": "uint256",
          "name": "currentBalance",
          "type": "uint256"
        }
      ],
      "name": "InsufficientTbtcBalance",
      "type": "error"
    },
    {
      "inputs": [
        {
          "internalType": "address",
          "name": "owner",
          "type": "address"
        }
      ],
      "name": "OwnableInvalidOwner",
      "type": "error"
    },
    {
      "inputs": [
        {
          "internalType": "address",
          "name": "account",
          "type": "address"
        }
      ],
      "name": "OwnableUnauthorizedAccount",
      "type": "error"
    },
    {
      "inputs": [
        {
          "internalType": "uint8",
          "name": "bits",
          "type": "uint8"
        },
        {
          "internalType": "uint256",
          "name": "value",
          "type": "uint256"
        }
      ],
      "name": "SafeCastOverflowedUintDowncast",
      "type": "error"
    },
    {
      "inputs": [
        {
          "internalType": "address",
          "name": "token",
          "type": "address"
        }
      ],
      "name": "SafeERC20FailedOperation",
      "type": "error"
    },
    {
      "inputs": [],
      "name": "StakeRequestNotQueued",
      "type": "error"
    },
    {
      "inputs": [],
      "name": "StakerIsZeroAddress",
      "type": "error"
    },
    {
      "inputs": [],
      "name": "StbtcZeroAddress",
      "type": "error"
    },
    {
      "inputs": [],
      "name": "TbtcTokenZeroAddress",
      "type": "error"
    },
    {
      "inputs": [
        {
          "internalType": "enum AcreBitcoinDepositor.StakeRequestState",
          "name": "currentState",
          "type": "uint8"
        },
        {
          "internalType": "enum AcreBitcoinDepositor.StakeRequestState",
          "name": "expectedState",
          "type": "uint8"
        }
      ],
      "name": "UnexpectedStakeRequestState",
      "type": "error"
    },
    {
      "anonymous": false,
      "inputs": [
        {
          "indexed": true,
          "internalType": "uint256",
          "name": "depositKey",
          "type": "uint256"
        },
        {
          "indexed": true,
          "internalType": "address",
          "name": "caller",
          "type": "address"
        },
        {
          "indexed": true,
          "internalType": "uint16",
          "name": "referral",
          "type": "uint16"
        },
        {
          "indexed": false,
          "internalType": "uint256",
          "name": "bridgedAmount",
          "type": "uint256"
        },
        {
          "indexed": false,
          "internalType": "uint256",
          "name": "depositorFee",
          "type": "uint256"
        }
      ],
      "name": "BridgingCompleted",
      "type": "event"
    },
    {
      "anonymous": false,
      "inputs": [
        {
          "indexed": true,
          "internalType": "uint256",
          "name": "depositKey",
          "type": "uint256"
        },
        {
          "indexed": false,
          "internalType": "uint256",
          "name": "tbtcAmount",
          "type": "uint256"
        },
        {
          "indexed": false,
          "internalType": "uint32",
          "name": "finalizedAt",
          "type": "uint32"
        }
      ],
      "name": "DepositFinalized",
      "type": "event"
    },
    {
      "anonymous": false,
      "inputs": [
        {
          "indexed": true,
          "internalType": "uint256",
          "name": "depositKey",
          "type": "uint256"
        },
        {
          "indexed": false,
          "internalType": "uint32",
          "name": "initializedAt",
          "type": "uint32"
        }
      ],
      "name": "DepositInitialized",
      "type": "event"
    },
    {
      "anonymous": false,
      "inputs": [
        {
          "indexed": false,
          "internalType": "uint64",
          "name": "depositorFeeDivisor",
          "type": "uint64"
        }
      ],
      "name": "DepositorFeeDivisorUpdated",
      "type": "event"
    },
    {
      "anonymous": false,
      "inputs": [
        {
          "indexed": true,
          "internalType": "address",
          "name": "previousOwner",
          "type": "address"
        },
        {
          "indexed": true,
          "internalType": "address",
          "name": "newOwner",
          "type": "address"
        }
      ],
      "name": "OwnershipTransferStarted",
      "type": "event"
    },
    {
      "anonymous": false,
      "inputs": [
        {
          "indexed": true,
          "internalType": "address",
          "name": "previousOwner",
          "type": "address"
        },
        {
          "indexed": true,
          "internalType": "address",
          "name": "newOwner",
          "type": "address"
        }
      ],
      "name": "OwnershipTransferred",
      "type": "event"
    },
    {
      "anonymous": false,
      "inputs": [
        {
          "indexed": true,
          "internalType": "uint256",
          "name": "depositKey",
          "type": "uint256"
        },
        {
          "indexed": true,
          "internalType": "address",
          "name": "staker",
          "type": "address"
        },
        {
          "indexed": false,
          "internalType": "uint256",
          "name": "amountToStake",
          "type": "uint256"
        }
      ],
      "name": "StakeRequestCancelledFromQueue",
      "type": "event"
    },
    {
      "anonymous": false,
      "inputs": [
        {
          "indexed": true,
          "internalType": "uint256",
          "name": "depositKey",
          "type": "uint256"
        },
        {
          "indexed": true,
          "internalType": "address",
          "name": "caller",
          "type": "address"
        },
        {
          "indexed": false,
          "internalType": "uint256",
          "name": "stakedAmount",
          "type": "uint256"
        }
      ],
      "name": "StakeRequestFinalized",
      "type": "event"
    },
    {
      "anonymous": false,
      "inputs": [
        {
          "indexed": true,
          "internalType": "uint256",
          "name": "depositKey",
          "type": "uint256"
        },
        {
          "indexed": true,
          "internalType": "address",
          "name": "caller",
          "type": "address"
        },
        {
          "indexed": false,
          "internalType": "uint256",
          "name": "stakedAmount",
          "type": "uint256"
        }
      ],
      "name": "StakeRequestFinalizedFromQueue",
      "type": "event"
    },
    {
      "anonymous": false,
      "inputs": [
        {
          "indexed": true,
          "internalType": "uint256",
          "name": "depositKey",
          "type": "uint256"
        },
        {
          "indexed": true,
          "internalType": "address",
          "name": "caller",
          "type": "address"
        },
        {
          "indexed": true,
          "internalType": "address",
          "name": "staker",
          "type": "address"
        }
      ],
      "name": "StakeRequestInitialized",
      "type": "event"
    },
    {
      "anonymous": false,
      "inputs": [
        {
          "indexed": true,
          "internalType": "uint256",
          "name": "depositKey",
          "type": "uint256"
        },
        {
          "indexed": true,
          "internalType": "address",
          "name": "caller",
          "type": "address"
        },
        {
          "indexed": false,
          "internalType": "uint256",
          "name": "queuedAmount",
          "type": "uint256"
        }
      ],
      "name": "StakeRequestQueued",
      "type": "event"
    },
    {
      "inputs": [],
      "name": "SATOSHI_MULTIPLIER",
      "outputs": [
        {
          "internalType": "uint256",
          "name": "",
          "type": "uint256"
        }
      ],
      "stateMutability": "view",
      "type": "function"
    },
    {
      "inputs": [],
      "name": "acceptOwnership",
      "outputs": [],
      "stateMutability": "nonpayable",
      "type": "function"
    },
    {
      "inputs": [],
      "name": "bridge",
      "outputs": [
        {
          "internalType": "contract IBridge",
          "name": "",
          "type": "address"
        }
      ],
      "stateMutability": "view",
      "type": "function"
    },
    {
      "inputs": [
        {
          "internalType": "uint256",
          "name": "depositKey",
          "type": "uint256"
        }
      ],
      "name": "cancelQueuedStake",
      "outputs": [],
      "stateMutability": "nonpayable",
      "type": "function"
    },
    {
      "inputs": [
        {
          "internalType": "bytes32",
          "name": "extraData",
          "type": "bytes32"
        }
      ],
      "name": "decodeExtraData",
      "outputs": [
        {
          "internalType": "address",
          "name": "staker",
          "type": "address"
        },
        {
          "internalType": "uint16",
          "name": "referral",
          "type": "uint16"
        }
      ],
      "stateMutability": "pure",
      "type": "function"
    },
    {
      "inputs": [],
      "name": "depositorFeeDivisor",
      "outputs": [
        {
          "internalType": "uint64",
          "name": "",
          "type": "uint64"
        }
      ],
      "stateMutability": "view",
      "type": "function"
    },
    {
      "inputs": [
        {
          "internalType": "address",
          "name": "staker",
          "type": "address"
        },
        {
          "internalType": "uint16",
          "name": "referral",
          "type": "uint16"
        }
      ],
      "name": "encodeExtraData",
      "outputs": [
        {
          "internalType": "bytes32",
          "name": "",
          "type": "bytes32"
        }
      ],
      "stateMutability": "pure",
      "type": "function"
    },
    {
      "inputs": [
        {
          "internalType": "uint256",
          "name": "depositKey",
          "type": "uint256"
        }
      ],
      "name": "finalizeQueuedStake",
      "outputs": [],
      "stateMutability": "nonpayable",
      "type": "function"
    },
    {
      "inputs": [
        {
          "internalType": "uint256",
          "name": "depositKey",
          "type": "uint256"
        }
      ],
      "name": "finalizeStake",
      "outputs": [],
      "stateMutability": "nonpayable",
      "type": "function"
    },
    {
      "inputs": [
        {
          "components": [
            {
              "internalType": "bytes4",
              "name": "version",
              "type": "bytes4"
            },
            {
              "internalType": "bytes",
              "name": "inputVector",
              "type": "bytes"
            },
            {
              "internalType": "bytes",
              "name": "outputVector",
              "type": "bytes"
            },
            {
              "internalType": "bytes4",
              "name": "locktime",
              "type": "bytes4"
            }
          ],
          "internalType": "struct IBridgeTypes.BitcoinTxInfo",
          "name": "fundingTx",
          "type": "tuple"
        },
        {
          "components": [
            {
              "internalType": "uint32",
              "name": "fundingOutputIndex",
              "type": "uint32"
            },
            {
              "internalType": "bytes8",
              "name": "blindingFactor",
              "type": "bytes8"
            },
            {
              "internalType": "bytes20",
              "name": "walletPubKeyHash",
              "type": "bytes20"
            },
            {
              "internalType": "bytes20",
              "name": "refundPubKeyHash",
              "type": "bytes20"
            },
            {
              "internalType": "bytes4",
              "name": "refundLocktime",
              "type": "bytes4"
            },
            {
              "internalType": "address",
              "name": "vault",
              "type": "address"
            }
          ],
          "internalType": "struct IBridgeTypes.DepositRevealInfo",
          "name": "reveal",
          "type": "tuple"
        },
        {
          "internalType": "address",
          "name": "staker",
          "type": "address"
        },
        {
          "internalType": "uint16",
          "name": "referral",
          "type": "uint16"
        }
      ],
      "name": "initializeStake",
      "outputs": [],
      "stateMutability": "nonpayable",
      "type": "function"
    },
    {
      "inputs": [],
      "name": "owner",
      "outputs": [
        {
          "internalType": "address",
          "name": "",
          "type": "address"
        }
      ],
      "stateMutability": "view",
      "type": "function"
    },
    {
      "inputs": [],
      "name": "pendingOwner",
      "outputs": [
        {
          "internalType": "address",
          "name": "",
          "type": "address"
        }
      ],
      "stateMutability": "view",
      "type": "function"
    },
    {
      "inputs": [
        {
          "internalType": "uint256",
          "name": "depositKey",
          "type": "uint256"
        }
      ],
      "name": "queueStake",
      "outputs": [],
      "stateMutability": "nonpayable",
      "type": "function"
    },
    {
      "inputs": [],
      "name": "renounceOwnership",
      "outputs": [],
      "stateMutability": "nonpayable",
      "type": "function"
    },
    {
      "inputs": [
        {
          "internalType": "uint256",
          "name": "",
          "type": "uint256"
        }
      ],
      "name": "stakeRequests",
      "outputs": [
        {
          "internalType": "enum AcreBitcoinDepositor.StakeRequestState",
          "name": "state",
          "type": "uint8"
        },
        {
          "internalType": "address",
          "name": "staker",
          "type": "address"
        },
        {
          "internalType": "uint88",
          "name": "queuedAmount",
          "type": "uint88"
        }
      ],
      "stateMutability": "view",
      "type": "function"
    },
    {
      "inputs": [],
      "name": "stbtc",
      "outputs": [
        {
          "internalType": "contract stBTC",
          "name": "",
          "type": "address"
        }
      ],
      "stateMutability": "view",
      "type": "function"
    },
    {
      "inputs": [],
      "name": "tbtcToken",
      "outputs": [
        {
          "internalType": "contract IERC20",
          "name": "",
          "type": "address"
        }
      ],
      "stateMutability": "view",
      "type": "function"
    },
    {
      "inputs": [],
      "name": "tbtcVault",
      "outputs": [
        {
          "internalType": "contract ITBTCVault",
          "name": "",
          "type": "address"
        }
      ],
      "stateMutability": "view",
      "type": "function"
    },
    {
      "inputs": [
        {
          "internalType": "address",
          "name": "newOwner",
          "type": "address"
        }
      ],
      "name": "transferOwnership",
      "outputs": [],
      "stateMutability": "nonpayable",
      "type": "function"
    },
    {
      "inputs": [
        {
          "internalType": "uint64",
          "name": "newDepositorFeeDivisor",
          "type": "uint64"
        }
      ],
      "name": "updateDepositorFeeDivisor",
      "outputs": [],
      "stateMutability": "nonpayable",
      "type": "function"
    }
  ],
  "transactionHash": "0x6f7d1a83200314126aa36f4aaac2450d2a0c1ffd77a53327d35bf6c0331d4bec",
  "args": [
    "0x9b1a7fE5a16A15F2f9475C5B231750598b113403",
    "0xB5679dE944A79732A75CE556191DF11F489448d5",
    "0x517f2982701695D4E52f1ECFBEf3ba31Df470161",
    "0xF99139f09164B092bD9e8558984Becfb0d2eCb87"
  ],
  "numDeployments": 1,
  "solcInputHash": "49f0432287e96a47d66ba17ae7bf5d96",
  "bytecode": "0x60806040523480156200001157600080fd5b506040516200249b3803806200249b8339810160408190526200003491620002f4565b33806200005c57604051631e4fbdf760e01b8152600060048201526024015b60405180910390fd5b620000678162000106565b5062000074848462000124565b6001600160a01b0382166200009c5760405163182b2a8160e21b815260040160405180910390fd5b6001600160a01b038116620000c45760405163e4ee787760e01b815260040160405180910390fd5b603480546001600160a01b0319166001600160a01b0393841617905560358054919092166001600160e01b031990911617607d60a31b17905550620003519050565b603280546001600160a01b0319169055620001218162000285565b50565b6000546001600160a01b03161580156200014757506001546001600160a01b0316155b620001a75760405162461bcd60e51b815260206004820152602960248201527f4162737472616374544254434465706f7369746f7220616c726561647920696e6044820152681a5d1a585b1a5e995960ba1b606482015260840162000053565b6001600160a01b038216620001ff5760405162461bcd60e51b815260206004820152601d60248201527f42726964676520616464726573732063616e6e6f74206265207a65726f000000604482015260640162000053565b6001600160a01b038116620002575760405162461bcd60e51b815260206004820181905260248201527f544254435661756c7420616464726573732063616e6e6f74206265207a65726f604482015260640162000053565b600080546001600160a01b039384166001600160a01b03199182161790915560018054929093169116179055565b603180546001600160a01b038381166001600160a01b0319831681179093556040519116919082907f8be0079c531659141344cd1fd0a4f28419497f9722a3daafe3b4186f6b6457e090600090a35050565b80516001600160a01b0381168114620002ef57600080fd5b919050565b600080600080608085870312156200030b57600080fd5b6200031685620002d7565b93506200032660208601620002d7565b92506200033660408601620002d7565b91506200034660608601620002d7565b905092959194509250565b61213a80620003616000396000f3fe608060405234801561001057600080fd5b506004361061016c5760003560e01c8063c143d675116100cd578063da9ad53c11610081578063e5d3d71411610066578063e5d3d71414610355578063e78cea9214610368578063f2fde38b1461037b57600080fd5b8063da9ad53c14610331578063e30c39781461034457600080fd5b8063c9f5a5d8116100b2578063c9f5a5d8146102b4578063d0714ad5146102c7578063d990d3ff1461031e57600080fd5b8063c143d67514610274578063c7ba0347146102a857600080fd5b8063774e2e90116101245780638da5cb5b116101095780638da5cb5b1461023d5780639bef6d521461024e578063b2e665bf1461026157600080fd5b8063774e2e90146101f257806379ba50971461023557600080fd5b80633d11a6ae116101555780633d11a6ae146101b657806369e1df8b146101d7578063715018a6146101ea57600080fd5b80630f36403a146101715780633647b205146101a1575b600080fd5b600154610184906001600160a01b031681565b6040516001600160a01b0390911681526020015b60405180910390f35b6101b46101af366004611977565b61038e565b005b6101c96101c43660046119cb565b61040c565b604051908152602001610198565b6101b46101e5366004611a00565b61047b565b6101b461055a565b610213610200366004611a00565b606081901c9160509190911c61ffff1690565b604080516001600160a01b03909316835261ffff909116602083015201610198565b6101b461056e565b6031546001600160a01b0316610184565b603554610184906001600160a01b031681565b6101b461026f366004611a00565b6105b7565b60355461028f90600160a01b900467ffffffffffffffff1681565b60405167ffffffffffffffff9091168152602001610198565b6101c96402540be40081565b6101b46102c2366004611a00565b610714565b61030f6102d5366004611a00565b60336020526000908152604090205460ff81169061010081046001600160a01b031690600160a81b90046affffffffffffffffffffff1683565b60405161019893929190611a51565b6101b461032c366004611a89565b61084e565b6101b461033f366004611a00565b6108f2565b6032546001600160a01b0316610184565b603454610184906001600160a01b031681565b600054610184906001600160a01b031681565b6101b4610389366004611b0d565b6109a9565b610396610a27565b603580547fffffffff0000000000000000ffffffffffffffffffffffffffffffffffffffff16600160a01b67ffffffffffffffff8416908102919091179091556040519081527f53a618edd6eab9ce346f438670ebd45da60fa3d85662375fae2b8beadf08faf39060200160405180910390a150565b6040516bffffffffffffffffffffffff19606084901b1660208201527fffff00000000000000000000000000000000000000000000000000000000000060f083901b16603482015260009060360160405160208183030381529060405261047290611b2a565b90505b92915050565b6104888160016003610a54565b6000818152603360205260408120906104a083610b0b565b83546001600160a01b03909116610100027fffffffffffffffffffffff0000000000000000000000000000000000000000ff90911617835590506104e381610dd7565b825474ffffffffffffffffffffffffffffffffffffffffff16600160a81b6affffffffffffffffffffff9283168102919091178085556040519190049091168152339084907ff412c1941036889a8a2aec22dca20565f685239ac78976dab58b52eb70f972fa9060200160405180910390a3505050565b610562610a27565b61056c6000610e2c565b565b60325433906001600160a01b031681146105ab5760405163118cdaa760e01b81526001600160a01b03821660048201526024015b60405180910390fd5b6105b481610e2c565b50565b6105c48160036004610a54565b600081815260336020526040812080549091600160a81b9091046affffffffffffffffffffff16900361060a57604051632145277d60e21b815260040160405180910390fd5b805474ffffffffffffffffffffffffffffffffffffffffff81168255604051600160a81b9091046affffffffffffffffffffff1680825290339084907ff0a477d0ba7b549d19236a4c6517edef5574c03ed185bad57c92c9323091af8f9060200160405180910390a3603554603454610690916001600160a01b03918216911683610e52565b6035548254604051636e553f6560e01b8152600481018490526001600160a01b0361010090920482166024820152911690636e553f65906044015b6020604051808303816000875af11580156106ea573d6000803e3d6000fd5b505050506040513d601f19601f8201168201806040525081019061070e9190611b51565b50505050565b6107218160036005610a54565b600081815260336020526040812080549091600160a81b9091046affffffffffffffffffffff16900361076757604051632145277d60e21b815260040160405180910390fd5b805461010090046001600160a01b031633146107af576040517f709d46f200000000000000000000000000000000000000000000000000000000815260040160405180910390fd5b805474ffffffffffffffffffffffffffffffffffffffffff8116808355604051600160a81b9092046affffffffffffffffffffff16808352916101009091046001600160a01b03169084907f32aa57d54fb0ee2c9617ac9d5982ba7d88869fcbf89542a285d6c07b03dc504e9060200160405180910390a38154603454610849916001600160a01b03918216916101009091041683610ef5565b505050565b6001600160a01b03821661088e576040517ff606bf2a00000000000000000000000000000000000000000000000000000000815260040160405180910390fd5b60006108a4858561089f868661040c565b610f69565b90506108b38160006001610a54565b6040516001600160a01b03841690339083907f8d019883471b734b0033fe25a5b76c3afefbbfa9e9b3dacdbabf505b9e4f455d90600090a45050505050565b6108ff8160016002610a54565b60008061090b83610b0b565b91509150336001600160a01b0316837f2b57d79a66895fd41ae6d27049952259b0d40a9b7c563a99b3f1844b288da08c8460405161094b91815260200190565b60405180910390a3603554603454610970916001600160a01b03918216911684610e52565b603554604051636e553f6560e01b8152600481018490526001600160a01b03838116602483015290911690636e553f65906044016106cb565b6109b1610a27565b603280546001600160a01b03831673ffffffffffffffffffffffffffffffffffffffff1990911681179091556109ef6031546001600160a01b031690565b6001600160a01b03167f38d16b8cac22d99fc7c124b9cd0de2d3fa1faef420bfe791d8c362d765e2270060405160405180910390a350565b6031546001600160a01b0316331461056c5760405163118cdaa760e01b81523360048201526024016105a2565b816005811115610a6657610a66611a19565b60008481526033602052604090205460ff166005811115610a8957610a89611a19565b14610ad657600083815260336020526040908190205490517fbcbf502b0000000000000000000000000000000000000000000000000000000081526105a29160ff16908490600401611b6a565b6000838152603360205260409020805482919060ff19166001836005811115610b0157610b01611a19565b0217905550505050565b6000806000806000610b1c866110c6565b6034546040516370a0823160e01b815230600482015293965091945092506000916001600160a01b03909116906370a0823190602401602060405180830381865afa158015610b6f573d6000803e3d6000fd5b505050506040513d601f19601f82011682018060405250810190610b939190611b51565b6034546040516370a0823160e01b81523060048201529192506001600160a01b0316906370a0823190602401602060405180830381865afa158015610bdc573d6000803e3d6000fd5b505050506040513d601f19601f82011682018060405250810190610c009190611b51565b831115610c43576040517fcad48b6900000000000000000000000000000000000000000000000000000000815260048101849052602481018290526044016105a2565b603554600090600160a01b900467ffffffffffffffff16610c65576000610c83565b603554610c8390600160a01b900467ffffffffffffffff1686611b9b565b9050838110610cc8576040517f2395edf200000000000000000000000000000000000000000000000000000000815260048101829052602481018590526044016105a2565b6000610cd48286611bbd565b6040805187815260208101859052919250606086901c9161ffff605088901c1691829133918e917f6410e64d304208a5e90fc76ab4fbf4e7b8836705daeda8dde27611ae0524490a910160405180910390a48315610dc757603554604080517f61d027b30000000000000000000000000000000000000000000000000000000081529051610dc7926001600160a01b0316916361d027b39160048083019260209291908290030181865afa158015610d90573d6000803e3d6000fd5b505050506040513d601f19601f82011682018060405250810190610db49190611bdb565b6034546001600160a01b03169086610ef5565b5090999098509650505050505050565b60006affffffffffffffffffffff821115610e28576040517f6dfcc65000000000000000000000000000000000000000000000000000000000815260586004820152602481018390526044016105a2565b5090565b6032805473ffffffffffffffffffffffffffffffffffffffff191690556105b481611350565b6040517fdd62ed3e0000000000000000000000000000000000000000000000000000000081523060048201526001600160a01b0383811660248301526000919085169063dd62ed3e90604401602060405180830381865afa158015610ebb573d6000803e3d6000fd5b505050506040513d601f19601f82011682018060405250810190610edf9190611b51565b905061070e8484610ef08585611bf8565b6113af565b6040516001600160a01b0383811660248301526044820183905261084991859182169063a9059cbb906064015b604051602081830303815290604052915060e01b6020820180517bffffffffffffffffffffffffffffffffffffffffffffffffffffffff8381831617835250505050611469565b6001546000906001600160a01b0316610f8860c0850160a08601611b0d565b6001600160a01b031614610fde5760405162461bcd60e51b815260206004820152601660248201527f5661756c742061646472657373206d69736d617463680000000000000000000060448201526064016105a2565b6000610ffe610fec866114e5565b610ff96020870187611c1d565b61154a565b60405163ffffffff4216815290915081907fa3ed7aef0745e1a91addae9e5daee7a8ace74852fec840b9d93da747855dd7b99060200160405180910390a26000546040517f86f014390000000000000000000000000000000000000000000000000000000081526001600160a01b03909116906386f014399061108990889088908890600401611ce5565b600060405180830381600087803b1580156110a357600080fd5b505af11580156110b7573d6000803e3d6000fd5b509293505050505b9392505050565b600080546040517fb02c43d0000000000000000000000000000000000000000000000000000000008152600481018490528291829182916001600160a01b03169063b02c43d09060240160e060405180830381865afa15801561112d573d6000803e3d6000fd5b505050506040513d601f19601f820116820180604052508101906111519190611e60565b9050806040015163ffffffff166000036111ad5760405162461bcd60e51b815260206004820152601760248201527f4465706f736974206e6f7420696e697469616c697a656400000000000000000060448201526064016105a2565b6001546040517f6c626aa4000000000000000000000000000000000000000000000000000000008152600481018790526000916001600160a01b031690636c626aa49060240160408051808303816000875af1158015611211573d6000803e3d6000fd5b505050506040513d601f19601f820116820180604052508101906112359190611f1a565b9150508160a0015163ffffffff16600014158061125b575067ffffffffffffffff811615155b6112cd5760405162461bcd60e51b815260206004820152602360248201527f4465706f736974206e6f742066696e616c697a6564206279207468652062726960448201527f646765000000000000000000000000000000000000000000000000000000000060648201526084016105a2565b6402540be400826020015167ffffffffffffffff166112ec9190611f54565b945061130082602001518360800151611594565b6040805182815263ffffffff4216602082015291955087917f417b6288c9f637614f8b3f7a275fb4e44e517930fde949e463d58dfe0b97f28b910160405180910390a25060c00151929491935050565b603180546001600160a01b0383811673ffffffffffffffffffffffffffffffffffffffff19831681179093556040519116919082907f8be0079c531659141344cd1fd0a4f28419497f9722a3daafe3b4186f6b6457e090600090a35050565b604080516001600160a01b038416602482015260448082018490528251808303909101815260649091019091526020810180517bffffffffffffffffffffffffffffffffffffffffffffffffffffffff167f095ea7b30000000000000000000000000000000000000000000000000000000017905261142e8482611717565b61070e576040516001600160a01b0384811660248301526000604483015261146391869182169063095ea7b390606401610f22565b61070e84825b600061147e6001600160a01b038416836117bf565b905080516000141580156114a35750808060200190518101906114a19190611f6b565b155b15610849576040517f5274afe70000000000000000000000000000000000000000000000000000000081526001600160a01b03841660048201526024016105a2565b60006104756114f76020840184611f8d565b6115046020850185611fa8565b6115116040870187611fa8565b6115216080890160608a01611f8d565b60405160200161153696959493929190611fef565b6040516020818303038152906040526117cd565b6000828260405160200161157592919091825260e01b6001600160e01b031916602082015260240190565b60408051601f1981840301815291905280516020909101209392505050565b6000806402540be4006115a78486612031565b67ffffffffffffffff166115bb9190611f54565b90506000600160009054906101000a90046001600160a01b03166001600160a01b03166309b53f516040518163ffffffff1660e01b8152600401602060405180830381865afa158015611612573d6000803e3d6000fd5b505050506040513d601f19601f820116820180604052508101906116369190612059565b63ffffffff169050600080821161164e576000611658565b6116588284611b9b565b905060008060009054906101000a90046001600160a01b03166001600160a01b031663c42b64d06040518163ffffffff1660e01b8152600401608060405180830381865afa1580156116ae573d6000803e3d6000fd5b505050506040513d601f19601f820116820180604052508101906116d29190612076565b509250505060006402540be4008267ffffffffffffffff166116f49190611f54565b9050806117018487611bbd565b61170b9190611bbd565b98975050505050505050565b6000806000846001600160a01b03168460405161173491906120d5565b6000604051808303816000865af19150503d8060008114611771576040519150601f19603f3d011682016040523d82523d6000602084013e611776565b606091505b50915091508180156117a05750805115806117a05750808060200190518101906117a09190611f6b565b80156117b657506000856001600160a01b03163b115b95945050505050565b6060610472838360006117f4565b60006020600083516020850160025afa50602060006020600060025afa5050600051919050565b606081471015611832576040517fcd7860590000000000000000000000000000000000000000000000000000000081523060048201526024016105a2565b600080856001600160a01b0316848660405161184e91906120d5565b60006040518083038185875af1925050503d806000811461188b576040519150601f19603f3d011682016040523d82523d6000602084013e611890565b606091505b50915091506118a08683836118aa565b9695505050505050565b6060826118bf576118ba8261191f565b6110bf565b81511580156118d657506001600160a01b0384163b155b15611918576040517f9996b3150000000000000000000000000000000000000000000000000000000081526001600160a01b03851660048201526024016105a2565b50806110bf565b80511561192f5780518082602001fd5b6040517f1425ea4200000000000000000000000000000000000000000000000000000000815260040160405180910390fd5b67ffffffffffffffff811681146105b457600080fd5b60006020828403121561198957600080fd5b81356110bf81611961565b6001600160a01b03811681146105b457600080fd5b80356119b481611994565b919050565b803561ffff811681146119b457600080fd5b600080604083850312156119de57600080fd5b82356119e981611994565b91506119f7602084016119b9565b90509250929050565b600060208284031215611a1257600080fd5b5035919050565b634e487b7160e01b600052602160045260246000fd5b60068110611a4d57634e487b7160e01b600052602160045260246000fd5b9052565b60608101611a5f8286611a2f565b6001600160a01b03841660208301526affffffffffffffffffffff83166040830152949350505050565b600080600080848603610120811215611aa157600080fd5b853567ffffffffffffffff811115611ab857600080fd5b860160808189031215611aca57600080fd5b945060c0601f1982011215611ade57600080fd5b5060208501925060e0850135611af381611994565b9150611b0261010086016119b9565b905092959194509250565b600060208284031215611b1f57600080fd5b81356110bf81611994565b80516020808301519190811015611b4b576000198160200360031b1b821691505b50919050565b600060208284031215611b6357600080fd5b5051919050565b60408101611b788285611a2f565b6110bf6020830184611a2f565b634e487b7160e01b600052601160045260246000fd5b600082611bb857634e487b7160e01b600052601260045260246000fd5b500490565b8181038181111561047557610475611b85565b80516119b481611994565b600060208284031215611bed57600080fd5b81516110bf81611994565b8082018082111561047557610475611b85565b63ffffffff811681146105b457600080fd5b600060208284031215611c2f57600080fd5b81356110bf81611c0b565b80356001600160e01b0319811681146119b457600080fd5b6000808335601e19843603018112611c6957600080fd5b830160208101925035905067ffffffffffffffff811115611c8957600080fd5b803603821315611c9857600080fd5b9250929050565b81835281816020850137506000828201602090810191909152601f909101601f19169091010190565b80356bffffffffffffffffffffffff19811681146119b457600080fd5b60006101008083526001600160e01b031980611d0088611c3a565b1682850152611d126020880188611c52565b92506080610120860152611d2b61018086018483611c9f565b925050611d3b6040880188611c52565b85840360ff1901610140870152611d53848284611c9f565b9350505080611d6460608901611c3a565b166101608501525090508335611d7981611c0b565b63ffffffff811660208401525060208401357fffffffffffffffff0000000000000000000000000000000000000000000000008116808214611dba57600080fd5b80604085015250506bffffffffffffffffffffffff19611ddc60408601611cc8565b166060830152611dee60608501611cc8565b6bffffffffffffffffffffffff198116608084015250611e1060808501611c3a565b6001600160e01b0319811660a084015250611e2d60a085016119a9565b6001600160a01b031660c083015260e09091019190915292915050565b80516119b481611961565b80516119b481611c0b565b600060e08284031215611e7257600080fd5b60405160e0810181811067ffffffffffffffff82111715611ea357634e487b7160e01b600052604160045260246000fd5b604052611eaf83611bd0565b8152611ebd60208401611e4a565b6020820152611ece60408401611e55565b6040820152611edf60608401611bd0565b6060820152611ef060808401611e4a565b6080820152611f0160a08401611e55565b60a082015260c083015160c08201528091505092915050565b60008060408385031215611f2d57600080fd5b8251611f3881611961565b6020840151909250611f4981611961565b809150509250929050565b808202811582820484141761047557610475611b85565b600060208284031215611f7d57600080fd5b815180151581146110bf57600080fd5b600060208284031215611f9f57600080fd5b61047282611c3a565b6000808335601e19843603018112611fbf57600080fd5b83018035915067ffffffffffffffff821115611fda57600080fd5b602001915036819003821315611c9857600080fd5b60006001600160e01b03198089168352868860048501378683016004810160008152868882375093169390920160048101939093525050600801949350505050565b67ffffffffffffffff82811682821603908082111561205257612052611b85565b5092915050565b60006020828403121561206b57600080fd5b81516110bf81611c0b565b6000806000806080858703121561208c57600080fd5b845161209781611961565b60208601519094506120a881611961565b60408601519093506120b981611961565b60608601519092506120ca81611c0b565b939692955090935050565b6000825160005b818110156120f657602081860181015185830152016120dc565b50600092019182525091905056fea2646970667358221220462bf22e2a3e5c424c7897cc702ca2994745ded2b209ca480d6b59b6977ef88a64736f6c63430008150033",
  "devdoc": {
    "errors": {
      "AddressEmptyCode(address)": [
        {
          "details": "There's no code at `target` (it is not a contract)."
        }
      ],
      "AddressInsufficientBalance(address)": [
        {
          "details": "The ETH balance of the account is not enough to perform the operation."
        }
      ],
      "BridgingCompletionAlreadyNotified()": [
        {
          "details": "Attempted to notify a bridging completion, while it was already      notified."
        }
      ],
      "BridgingFinalizationAlreadyCalled()": [
        {
          "details": "Attempted to call bridging finalization for a stake request for      which the function was already called."
        }
      ],
      "BridgingNotCompleted()": [
        {
          "details": "Attempted to finalize a stake request, while bridging completion has not been notified yet."
        }
      ],
      "CallerNotStaker()": [
        {
          "details": "Attempted to call function by an account that is not the staker."
        }
      ],
      "DepositorFeeExceedsBridgedAmount(uint256,uint256)": [
        {
          "details": "Calculated depositor fee exceeds the amount of minted tBTC tokens."
        }
      ],
      "FailedInnerCall()": [
        {
          "details": "A call to an address target failed. The target may have reverted."
        }
      ],
      "InsufficientTbtcBalance(uint256,uint256)": [
        {
          "details": "Attempted to finalize bridging with depositor's contract tBTC balance      lower than the calculated bridged tBTC amount. This error means      that Governance should top-up the tBTC reserve for bridging fees      approximation."
        }
      ],
      "OwnableInvalidOwner(address)": [
        {
          "details": "The owner is not a valid owner account. (eg. `address(0)`)"
        }
      ],
      "OwnableUnauthorizedAccount(address)": [
        {
          "details": "The caller account is not authorized to perform an operation."
        }
      ],
      "SafeCastOverflowedUintDowncast(uint8,uint256)": [
        {
          "details": "Value doesn't fit in an uint of `bits` size."
        }
      ],
      "SafeERC20FailedOperation(address)": [
        {
          "details": "An operation with an ERC20 token failed."
        }
      ],
      "StakeRequestNotQueued()": [
        {
          "details": "Attempted to finalize or cancel a stake request that was not added      to the queue, or was already finalized or cancelled."
        }
      ],
      "StakerIsZeroAddress()": [
        {
          "details": "Staker address is zero."
        }
      ],
      "UnexpectedStakeRequestState(uint8,uint8)": [
        {
          "details": "Attempted to execute function for stake request in unexpected current      state."
        }
      ]
    },
    "events": {
      "BridgingCompleted(uint256,address,uint16,uint256,uint256)": {
        "params": {
          "bridgedAmount": "Amount of tBTC tokens that was bridged by the tBTC bridge.",
          "caller": "Address that notified about bridging completion.",
          "depositKey": "Deposit key identifying the deposit.",
          "depositorFee": "Depositor fee amount.",
          "referral": "Identifier of a partner in the referral program."
        }
      },
      "DepositorFeeDivisorUpdated(uint64)": {
        "params": {
          "depositorFeeDivisor": "New value of the depositor fee divisor."
        }
      },
      "StakeRequestCancelledFromQueue(uint256,address,uint256)": {
        "params": {
          "amountToStake": "Amount of queued tBTC tokens that got cancelled.",
          "depositKey": "Deposit key identifying the deposit.",
          "staker": "Address of the staker."
        }
      },
      "StakeRequestFinalized(uint256,address,uint256)": {
        "details": "Deposit details can be fetched from {{ ERC4626.Deposit }}      event emitted in the same transaction.",
        "params": {
          "caller": "Address that finalized the stake request.",
          "depositKey": "Deposit key identifying the deposit.",
          "stakedAmount": "Amount of staked tBTC tokens."
        }
      },
      "StakeRequestFinalizedFromQueue(uint256,address,uint256)": {
        "details": "Deposit details can be fetched from {{ ERC4626.Deposit }}      event emitted in the same transaction.",
        "params": {
          "caller": "Address that finalized the stake request.",
          "depositKey": "Deposit key identifying the deposit.",
          "stakedAmount": "Amount of staked tBTC tokens."
        }
      },
      "StakeRequestInitialized(uint256,address,address)": {
        "details": "Deposit details can be fetched from {{ Bridge.DepositRevealed }}      event emitted in the same transaction.",
        "params": {
          "caller": "Address that initialized the stake request.",
          "depositKey": "Deposit key identifying the deposit.",
          "staker": "The address to which the stBTC shares will be minted."
        }
      },
      "StakeRequestQueued(uint256,address,uint256)": {
        "params": {
          "caller": "Address that finalized the stake request.",
          "depositKey": "Deposit key identifying the deposit.",
          "queuedAmount": "Amount of queued tBTC tokens."
        }
      }
    },
    "kind": "dev",
    "methods": {
      "acceptOwnership()": {
        "details": "The new owner accepts the ownership transfer."
      },
      "cancelQueuedStake(uint256)": {
        "details": "This function can be called only after the stake request was added      to queue.Only staker provided in the extra data of the stake request can      call this function.",
        "params": {
          "depositKey": "Deposit key identifying the deposit."
        }
      },
      "constructor": {
        "params": {
          "_stbtc": "stBTC contract instance.",
          "_tbtcToken": "tBTC token contract instance.",
          "bridge": "tBTC Bridge contract instance.",
          "tbtcVault": "tBTC Vault contract instance."
        }
      },
      "decodeExtraData(bytes32)": {
        "details": "Unpacks the data from bytes32: 20 bytes of staker address and      2 bytes of referral, 10 bytes of trailing zeros.",
        "params": {
          "extraData": "Encoded extra data."
        },
        "returns": {
          "referral": "Data used for referral program.",
          "staker": "The address to which the stBTC shares will be minted."
        }
      },
      "encodeExtraData(address,uint16)": {
        "details": "Packs the data to bytes32: 20 bytes of staker address and      2 bytes of referral, 10 bytes of trailing zeros.",
        "params": {
          "referral": "Data used for referral program.",
          "staker": "The address to which the stBTC shares will be minted."
        },
        "returns": {
          "_0": "Encoded extra data."
        }
      },
      "finalizeQueuedStake(uint256)": {
        "params": {
          "depositKey": "Deposit key identifying the deposit."
        }
      },
      "finalizeStake(uint256)": {
        "details": "In case depositing in stBTC vault fails (e.g. because of the      maximum deposit limit being reached), the `queueStake` function      should be called to add the stake request to the staking queue.",
        "params": {
          "depositKey": "Deposit key identifying the deposit."
        }
      },
      "initializeStake((bytes4,bytes,bytes,bytes4),(uint32,bytes8,bytes20,bytes20,bytes4,address),address,uint16)": {
        "details": "Requirements:      - The revealed vault address must match the TBTCVault address,      - All requirements from {Bridge#revealDepositWithExtraData}        function must be met.      - `staker` must be the staker address used in the P2(W)SH BTC        deposit transaction as part of the extra data.      - `referral` must be the referral info used in the P2(W)SH BTC        deposit transaction as part of the extra data.      - BTC deposit for the given `fundingTxHash`, `fundingOutputIndex`        can be revealed only one time.",
        "params": {
          "fundingTx": "Bitcoin funding transaction data, see `IBridgeTypes.BitcoinTxInfo`.",
          "referral": "Data used for referral program.",
          "reveal": "Deposit reveal data, see `IBridgeTypes.DepositRevealInfo`.",
          "staker": "The address to which the stBTC shares will be minted."
        }
      },
      "owner()": {
        "details": "Returns the address of the current owner."
      },
      "pendingOwner()": {
        "details": "Returns the address of the pending owner."
      },
      "queueStake(uint256)": {
        "details": "It queues the stake request, until the stBTC vault is ready to      accept the deposit. The request must be finalized with `finalizeQueuedStake`      after the limit is increased or other user withdraws their funds      from the stBTC contract to make place for another deposit.      The staker has a possibility to submit `cancelQueuedStake` that      will withdraw the minted tBTC token and abort staking process.",
        "params": {
          "depositKey": "Deposit key identifying the deposit."
        }
      },
      "renounceOwnership()": {
        "details": "Leaves the contract without owner. It will not be possible to call `onlyOwner` functions. Can only be called by the current owner. NOTE: Renouncing ownership will leave the contract without an owner, thereby disabling any functionality that is only available to the owner."
      },
      "transferOwnership(address)": {
        "details": "Starts the ownership transfer of the contract to a new account. Replaces the pending transfer if there is one. Can only be called by the current owner."
      },
      "updateDepositorFeeDivisor(uint64)": {
        "params": {
          "newDepositorFeeDivisor": "New depositor fee divisor value."
        }
      }
    },
    "stateVariables": {
      "depositorFeeDivisor": {
        "details": "That fee is computed as follows:      `depositorFee = depositedAmount / depositorFeeDivisor`       for example, if the depositor fee needs to be 2% of each deposit,       the `depositorFeeDivisor` should be set to `50` because       `1/50 = 0.02 = 2%`."
      },
      "stakeRequests": {
        "details": "The key is a deposit key identifying the deposit."
      }
    },
    "title": "Acre Bitcoin Depositor contract.",
    "version": 1
  },
  "userdoc": {
    "errors": {
      "StbtcZeroAddress()": [
        {
          "notice": "Reverts if the stBTC address is zero."
        }
      ],
      "TbtcTokenZeroAddress()": [
        {
          "notice": "Reverts if the tBTC Token address is zero."
        }
      ]
    },
    "events": {
      "BridgingCompleted(uint256,address,uint16,uint256,uint256)": {
        "notice": "Emitted when bridging completion has been notified."
      },
      "DepositorFeeDivisorUpdated(uint64)": {
        "notice": "Emitted when a depositor fee divisor is updated."
      },
      "StakeRequestCancelledFromQueue(uint256,address,uint256)": {
        "notice": "Emitted when a queued stake request is cancelled."
      },
      "StakeRequestFinalized(uint256,address,uint256)": {
        "notice": "Emitted when a stake request is finalized."
      },
      "StakeRequestFinalizedFromQueue(uint256,address,uint256)": {
        "notice": "Emitted when a stake request is finalized from the queue."
      },
      "StakeRequestInitialized(uint256,address,address)": {
        "notice": "Emitted when a stake request is initialized."
      },
      "StakeRequestQueued(uint256,address,uint256)": {
        "notice": "Emitted when a stake request is queued."
      }
    },
    "kind": "user",
    "methods": {
      "SATOSHI_MULTIPLIER()": {
        "notice": "Multiplier to convert satoshi to TBTC token units."
      },
      "bridge()": {
        "notice": "Bridge contract address."
      },
      "cancelQueuedStake(uint256)": {
        "notice": "Cancel queued stake.         The function can be called by the staker to recover tBTC that cannot         be finalized to stake in stBTC contract due to a deposit limit being         reached."
      },
      "constructor": {
        "notice": "Acre Bitcoin Depositor contract constructor."
      },
      "decodeExtraData(bytes32)": {
        "notice": "Decodes staker address and referral from extra data."
      },
      "depositorFeeDivisor()": {
        "notice": "Divisor used to compute the depositor fee taken from each deposit         and transferred to the treasury upon stake request finalization."
      },
      "encodeExtraData(address,uint16)": {
        "notice": "Encodes staker address and referral as extra data."
      },
      "finalizeQueuedStake(uint256)": {
        "notice": "This function should be called for previously queued stake         request, when stBTC vault is able to accept a deposit."
      },
      "finalizeStake(uint256)": {
        "notice": "This function should be called for previously initialized stake         request, after tBTC bridging process was finalized.         It stakes the tBTC from the given deposit into stBTC, emitting the         stBTC shares to the staker specified in the deposit extra data         and using the referral provided in the extra data."
      },
      "initializeStake((bytes4,bytes,bytes,bytes4),(uint32,bytes8,bytes20,bytes20,bytes4,address),address,uint16)": {
        "notice": "This function allows staking process initialization for a Bitcoin         deposit made by an user with a P2(W)SH transaction. It uses the         supplied information to reveal a deposit to the tBTC Bridge contract."
      },
      "queueStake(uint256)": {
        "notice": "This function should be called for previously initialized stake         request, after tBTC bridging process was finalized, in case the         `finalizeStake` failed due to stBTC vault deposit limit         being reached."
      },
      "stakeRequests(uint256)": {
        "notice": "Mapping of stake requests."
      },
      "stbtc()": {
        "notice": "stBTC contract."
      },
      "tbtcToken()": {
        "notice": "tBTC Token contract."
      },
      "tbtcVault()": {
        "notice": "TBTCVault contract address."
      },
      "updateDepositorFeeDivisor(uint64)": {
        "notice": "Updates the depositor fee divisor."
      }
    },
    "notice": "The contract integrates Acre staking with tBTC minting.         User who wants to stake BTC in Acre should submit a Bitcoin transaction         to the most recently created off-chain ECDSA wallets of the tBTC Bridge         using pay-to-script-hash (P2SH) or pay-to-witness-script-hash (P2WSH)         containing hashed information about this Depositor contract address,         and staker's Ethereum address.         Then, the staker initiates tBTC minting by revealing their Ethereum         address along with their deposit blinding factor, refund public key         hash and refund locktime on the tBTC Bridge through this Depositor         contract.         The off-chain ECDSA wallet and Optimistic Minting bots listen for these         sorts of messages and when they get one, they check the Bitcoin network         to make sure the deposit lines up. Majority of tBTC minting is finalized         by the Optimistic Minting process, where Minter bot initializes         minting process and if there is no veto from the Guardians, the         process is finalized and tBTC minted to the Depositor address. If         the revealed deposit is not handled by the Optimistic Minting process         the off-chain ECDSA wallet may decide to pick the deposit transaction         for sweeping, and when the sweep operation is confirmed on the Bitcoin         network, the tBTC Bridge and tBTC vault mint the tBTC token to the         Depositor address. After tBTC is minted to the Depositor, on the stake         finalization tBTC is staked in stBTC contract and stBTC shares are emitted         to the staker.",
    "version": 1
  },
  "storageLayout": {
    "storage": [
      {
        "astId": 2683,
        "contract": "contracts/AcreBitcoinDepositor.sol:AcreBitcoinDepositor",
        "label": "bridge",
        "offset": 0,
        "slot": "0",
        "type": "t_contract(IBridge)3087"
      },
      {
        "astId": 2687,
        "contract": "contracts/AcreBitcoinDepositor.sol:AcreBitcoinDepositor",
        "label": "tbtcVault",
        "offset": 0,
        "slot": "1",
        "type": "t_contract(ITBTCVault)3107"
      },
      {
        "astId": 2691,
        "contract": "contracts/AcreBitcoinDepositor.sol:AcreBitcoinDepositor",
        "label": "__gap",
        "offset": 0,
        "slot": "2",
        "type": "t_array(t_uint256)47_storage"
      },
      {
        "astId": 3585,
        "contract": "contracts/AcreBitcoinDepositor.sol:AcreBitcoinDepositor",
        "label": "_owner",
        "offset": 0,
        "slot": "49",
        "type": "t_address"
      },
      {
        "astId": 3733,
        "contract": "contracts/AcreBitcoinDepositor.sol:AcreBitcoinDepositor",
        "label": "_pendingOwner",
        "offset": 0,
        "slot": "50",
        "type": "t_address"
      },
      {
        "astId": 8874,
        "contract": "contracts/AcreBitcoinDepositor.sol:AcreBitcoinDepositor",
        "label": "stakeRequests",
        "offset": 0,
        "slot": "51",
        "type": "t_mapping(t_uint256,t_struct(StakeRequest)8868_storage)"
      },
      {
        "astId": 8878,
        "contract": "contracts/AcreBitcoinDepositor.sol:AcreBitcoinDepositor",
        "label": "tbtcToken",
        "offset": 0,
        "slot": "52",
        "type": "t_contract(IERC20)4710"
      },
      {
        "astId": 8882,
        "contract": "contracts/AcreBitcoinDepositor.sol:AcreBitcoinDepositor",
        "label": "stbtc",
        "offset": 0,
        "slot": "53",
        "type": "t_contract(stBTC)10351"
      },
      {
        "astId": 8885,
        "contract": "contracts/AcreBitcoinDepositor.sol:AcreBitcoinDepositor",
        "label": "depositorFeeDivisor",
        "offset": 20,
        "slot": "53",
        "type": "t_uint64"
      }
    ],
    "types": {
      "t_address": {
        "encoding": "inplace",
        "label": "address",
        "numberOfBytes": "20"
      },
      "t_array(t_uint256)47_storage": {
        "base": "t_uint256",
        "encoding": "inplace",
        "label": "uint256[47]",
        "numberOfBytes": "1504"
      },
      "t_contract(IBridge)3087": {
        "encoding": "inplace",
        "label": "contract IBridge",
        "numberOfBytes": "20"
      },
      "t_contract(IERC20)4710": {
        "encoding": "inplace",
        "label": "contract IERC20",
        "numberOfBytes": "20"
      },
      "t_contract(ITBTCVault)3107": {
        "encoding": "inplace",
        "label": "contract ITBTCVault",
        "numberOfBytes": "20"
      },
      "t_contract(stBTC)10351": {
        "encoding": "inplace",
        "label": "contract stBTC",
        "numberOfBytes": "20"
      },
      "t_enum(StakeRequestState)8860": {
        "encoding": "inplace",
        "label": "enum AcreBitcoinDepositor.StakeRequestState",
        "numberOfBytes": "1"
      },
      "t_mapping(t_uint256,t_struct(StakeRequest)8868_storage)": {
        "encoding": "mapping",
        "key": "t_uint256",
        "label": "mapping(uint256 => struct AcreBitcoinDepositor.StakeRequest)",
        "numberOfBytes": "32",
        "value": "t_struct(StakeRequest)8868_storage"
      },
      "t_struct(StakeRequest)8868_storage": {
        "encoding": "inplace",
        "label": "struct AcreBitcoinDepositor.StakeRequest",
        "members": [
          {
            "astId": 8863,
            "contract": "contracts/AcreBitcoinDepositor.sol:AcreBitcoinDepositor",
            "label": "state",
            "offset": 0,
            "slot": "0",
            "type": "t_enum(StakeRequestState)8860"
          },
          {
            "astId": 8865,
            "contract": "contracts/AcreBitcoinDepositor.sol:AcreBitcoinDepositor",
            "label": "staker",
            "offset": 1,
            "slot": "0",
            "type": "t_address"
          },
          {
            "astId": 8867,
            "contract": "contracts/AcreBitcoinDepositor.sol:AcreBitcoinDepositor",
            "label": "queuedAmount",
            "offset": 21,
            "slot": "0",
            "type": "t_uint88"
          }
        ],
        "numberOfBytes": "32"
      },
      "t_uint256": {
        "encoding": "inplace",
        "label": "uint256",
        "numberOfBytes": "32"
      },
      "t_uint64": {
        "encoding": "inplace",
        "label": "uint64",
        "numberOfBytes": "8"
      },
      "t_uint88": {
        "encoding": "inplace",
        "label": "uint88",
        "numberOfBytes": "11"
      }
    }
  }
}