{
  "address": "0xdFB32f7056D756860D7735781587F912976B9ef7",
  "abi": [
    {
      "inputs": [
        {
          "internalType": "contract Acre",
          "name": "_acre",
          "type": "address"
        },
        {
          "internalType": "contract IERC20",
          "name": "_tbtc",
          "type": "address"
        }
      ],
      "stateMutability": "nonpayable",
      "type": "constructor"
    },
    {
      "inputs": [
        {
          "internalType": "address",
          "name": "target",
          "type": "address"
        }
      ],
      "name": "AddressEmptyCode",
      "type": "error"
    },
    {
      "inputs": [
        {
          "internalType": "address",
          "name": "account",
          "type": "address"
        }
      ],
      "name": "AddressInsufficientBalance",
      "type": "error"
    },
    {
      "inputs": [],
      "name": "FailedInnerCall",
      "type": "error"
    },
    {
      "inputs": [
        {
          "internalType": "address",
          "name": "vault",
          "type": "address"
        },
        {
          "internalType": "uint256",
          "name": "sharesOut",
          "type": "uint256"
        },
        {
          "internalType": "uint256",
          "name": "minSharesOut",
          "type": "uint256"
        }
      ],
      "name": "MinSharesError",
      "type": "error"
    },
    {
      "inputs": [],
      "name": "NotMaintainer",
      "type": "error"
    },
    {
      "inputs": [
        {
          "internalType": "address",
          "name": "owner",
          "type": "address"
        }
      ],
      "name": "OwnableInvalidOwner",
      "type": "error"
    },
    {
      "inputs": [
        {
          "internalType": "address",
          "name": "account",
          "type": "address"
        }
      ],
      "name": "OwnableUnauthorizedAccount",
      "type": "error"
    },
    {
      "inputs": [
        {
          "internalType": "address",
          "name": "token",
          "type": "address"
        }
      ],
      "name": "SafeERC20FailedOperation",
      "type": "error"
    },
    {
      "inputs": [],
      "name": "VaultAlreadyAuthorized",
      "type": "error"
    },
    {
      "inputs": [],
      "name": "VaultUnauthorized",
      "type": "error"
    },
    {
      "inputs": [],
      "name": "ZeroAddress",
      "type": "error"
    },
    {
      "anonymous": false,
      "inputs": [
        {
          "indexed": true,
          "internalType": "address",
          "name": "vault",
          "type": "address"
        },
        {
          "indexed": false,
          "internalType": "uint256",
          "name": "amount",
          "type": "uint256"
        },
        {
          "indexed": false,
          "internalType": "uint256",
          "name": "sharesOut",
          "type": "uint256"
        }
      ],
      "name": "DepositAllocated",
      "type": "event"
    },
    {
      "anonymous": false,
      "inputs": [
        {
          "indexed": true,
          "internalType": "address",
          "name": "maintainer",
          "type": "address"
        }
      ],
      "name": "MaintainerUpdated",
      "type": "event"
    },
    {
      "anonymous": false,
      "inputs": [
        {
          "indexed": true,
          "internalType": "address",
          "name": "previousOwner",
          "type": "address"
        },
        {
          "indexed": true,
          "internalType": "address",
          "name": "newOwner",
          "type": "address"
        }
      ],
      "name": "OwnershipTransferred",
      "type": "event"
    },
    {
      "anonymous": false,
      "inputs": [
        {
          "indexed": true,
          "internalType": "address",
          "name": "vault",
          "type": "address"
        }
      ],
      "name": "VaultAuthorized",
      "type": "event"
    },
    {
      "anonymous": false,
      "inputs": [
        {
          "indexed": true,
          "internalType": "address",
          "name": "vault",
          "type": "address"
        }
      ],
      "name": "VaultDeauthorized",
      "type": "event"
    },
    {
      "inputs": [],
      "name": "acre",
      "outputs": [
        {
          "internalType": "contract Acre",
          "name": "",
          "type": "address"
        }
      ],
      "stateMutability": "view",
      "type": "function"
    },
    {
      "inputs": [
        {
          "internalType": "address",
          "name": "vault",
          "type": "address"
        }
      ],
      "name": "authorizeVault",
      "outputs": [],
      "stateMutability": "nonpayable",
      "type": "function"
    },
    {
      "inputs": [
        {
          "internalType": "address",
          "name": "vault",
          "type": "address"
        }
      ],
      "name": "deauthorizeVault",
      "outputs": [],
      "stateMutability": "nonpayable",
      "type": "function"
    },
    {
      "inputs": [
        {
          "internalType": "address",
          "name": "vault",
          "type": "address"
        },
        {
          "internalType": "uint256",
          "name": "amount",
          "type": "uint256"
        },
        {
          "internalType": "uint256",
          "name": "minSharesOut",
          "type": "uint256"
        }
      ],
      "name": "depositToVault",
      "outputs": [],
      "stateMutability": "nonpayable",
      "type": "function"
    },
    {
      "inputs": [],
      "name": "getVaults",
      "outputs": [
        {
          "internalType": "address[]",
          "name": "",
          "type": "address[]"
        }
      ],
      "stateMutability": "view",
      "type": "function"
    },
    {
      "inputs": [
        {
          "internalType": "address",
          "name": "vault",
          "type": "address"
        }
      ],
      "name": "isVaultAuthorized",
      "outputs": [
        {
          "internalType": "bool",
          "name": "",
          "type": "bool"
        }
      ],
      "stateMutability": "view",
      "type": "function"
    },
    {
      "inputs": [],
      "name": "maintainer",
      "outputs": [
        {
          "internalType": "address",
          "name": "",
          "type": "address"
        }
      ],
      "stateMutability": "view",
      "type": "function"
    },
    {
      "inputs": [],
      "name": "owner",
      "outputs": [
        {
          "internalType": "address",
          "name": "",
          "type": "address"
        }
      ],
      "stateMutability": "view",
      "type": "function"
    },
    {
      "inputs": [],
      "name": "renounceOwnership",
      "outputs": [],
      "stateMutability": "nonpayable",
      "type": "function"
    },
    {
      "inputs": [],
      "name": "tbtc",
      "outputs": [
        {
          "internalType": "contract IERC20",
          "name": "",
          "type": "address"
        }
      ],
      "stateMutability": "view",
      "type": "function"
    },
    {
      "inputs": [
        {
          "internalType": "address",
          "name": "newOwner",
          "type": "address"
        }
      ],
      "name": "transferOwnership",
      "outputs": [],
      "stateMutability": "nonpayable",
      "type": "function"
    },
    {
      "inputs": [
        {
          "internalType": "address",
          "name": "newMaintainer",
          "type": "address"
        }
      ],
      "name": "updateMaintainer",
      "outputs": [],
      "stateMutability": "nonpayable",
      "type": "function"
    },
    {
      "inputs": [
        {
          "internalType": "uint256",
          "name": "",
          "type": "uint256"
        }
      ],
      "name": "vaults",
      "outputs": [
        {
          "internalType": "address",
          "name": "",
          "type": "address"
        }
      ],
      "stateMutability": "view",
      "type": "function"
    },
    {
      "inputs": [
        {
          "internalType": "address",
          "name": "",
          "type": "address"
        }
      ],
      "name": "vaultsInfo",
      "outputs": [
        {
          "internalType": "bool",
          "name": "authorized",
          "type": "bool"
        }
      ],
      "stateMutability": "view",
      "type": "function"
    }
  ],
  "transactionHash": "0x7b6171dfbc56d61ed7339a8c1867a587ff14dc46db006fbab7b20dafc5b2692c",
  "args": [
    "0x55F836777302CE096CC7770142a8262A2627E2e9",
    "0x517f2982701695D4E52f1ECFBEf3ba31Df470161"
  ],
  "numDeployments": 1,
  "solcInputHash": "30f262930c27e37b9433209a2753c653",
  "bytecode": "0x60c060405234801561001057600080fd5b506040516110e13803806110e183398101604081905261002f916100de565b338061005557604051631e4fbdf760e01b81526000600482015260240160405180910390fd5b61005e81610076565b506001600160a01b039182166080521660a052610118565b600080546001600160a01b038381166001600160a01b0319831681178455604051919092169283917f8be0079c531659141344cd1fd0a4f28419497f9722a3daafe3b4186f6b6457e09190a35050565b6001600160a01b03811681146100db57600080fd5b50565b600080604083850312156100f157600080fd5b82516100fc816100c6565b602084015190925061010d816100c6565b809150509250929050565b60805160a051610f88610159600039600081816102390152818161063b01526106900152600081816102120152818161065d01526106bf0152610f886000f3fe608060405234801561001057600080fd5b50600436106100ea5760003560e01c806397268a181161008c578063c6e628e311610066578063c6e628e3146101fa578063db59fe6b1461020d578063e1308b3314610234578063f2fde38b1461025b57600080fd5b806397268a18146101c15780639850d32b146101d4578063c28916f6146101e757600080fd5b8063715018a6116100c8578063715018a6146101515780638c64ea4a146101595780638d773895146101845780638da5cb5b146101b057600080fd5b806302608cb5146100ef57806302ba45211461010457806344d00f821461013c575b600080fd5b6101026100fd366004610dc6565b61026e565b005b610127610112366004610dc6565b60036020526000908152604090205460ff1681565b60405190151581526020015b60405180910390f35b61014461041a565b6040516101339190610de1565b61010261047c565b61016c610167366004610e2e565b610490565b6040516001600160a01b039091168152602001610133565b610127610192366004610dc6565b6001600160a01b031660009081526003602052604090205460ff1690565b6000546001600160a01b031661016c565b6101026101cf366004610dc6565b6104ba565b60015461016c906001600160a01b031681565b6101026101f5366004610e47565b6105b1565b610102610208366004610dc6565b610732565b61016c7f000000000000000000000000000000000000000000000000000000000000000081565b61016c7f000000000000000000000000000000000000000000000000000000000000000081565b610102610269366004610dc6565b6107d1565b61027661082d565b6001600160a01b03811660009081526003602052604090205460ff166102af57604051635b0c975560e01b815260040160405180910390fd5b6001600160a01b0381166000908152600360205260408120805460ff191690555b6002548110156103e257816001600160a01b0316600282815481106102f7576102f7610e7a565b6000918252602090912001546001600160a01b0316036103d0576002805461032190600190610ea6565b8154811061033157610331610e7a565b600091825260209091200154600280546001600160a01b03909216918390811061035d5761035d610e7a565b9060005260206000200160006101000a8154816001600160a01b0302191690836001600160a01b03160217905550600280548061039c5761039c610eb9565b6000828152602090208101600019908101805473ffffffffffffffffffffffffffffffffffffffff191690550190556103e2565b806103da81610ecf565b9150506102d0565b506040516001600160a01b038216907f837a4903de9aeec14822a3f16f8281ddb3f6760f30fca475e6c9d93c55cb6ebb90600090a250565b6060600280548060200260200160405190810160405280929190818152602001828054801561047257602002820191906000526020600020905b81546001600160a01b03168152600190910190602001808311610454575b5050505050905090565b61048461082d565b61048e6000610873565b565b600281815481106104a057600080fd5b6000918252602090912001546001600160a01b0316905081565b6104c261082d565b6001600160a01b03811660009081526003602052604090205460ff1615610515576040517f67fd7edb00000000000000000000000000000000000000000000000000000000815260040160405180910390fd5b6002805460018082019092557f405787fa12a823e0f2b7631cc41b3ba8828b3321ca811111fa75cd3aa3bb5ace01805473ffffffffffffffffffffffffffffffffffffffff19166001600160a01b038416908117909155600081815260036020526040808220805460ff1916909417909355915190917fb76f28f3c83678452c3eae67bd4df63bdfa0825d808254762d66f9c8f4a5229891a250565b6001546001600160a01b031633146105f5576040517f9b96b05100000000000000000000000000000000000000000000000000000000815260040160405180910390fd5b6001600160a01b03831660009081526003602052604090205460ff1661062e57604051635b0c975560e01b815260040160405180910390fd5b6106836001600160a01b037f0000000000000000000000000000000000000000000000000000000000000000167f000000000000000000000000000000000000000000000000000000000000000030856108d0565b6106b76001600160a01b037f0000000000000000000000000000000000000000000000000000000000000000168484610952565b60006106e5847f00000000000000000000000000000000000000000000000000000000000000008585610a10565b60408051858152602081018390529192506001600160a01b038616917f071949a82eea2b8b9a05bea7645e5daca57252597dbed06d85201eecf8675cfd910160405180910390a250505050565b61073a61082d565b6001600160a01b03811661077a576040517fd92e233d00000000000000000000000000000000000000000000000000000000815260040160405180910390fd5b6001805473ffffffffffffffffffffffffffffffffffffffff19166001600160a01b0383169081179091556040517f3d412b7c69615303b057374f7db7e22f80cc367b8a2ccafe84357e2b26584ef290600090a250565b6107d961082d565b6001600160a01b038116610821576040517f1e4fbdf7000000000000000000000000000000000000000000000000000000008152600060048201526024015b60405180910390fd5b61082a81610873565b50565b6000546001600160a01b0316331461048e576040517f118cdaa7000000000000000000000000000000000000000000000000000000008152336004820152602401610818565b600080546001600160a01b0383811673ffffffffffffffffffffffffffffffffffffffff19831681178455604051919092169283917f8be0079c531659141344cd1fd0a4f28419497f9722a3daafe3b4186f6b6457e09190a35050565b6040516001600160a01b03848116602483015283811660448301526064820183905261094c9186918216906323b872dd906084015b604051602081830303815290604052915060e01b6020820180517bffffffffffffffffffffffffffffffffffffffffffffffffffffffff8381831617835250505050610afd565b50505050565b604080516001600160a01b038416602482015260448082018490528251808303909101815260649091019091526020810180517bffffffffffffffffffffffffffffffffffffffffffffffffffffffff167f095ea7b3000000000000000000000000000000000000000000000000000000001790526109d18482610b7e565b61094c576040516001600160a01b03848116602483015260006044830152610a0691869182169063095ea7b390606401610905565b61094c8482610afd565b6040517f6e553f65000000000000000000000000000000000000000000000000000000008152600481018390526001600160a01b0384811660248301526000918391871690636e553f65906044016020604051808303816000875af1158015610a7d573d6000803e3d6000fd5b505050506040513d601f19601f82011682018060405250810190610aa19190610ee8565b9150811015610af5576040517febcfd0da0000000000000000000000000000000000000000000000000000000081526001600160a01b03861660048201526024810182905260448101839052606401610818565b949350505050565b6000610b126001600160a01b03841683610c28565b90508051600014158015610b37575080806020019051810190610b359190610f01565b155b15610b79576040517f5274afe70000000000000000000000000000000000000000000000000000000081526001600160a01b0384166004820152602401610818565b505050565b6000806000846001600160a01b031684604051610b9b9190610f23565b6000604051808303816000865af19150503d8060008114610bd8576040519150601f19603f3d011682016040523d82523d6000602084013e610bdd565b606091505b5091509150818015610c07575080511580610c07575080806020019051810190610c079190610f01565b8015610c1d57506000856001600160a01b03163b115b925050505b92915050565b6060610c3683836000610c3d565b9392505050565b606081471015610c7b576040517fcd786059000000000000000000000000000000000000000000000000000000008152306004820152602401610818565b600080856001600160a01b03168486604051610c979190610f23565b60006040518083038185875af1925050503d8060008114610cd4576040519150601f19603f3d011682016040523d82523d6000602084013e610cd9565b606091505b5091509150610ce9868383610cf3565b9695505050505050565b606082610d0857610d0382610d68565b610c36565b8151158015610d1f57506001600160a01b0384163b155b15610d61576040517f9996b3150000000000000000000000000000000000000000000000000000000081526001600160a01b0385166004820152602401610818565b5080610c36565b805115610d785780518082602001fd5b6040517f1425ea4200000000000000000000000000000000000000000000000000000000815260040160405180910390fd5b80356001600160a01b0381168114610dc157600080fd5b919050565b600060208284031215610dd857600080fd5b610c3682610daa565b6020808252825182820181905260009190848201906040850190845b81811015610e225783516001600160a01b031683529284019291840191600101610dfd565b50909695505050505050565b600060208284031215610e4057600080fd5b5035919050565b600080600060608486031215610e5c57600080fd5b610e6584610daa565b95602085013595506040909401359392505050565b634e487b7160e01b600052603260045260246000fd5b634e487b7160e01b600052601160045260246000fd5b81810381811115610c2257610c22610e90565b634e487b7160e01b600052603160045260246000fd5b600060018201610ee157610ee1610e90565b5060010190565b600060208284031215610efa57600080fd5b5051919050565b600060208284031215610f1357600080fd5b81518015158114610c3657600080fd5b6000825160005b81811015610f445760208186018101518583015201610f2a565b50600092019182525091905056fea264697066735822122009478ebdff0ecb846dcacef0d82c67be8b2cbcb4ebd17a60a0244647bc9ee09b64736f6c63430008150033",
  "devdoc": {
    "errors": {
      "AddressEmptyCode(address)": [
        {
          "details": "There's no code at `target` (it is not a contract)."
        }
      ],
      "AddressInsufficientBalance(address)": [
        {
          "details": "The ETH balance of the account is not enough to perform the operation."
        }
      ],
      "FailedInnerCall()": [
        {
          "details": "A call to an address target failed. The target may have reverted."
        }
      ],
      "MinSharesError(address,uint256,uint256)": [
        {
          "params": {
            "minSharesOut": "Minimum amount of shares expected to receive.",
            "sharesOut": "Amount of shares received by Acre.",
            "vault": "Address of the vault."
          }
        }
      ],
      "OwnableInvalidOwner(address)": [
        {
          "details": "The owner is not a valid owner account. (eg. `address(0)`)"
        }
      ],
      "OwnableUnauthorizedAccount(address)": [
        {
          "details": "The caller account is not authorized to perform an operation."
        }
      ],
      "SafeERC20FailedOperation(address)": [
        {
          "details": "An operation with an ERC20 token failed."
        }
      ]
    },
    "events": {
      "DepositAllocated(address,uint256,uint256)": {
        "params": {
          "amount": "Amount of tBTC.",
          "sharesOut": "Amount of shares received by Acre.",
          "vault": "Address of the vault."
        }
      },
      "MaintainerUpdated(address)": {
        "params": {
          "maintainer": "Address of the new maintainer."
        }
      },
      "VaultAuthorized(address)": {
        "params": {
          "vault": "Address of the vault."
        }
      },
      "VaultDeauthorized(address)": {
        "params": {
          "vault": "Address of the vault."
        }
      }
    },
    "kind": "dev",
    "methods": {
      "authorizeVault(address)": {
        "params": {
          "vault": "Address of the vault to add."
        }
      },
      "deauthorizeVault(address)": {
        "params": {
          "vault": "Address of the vault to remove."
        }
      },
      "depositToVault(address,uint256,uint256)": {
        "params": {
          "amount": "Amount of tBTC to deposit.",
          "minSharesOut": "Minimum amount of shares to receive by Acre.",
          "vault": "Address of the vault to route the assets to."
        }
      },
      "isVaultAuthorized(address)": {
        "params": {
          "vault": "Address of the vault to check."
        }
      },
      "owner()": {
        "details": "Returns the address of the current owner."
      },
      "renounceOwnership()": {
        "details": "Leaves the contract without owner. It will not be possible to call `onlyOwner` functions. Can only be called by the current owner. NOTE: Renouncing ownership will leave the contract without an owner, thereby disabling any functionality that is only available to the owner."
      },
      "transferOwnership(address)": {
        "details": "Transfers ownership of the contract to a new account (`newOwner`). Can only be called by the current owner."
      },
      "updateMaintainer(address)": {
        "params": {
          "newMaintainer": "Address of the new maintainer."
        }
      }
    },
    "title": "Dispatcher",
    "version": 1
  },
  "userdoc": {
    "errors": {
      "MinSharesError(address,uint256,uint256)": [
        {
          "notice": "Thrown when amount of shares received is below the min set by caller."
        }
      ],
      "NotMaintainer()": [
        {
          "notice": "Reverts if the caller is not the maintainer."
        }
      ],
      "VaultAlreadyAuthorized()": [
        {
          "notice": "Reverts if the vault is already authorized."
        }
      ],
      "VaultUnauthorized()": [
        {
          "notice": "Reverts if the vault is not authorized."
        }
      ],
      "ZeroAddress()": [
        {
          "notice": "Reverts if the address is zero."
        }
      ]
    },
    "events": {
      "DepositAllocated(address,uint256,uint256)": {
        "notice": "Emitted when tBTC is routed to a vault."
      },
      "MaintainerUpdated(address)": {
        "notice": "Emitted when the maintainer address is updated."
      },
      "VaultAuthorized(address)": {
        "notice": "Emitted when a vault is authorized."
      },
      "VaultDeauthorized(address)": {
        "notice": "Emitted when a vault is deauthorized."
      }
    },
    "kind": "user",
    "methods": {
      "acre()": {
        "notice": "The main Acre contract holding tBTC deposited by stakers."
      },
      "authorizeVault(address)": {
        "notice": "Adds a vault to the list of authorized vaults."
      },
      "deauthorizeVault(address)": {
        "notice": "Removes a vault from the list of authorized vaults."
      },
      "depositToVault(address,uint256,uint256)": {
        "notice": "TODO: make this function internal once the allocation distribution is implementedRoutes tBTC from Acre to a vault. Can be called by the maintainer         only."
      },
      "getVaults()": {
        "notice": "Returns the list of authorized vaults."
      },
      "isVaultAuthorized(address)": {
        "notice": "Returns true if the vault is authorized."
      },
      "maintainer()": {
        "notice": "Address of the maintainer bot."
      },
      "tbtc()": {
        "notice": "tBTC token contract."
      },
      "updateMaintainer(address)": {
        "notice": "Updates the maintainer address."
      },
      "vaults(uint256)": {
        "notice": "Authorized Yield Vaults that implement ERC4626 standard. These vaults deposit assets to yield strategies, e.g. Uniswap V3 WBTC/TBTC pool. Vault can be a part of Acre ecosystem or can be implemented externally. As long as it complies with ERC4626 standard and is authorized by the owner it can be plugged into Acre."
      },
      "vaultsInfo(address)": {
        "notice": "Mapping of vaults to their information."
      }
    },
    "notice": "Dispatcher is a contract that routes tBTC from Acre (stBTC) to         yield vaults and back. Vaults supply yield strategies with tBTC that         generate yield for Bitcoin holders.",
    "version": 1
  },
  "storageLayout": {
    "storage": [
      {
        "astId": 2672,
        "contract": "contracts/Dispatcher.sol:Dispatcher",
        "label": "_owner",
        "offset": 0,
        "slot": "0",
        "type": "t_address"
      },
      {
        "astId": 6500,
        "contract": "contracts/Dispatcher.sol:Dispatcher",
        "label": "maintainer",
        "offset": 0,
        "slot": "1",
        "type": "t_address"
      },
      {
        "astId": 6504,
        "contract": "contracts/Dispatcher.sol:Dispatcher",
        "label": "vaults",
        "offset": 0,
        "slot": "2",
        "type": "t_array(t_address)dyn_storage"
      },
      {
        "astId": 6510,
        "contract": "contracts/Dispatcher.sol:Dispatcher",
        "label": "vaultsInfo",
        "offset": 0,
        "slot": "3",
        "type": "t_mapping(t_address,t_struct(VaultInfo)6489_storage)"
      }
    ],
    "types": {
      "t_address": {
        "encoding": "inplace",
        "label": "address",
        "numberOfBytes": "20"
      },
      "t_array(t_address)dyn_storage": {
        "base": "t_address",
        "encoding": "dynamic_array",
        "label": "address[]",
        "numberOfBytes": "32"
      },
      "t_bool": {
        "encoding": "inplace",
        "label": "bool",
        "numberOfBytes": "1"
      },
      "t_mapping(t_address,t_struct(VaultInfo)6489_storage)": {
        "encoding": "mapping",
        "key": "t_address",
        "label": "mapping(address => struct Dispatcher.VaultInfo)",
        "numberOfBytes": "32",
        "value": "t_struct(VaultInfo)6489_storage"
      },
      "t_struct(VaultInfo)6489_storage": {
        "encoding": "inplace",
        "label": "struct Dispatcher.VaultInfo",
        "members": [
          {
            "astId": 6488,
            "contract": "contracts/Dispatcher.sol:Dispatcher",
            "label": "authorized",
            "offset": 0,
            "slot": "0",
            "type": "t_bool"
          }
        ],
        "numberOfBytes": "32"
      }
    }
  }
}