{
  "address": "0x829fdCDf6Be747FEA37518fBd83dF70EE371fCf2",
  "abi": [
    {
      "inputs": [
        {
          "internalType": "contract IBridge",
          "name": "_bridge",
          "type": "address"
        },
        {
          "internalType": "contract ITBTCVault",
          "name": "_tbtcVault",
          "type": "address"
        },
        {
          "internalType": "contract IERC20",
          "name": "_tbtcToken",
          "type": "address"
        },
        {
          "internalType": "contract Acre",
          "name": "_acre",
          "type": "address"
        }
      ],
      "stateMutability": "nonpayable",
      "type": "constructor"
    },
    {
      "inputs": [
        {
          "internalType": "address",
          "name": "target",
          "type": "address"
        }
      ],
      "name": "AddressEmptyCode",
      "type": "error"
    },
    {
      "inputs": [
        {
          "internalType": "address",
          "name": "account",
          "type": "address"
        }
      ],
      "name": "AddressInsufficientBalance",
      "type": "error"
    },
    {
      "inputs": [],
      "name": "BridgingAlreadyCompleted",
      "type": "error"
    },
    {
      "inputs": [],
      "name": "BridgingNotCompleted",
      "type": "error"
    },
    {
      "inputs": [],
      "name": "CallerNotReceiver",
      "type": "error"
    },
    {
      "inputs": [],
      "name": "FailedInnerCall",
      "type": "error"
    },
    {
      "inputs": [
        {
          "internalType": "address",
          "name": "owner",
          "type": "address"
        }
      ],
      "name": "OwnableInvalidOwner",
      "type": "error"
    },
    {
      "inputs": [
        {
          "internalType": "address",
          "name": "account",
          "type": "address"
        }
      ],
      "name": "OwnableUnauthorizedAccount",
      "type": "error"
    },
    {
      "inputs": [],
      "name": "ReceiverIsZeroAddress",
      "type": "error"
    },
    {
      "inputs": [
        {
          "internalType": "address",
          "name": "token",
          "type": "address"
        }
      ],
      "name": "SafeERC20FailedOperation",
      "type": "error"
    },
    {
      "inputs": [],
      "name": "StakeRequestAlreadyFinalized",
      "type": "error"
    },
    {
      "inputs": [],
      "name": "StakeRequestAlreadyInProgress",
      "type": "error"
    },
    {
      "inputs": [],
      "name": "StakeRequestNotInitialized",
      "type": "error"
    },
    {
      "inputs": [],
      "name": "TbtcDepositNotCompleted",
      "type": "error"
    },
    {
      "inputs": [
        {
          "internalType": "address",
          "name": "bridgeDepositRequestDepositor",
          "type": "address"
        }
      ],
      "name": "UnexpectedDepositor",
      "type": "error"
    },
    {
      "inputs": [
        {
          "internalType": "address",
          "name": "bridgeDepositRequestVault",
          "type": "address"
        }
      ],
      "name": "UnexpectedTbtcVault",
      "type": "error"
    },
    {
      "anonymous": false,
      "inputs": [
        {
          "indexed": true,
          "internalType": "uint256",
          "name": "depositKey",
          "type": "uint256"
        },
        {
          "indexed": true,
          "internalType": "address",
          "name": "caller",
          "type": "address"
        },
        {
          "indexed": false,
          "internalType": "uint256",
          "name": "amountToStake",
          "type": "uint256"
        }
      ],
      "name": "BridgingCompleted",
      "type": "event"
    },
    {
      "anonymous": false,
      "inputs": [
        {
          "indexed": false,
          "internalType": "uint64",
          "name": "depositorFeeDivisor",
          "type": "uint64"
        }
      ],
      "name": "DepositorFeeDivisorUpdated",
      "type": "event"
    },
    {
      "anonymous": false,
      "inputs": [
        {
          "indexed": true,
          "internalType": "address",
          "name": "previousOwner",
          "type": "address"
        },
        {
          "indexed": true,
          "internalType": "address",
          "name": "newOwner",
          "type": "address"
        }
      ],
      "name": "OwnershipTransferred",
      "type": "event"
    },
    {
      "anonymous": false,
      "inputs": [
        {
          "indexed": true,
          "internalType": "uint256",
          "name": "depositKey",
          "type": "uint256"
        },
        {
          "indexed": true,
          "internalType": "address",
          "name": "caller",
          "type": "address"
        }
      ],
      "name": "StakeFinalized",
      "type": "event"
    },
    {
      "anonymous": false,
      "inputs": [
        {
          "indexed": true,
          "internalType": "uint256",
          "name": "depositKey",
          "type": "uint256"
        },
        {
          "indexed": true,
          "internalType": "address",
          "name": "caller",
          "type": "address"
        },
        {
          "indexed": false,
          "internalType": "address",
          "name": "receiver",
          "type": "address"
        },
        {
          "indexed": false,
          "internalType": "uint16",
          "name": "referral",
          "type": "uint16"
        }
      ],
      "name": "StakeInitialized",
      "type": "event"
    },
    {
      "anonymous": false,
      "inputs": [
        {
          "indexed": true,
          "internalType": "uint256",
          "name": "depositKey",
          "type": "uint256"
        },
        {
          "indexed": true,
          "internalType": "address",
          "name": "caller",
          "type": "address"
        }
      ],
      "name": "StakeRecalled",
      "type": "event"
    },
    {
      "inputs": [],
      "name": "SATOSHI_MULTIPLIER",
      "outputs": [
        {
          "internalType": "uint256",
          "name": "",
          "type": "uint256"
        }
      ],
      "stateMutability": "view",
      "type": "function"
    },
    {
      "inputs": [],
      "name": "acre",
      "outputs": [
        {
          "internalType": "contract Acre",
          "name": "",
          "type": "address"
        }
      ],
      "stateMutability": "view",
      "type": "function"
    },
    {
      "inputs": [],
      "name": "bridge",
      "outputs": [
        {
          "internalType": "contract IBridge",
          "name": "",
          "type": "address"
        }
      ],
      "stateMutability": "view",
      "type": "function"
    },
    {
      "inputs": [
        {
          "internalType": "bytes32",
          "name": "fundingTxHash",
          "type": "bytes32"
        },
        {
          "internalType": "uint32",
          "name": "fundingOutputIndex",
          "type": "uint32"
        }
      ],
      "name": "calculateDepositKey",
      "outputs": [
        {
          "internalType": "uint256",
          "name": "",
          "type": "uint256"
        }
      ],
      "stateMutability": "pure",
      "type": "function"
    },
    {
      "inputs": [
        {
          "internalType": "bytes32",
          "name": "extraData",
          "type": "bytes32"
        }
      ],
      "name": "decodeExtraData",
      "outputs": [
        {
          "internalType": "address",
          "name": "receiver",
          "type": "address"
        },
        {
          "internalType": "uint16",
          "name": "referral",
          "type": "uint16"
        }
      ],
      "stateMutability": "pure",
      "type": "function"
    },
    {
      "inputs": [],
      "name": "depositorFeeDivisor",
      "outputs": [
        {
          "internalType": "uint64",
          "name": "",
          "type": "uint64"
        }
      ],
      "stateMutability": "view",
      "type": "function"
    },
    {
      "inputs": [
        {
          "internalType": "address",
          "name": "receiver",
          "type": "address"
        },
        {
          "internalType": "uint16",
          "name": "referral",
          "type": "uint16"
        }
      ],
      "name": "encodeExtraData",
      "outputs": [
        {
          "internalType": "bytes32",
          "name": "",
          "type": "bytes32"
        }
      ],
      "stateMutability": "pure",
      "type": "function"
    },
    {
      "inputs": [
        {
          "internalType": "uint256",
          "name": "depositKey",
          "type": "uint256"
        }
      ],
      "name": "finalizeStakeRequest",
      "outputs": [],
      "stateMutability": "nonpayable",
      "type": "function"
    },
    {
      "inputs": [
        {
          "components": [
            {
              "internalType": "bytes4",
              "name": "version",
              "type": "bytes4"
            },
            {
              "internalType": "bytes",
              "name": "inputVector",
              "type": "bytes"
            },
            {
              "internalType": "bytes",
              "name": "outputVector",
              "type": "bytes"
            },
            {
              "internalType": "bytes4",
              "name": "locktime",
              "type": "bytes4"
            }
          ],
          "internalType": "struct IBridge.BitcoinTxInfo",
          "name": "fundingTx",
          "type": "tuple"
        },
        {
          "components": [
            {
              "internalType": "uint32",
              "name": "fundingOutputIndex",
              "type": "uint32"
            },
            {
              "internalType": "bytes8",
              "name": "blindingFactor",
              "type": "bytes8"
            },
            {
              "internalType": "bytes20",
              "name": "walletPubKeyHash",
              "type": "bytes20"
            },
            {
              "internalType": "bytes20",
              "name": "refundPubKeyHash",
              "type": "bytes20"
            },
            {
              "internalType": "bytes4",
              "name": "refundLocktime",
              "type": "bytes4"
            },
            {
              "internalType": "address",
              "name": "vault",
              "type": "address"
            }
          ],
          "internalType": "struct IBridge.DepositRevealInfo",
          "name": "reveal",
          "type": "tuple"
        },
        {
          "internalType": "address",
          "name": "receiver",
          "type": "address"
        },
        {
          "internalType": "uint16",
          "name": "referral",
          "type": "uint16"
        }
      ],
      "name": "initializeStakeRequest",
      "outputs": [],
      "stateMutability": "nonpayable",
      "type": "function"
    },
    {
      "inputs": [
        {
          "internalType": "uint256",
          "name": "depositKey",
          "type": "uint256"
        }
      ],
      "name": "notifyBridgingCompleted",
      "outputs": [],
      "stateMutability": "nonpayable",
      "type": "function"
    },
    {
      "inputs": [],
      "name": "owner",
      "outputs": [
        {
          "internalType": "address",
          "name": "",
          "type": "address"
        }
      ],
      "stateMutability": "view",
      "type": "function"
    },
    {
      "inputs": [
        {
          "internalType": "uint256",
          "name": "depositKey",
          "type": "uint256"
        }
      ],
      "name": "recallStakeRequest",
      "outputs": [],
      "stateMutability": "nonpayable",
      "type": "function"
    },
    {
      "inputs": [],
      "name": "renounceOwnership",
      "outputs": [],
      "stateMutability": "nonpayable",
      "type": "function"
    },
    {
      "inputs": [
        {
          "internalType": "uint256",
          "name": "",
          "type": "uint256"
        }
      ],
      "name": "stakeRequests",
      "outputs": [
        {
          "internalType": "uint64",
          "name": "requestedAt",
          "type": "uint64"
        },
        {
          "internalType": "uint64",
          "name": "finalizedAt",
          "type": "uint64"
        },
        {
          "internalType": "uint64",
          "name": "tbtcDepositTxMaxFee",
          "type": "uint64"
        },
        {
          "internalType": "uint32",
          "name": "tbtcOptimisticMintingFeeDivisor",
          "type": "uint32"
        },
        {
          "internalType": "uint256",
          "name": "amountToStake",
          "type": "uint256"
        }
      ],
      "stateMutability": "view",
      "type": "function"
    },
    {
      "inputs": [],
      "name": "tbtcToken",
      "outputs": [
        {
          "internalType": "contract IERC20",
          "name": "",
          "type": "address"
        }
      ],
      "stateMutability": "view",
      "type": "function"
    },
    {
      "inputs": [],
      "name": "tbtcVault",
      "outputs": [
        {
          "internalType": "contract ITBTCVault",
          "name": "",
          "type": "address"
        }
      ],
      "stateMutability": "view",
      "type": "function"
    },
    {
      "inputs": [
        {
          "internalType": "address",
          "name": "newOwner",
          "type": "address"
        }
      ],
      "name": "transferOwnership",
      "outputs": [],
      "stateMutability": "nonpayable",
      "type": "function"
    },
    {
      "inputs": [
        {
          "internalType": "uint64",
          "name": "newDepositorFeeDivisor",
          "type": "uint64"
        }
      ],
      "name": "updateDepositorFeeDivisor",
      "outputs": [],
      "stateMutability": "nonpayable",
      "type": "function"
    }
  ],
  "transactionHash": "0xe657bbcca62298edc15e27414dfe791c7398a29745fcdafa279f69f971f50f69",
  "args": [
    "0x9b1a7fE5a16A15F2f9475C5B231750598b113403",
    "0xB5679dE944A79732A75CE556191DF11F489448d5",
    "0x517f2982701695D4E52f1ECFBEf3ba31Df470161",
    "0x55F836777302CE096CC7770142a8262A2627E2e9"
  ],
  "numDeployments": 1,
  "solcInputHash": "4a46f2857b613ff7d1ade642059e3598",
  "bytecode": "0x60a06040523480156200001157600080fd5b506040516200205f3803806200205f833981016040819052620000349162000129565b33806200005b57604051631e4fbdf760e01b81526000600482015260240160405180910390fd5b6200006681620000c0565b50600180546001600160a01b039586166001600160a01b031991821617909155600280549486169482169490941790935590831660805260038054919093169116179055600580546001600160401b031916905562000191565b600080546001600160a01b038381166001600160a01b0319831681178455604051919092169283917f8be0079c531659141344cd1fd0a4f28419497f9722a3daafe3b4186f6b6457e09190a35050565b6001600160a01b03811681146200012657600080fd5b50565b600080600080608085870312156200014057600080fd5b84516200014d8162000110565b6020860151909450620001608162000110565b6040860151909350620001738162000110565b6060860151909250620001868162000110565b939692955090935050565b608051611e9d620001c26000396000818161034a015281816104f301528181610a300152610cc10152611e9d6000f3fe608060405234801561001057600080fd5b50600436106101365760003560e01c80638da5cb5b116100b2578063d782027311610081578063e5d3d71411610066578063e5d3d71414610345578063e78cea921461036c578063f2fde38b1461037f57600080fd5b8063d78202731461031f578063db59fe6b1461033257600080fd5b80638da5cb5b14610238578063c143d67514610249578063c7ba034714610276578063d0714ad51461028257600080fd5b80633647b20511610109578063715018a6116100ee578063715018a6146101da578063774e2e90146101e25780637cea86891461022557600080fd5b80633647b205146101b45780633d11a6ae146101c757600080fd5b80630e8491c51461013b5780630f36403a14610150578063124f65bd146101805780631dc2004d146101a1575b600080fd5b61014e6101493660046116ef565b610392565b005b600254610163906001600160a01b031681565b6040516001600160a01b0390911681526020015b60405180910390f35b61019361018e36600461171a565b6105c6565b604051908152602001610177565b61014e6101af3660046116ef565b610613565b61014e6101c2366004611760565b610a57565b6101936101d53660046117b4565b610ab5565b61014e610b22565b6102036101f03660046116ef565b606081901c9160509190911c61ffff1690565b604080516001600160a01b03909316835261ffff909116602083015201610177565b61014e6102333660046116ef565b610b36565b6000546001600160a01b0316610163565b60055461025d9067ffffffffffffffff1681565b60405167ffffffffffffffff9091168152602001610177565b6101936402540be40081565b6102df6102903660046116ef565b6004602052600090815260409020805460019091015467ffffffffffffffff80831692680100000000000000008104821692600160801b820490921691600160c01b90910463ffffffff169085565b6040805167ffffffffffffffff96871681529486166020860152929094169183019190915263ffffffff166060820152608081019190915260a001610177565b61014e61032d3660046117e9565b610cf0565b600354610163906001600160a01b031681565b6101637f000000000000000000000000000000000000000000000000000000000000000081565b600154610163906001600160a01b031681565b61014e61038d36600461186d565b611174565b600081815260046020526040812060018101549091036103c557604051632f3d137560e11b815260040160405180910390fd5b805468010000000000000000900467ffffffffffffffff16156103fb57604051631960824560e01b815260040160405180910390fd5b80546fffffffffffffffff00000000000000001916680100000000000000004267ffffffffffffffff1602178155600154604051630b02c43d60e41b8152600481018490526000916001600160a01b03169063b02c43d09060240160e060405180830381865afa158015610473573d6000803e3d6000fd5b505050506040513d601f19601f8201168201806040525081019061049791906118a0565b60c081015160405191925090606082901c9061ffff605084901c1690339087907fea168eab4508566481958c778e30bd01debfbf7a9763958991206456338b413990600090a3600354600186015461051d916001600160a01b037f00000000000000000000000000000000000000000000000000000000000000008116929116906111cb565b60035460018601546040517fdc8c4ffe00000000000000000000000000000000000000000000000000000000815260048101919091526001600160a01b03848116602483015261ffff841660448301529091169063dc8c4ffe906064016020604051808303816000875af1158015610599573d6000803e3d6000fd5b505050506040513d601f19601f820116820180604052508101906105bd9190611962565b50505050505050565b600082826040516020016105f192919091825260e01b6001600160e01b031916602082015260240190565b6040516020818303038152906040528051906020012060001c90505b92915050565b60008181526004602052604081208054909167ffffffffffffffff9091169003610669576040517f9344bf7500000000000000000000000000000000000000000000000000000000815260040160405180910390fd5b6001810154156106a5576040517ffeb8632c00000000000000000000000000000000000000000000000000000000815260040160405180910390fd5b600154604051630b02c43d60e41b8152600481018490526000916001600160a01b03169063b02c43d09060240160e060405180830381865afa1580156106ef573d6000803e3d6000fd5b505050506040513d601f19601f8201168201806040525081019061071391906118a0565b6002546040517f6c626aa4000000000000000000000000000000000000000000000000000000008152600481018690529192506000916001600160a01b0390911690636c626aa49060240160408051808303816000875af115801561077c573d6000803e3d6000fd5b505050506040513d601f19601f820116820180604052508101906107a0919061197b565b60208301518454608085015192935067ffffffffffffffff918216926000926107d192600160801b900416906119fe565b602084015167ffffffffffffffff918216925016156108ac578454600254604080516309b53f5160e01b8152905160009361087b93600160c01b90910463ffffffff16926001600160a01b03909116916309b53f51916004808201926020929091908290030181865afa15801561084c573d6000803e3d6000fd5b505050506040513d601f19601f820116820180604052508101906108709190611a26565b63ffffffff16611274565b9050600080821161088d576000610897565b6108978285611a43565b90506108a38184611a65565b925050506108f0565b8360a0015163ffffffff166000036108f0576040517fd566433100000000000000000000000000000000000000000000000000000000815260040160405180910390fd5b60055460009067ffffffffffffffff1661090b576000610933565b6005546402540be400906109299067ffffffffffffffff1685611a43565b6109339190611a78565b9050806402540be4006109468486611a8f565b6109509190611a78565b61095a9190611a8f565b60018701819055604051908152339088907fec5dcb5d8f2d1eef802fa5b2919b7de78434863012ed4ed8527500c7bd82fbc49060200160405180910390a380156105bd57600354604080517f61d027b300000000000000000000000000000000000000000000000000000000815290516105bd926001600160a01b0316916361d027b39160048083019260209291908290030181865afa158015610a02573d6000803e3d6000fd5b505050506040513d601f19601f82011682018060405250810190610a269190611aa2565b6001600160a01b037f000000000000000000000000000000000000000000000000000000000000000016908361128a565b610a5f611303565b6005805467ffffffffffffffff191667ffffffffffffffff83169081179091556040519081527f53a618edd6eab9ce346f438670ebd45da60fa3d85662375fae2b8beadf08faf39060200160405180910390a150565b6040516bffffffffffffffffffffffff19606084901b1660208201527fffff00000000000000000000000000000000000000000000000000000000000060f083901b166034820152600090603601604051602081830303815290604052610b1b90611abf565b9392505050565b610b2a611303565b610b346000611349565b565b60008181526004602052604081206001810154909103610b6957604051632f3d137560e11b815260040160405180910390fd5b805468010000000000000000900467ffffffffffffffff1615610b9f57604051631960824560e01b815260040160405180910390fd5b80546fffffffffffffffff00000000000000001916680100000000000000004267ffffffffffffffff1602178155600154604051630b02c43d60e41b8152600481018490526000916001600160a01b03169063b02c43d09060240160e060405180830381865afa158015610c17573d6000803e3d6000fd5b505050506040513d601f19601f82011682018060405250810190610c3b91906118a0565b60c0810151909150606081901c338114610c81576040517f93f2d2aa00000000000000000000000000000000000000000000000000000000815260040160405180910390fd5b604051339086907ff06fc5cd0523877538b1c085017ddd21143e7bd1f929f279fd990bbd6ac9b90190600090a36001840154610ce9906001600160a01b037f00000000000000000000000000000000000000000000000000000000000000001690839061128a565b5050505050565b6002546001600160a01b0316610d0c60c0850160a0860161186d565b6001600160a01b031614610d6d57610d2a60c0840160a0850161186d565b6040517f25f80d2b0000000000000000000000000000000000000000000000000000000081526001600160a01b0390911660048201526024015b60405180910390fd5b6001600160a01b038216610dad576040517f80f67d2300000000000000000000000000000000000000000000000000000000815260040160405180910390fd5b6000610e12610dbf6020870187611afe565b610dcc6020880188611b19565b610dd960408a018a611b19565b610de960808c0160608d01611afe565b604051602001610dfe96959493929190611b67565b6040516020818303038152906040526113b1565b90506000610e278261018e6020880188611ba9565b600081815260046020526040902080549192509067ffffffffffffffff1615610e7c576040517fc565102c00000000000000000000000000000000000000000000000000000000815260040160405180910390fd5b604080516001600160a01b038716815261ffff86166020820152339184917fadc36767cebbd5ffe68cd8d2d9584982b0ffe1e9a2257fc75f465e893c847a8e910160405180910390a3805467ffffffffffffffff19164267ffffffffffffffff161781556001546001600160a01b03166386f014398888610efd8989610ab5565b6040518463ffffffff1660e01b8152600401610f1b93929190611c52565b600060405180830381600087803b158015610f3557600080fd5b505af1158015610f49573d6000803e3d6000fd5b50505050600160009054906101000a90046001600160a01b03166001600160a01b031663c42b64d06040518163ffffffff1660e01b8152600401608060405180830381865afa158015610fa0573d6000803e3d6000fd5b505050506040513d601f19601f82011682018060405250810190610fc49190611db7565b50835467ffffffffffffffff909116600160801b027fffffffffffffffff0000000000000000ffffffffffffffffffffffffffffffff9091161783555050600254604080516309b53f5160e01b815290516001600160a01b03909216916309b53f51916004808201926020929091908290030181865afa15801561104c573d6000803e3d6000fd5b505050506040513d601f19601f820116820180604052508101906110709190611a26565b815463ffffffff91909116600160c01b027fffffffff00000000ffffffffffffffffffffffffffffffffffffffffffffffff909116178155600154604051630b02c43d60e41b8152600481018490526000916001600160a01b03169063b02c43d09060240160e060405180830381865afa1580156110f2573d6000803e3d6000fd5b505050506040513d601f19601f8201168201806040525081019061111691906118a0565b80519091506001600160a01b0316301461116a5780516040517f251231680000000000000000000000000000000000000000000000000000000081526001600160a01b039091166004820152602401610d64565b5050505050505050565b61117c611303565b6001600160a01b0381166111bf576040517f1e4fbdf700000000000000000000000000000000000000000000000000000000815260006004820152602401610d64565b6111c881611349565b50565b6040517fdd62ed3e0000000000000000000000000000000000000000000000000000000081523060048201526001600160a01b0383811660248301526000919085169063dd62ed3e90604401602060405180830381865afa158015611234573d6000803e3d6000fd5b505050506040513d601f19601f820116820180604052508101906112589190611962565b905061126e84846112698585611a65565b6113d8565b50505050565b60008183106112835781610b1b565b5090919050565b6040516001600160a01b038381166024830152604482018390526112fe91859182169063a9059cbb906064015b604051602081830303815290604052915060e01b6020820180517bffffffffffffffffffffffffffffffffffffffffffffffffffffffff8381831617835250505050611492565b505050565b6000546001600160a01b03163314610b34576040517f118cdaa7000000000000000000000000000000000000000000000000000000008152336004820152602401610d64565b600080546001600160a01b038381167fffffffffffffffffffffffff0000000000000000000000000000000000000000831681178455604051919092169283917f8be0079c531659141344cd1fd0a4f28419497f9722a3daafe3b4186f6b6457e09190a35050565b60006020600083516020850160025afa50602060006020600060025afa5050600051919050565b604080516001600160a01b038416602482015260448082018490528251808303909101815260649091019091526020810180517bffffffffffffffffffffffffffffffffffffffffffffffffffffffff167f095ea7b300000000000000000000000000000000000000000000000000000000179052611457848261150e565b61126e576040516001600160a01b0384811660248301526000604483015261148c91869182169063095ea7b3906064016112b7565b61126e84825b60006114a76001600160a01b038416836115b6565b905080516000141580156114cc5750808060200190518101906114ca9190611e16565b155b156112fe576040517f5274afe70000000000000000000000000000000000000000000000000000000081526001600160a01b0384166004820152602401610d64565b6000806000846001600160a01b03168460405161152b9190611e38565b6000604051808303816000865af19150503d8060008114611568576040519150601f19603f3d011682016040523d82523d6000602084013e61156d565b606091505b50915091508180156115975750805115806115975750808060200190518101906115979190611e16565b80156115ad57506000856001600160a01b03163b115b95945050505050565b6060610b1b8383600084600080856001600160a01b031684866040516115dc9190611e38565b60006040518083038185875af1925050503d8060008114611619576040519150601f19603f3d011682016040523d82523d6000602084013e61161e565b606091505b509150915061162e868383611638565b9695505050505050565b60608261164d57611648826116ad565b610b1b565b815115801561166457506001600160a01b0384163b155b156116a6576040517f9996b3150000000000000000000000000000000000000000000000000000000081526001600160a01b0385166004820152602401610d64565b5080610b1b565b8051156116bd5780518082602001fd5b6040517f1425ea4200000000000000000000000000000000000000000000000000000000815260040160405180910390fd5b60006020828403121561170157600080fd5b5035919050565b63ffffffff811681146111c857600080fd5b6000806040838503121561172d57600080fd5b82359150602083013561173f81611708565b809150509250929050565b67ffffffffffffffff811681146111c857600080fd5b60006020828403121561177257600080fd5b8135610b1b8161174a565b6001600160a01b03811681146111c857600080fd5b803561179d8161177d565b919050565b803561ffff8116811461179d57600080fd5b600080604083850312156117c757600080fd5b82356117d28161177d565b91506117e0602084016117a2565b90509250929050565b60008060008084860361012081121561180157600080fd5b853567ffffffffffffffff81111561181857600080fd5b86016080818903121561182a57600080fd5b945060c0601f198201121561183e57600080fd5b5060208501925060e08501356118538161177d565b915061186261010086016117a2565b905092959194509250565b60006020828403121561187f57600080fd5b8135610b1b8161177d565b805161179d8161174a565b805161179d81611708565b600060e082840312156118b257600080fd5b60405160e0810181811067ffffffffffffffff821117156118e357634e487b7160e01b600052604160045260246000fd5b60405282516118f18161177d565b815260208301516119018161174a565b6020820152604083015161191481611708565b604082015260608301516119278161177d565b60608201526119386080840161188a565b608082015261194960a08401611895565b60a082015260c083015160c08201528091505092915050565b60006020828403121561197457600080fd5b5051919050565b60006040828403121561198d57600080fd5b6040516040810181811067ffffffffffffffff821117156119be57634e487b7160e01b600052604160045260246000fd5b60405282516119cc8161174a565b815260208301516119dc8161174a565b60208201529392505050565b634e487b7160e01b600052601160045260246000fd5b67ffffffffffffffff818116838216019080821115611a1f57611a1f6119e8565b5092915050565b600060208284031215611a3857600080fd5b8151610b1b81611708565b600082611a6057634e487b7160e01b600052601260045260246000fd5b500490565b8082018082111561060d5761060d6119e8565b808202811582820484141761060d5761060d6119e8565b8181038181111561060d5761060d6119e8565b600060208284031215611ab457600080fd5b8151610b1b8161177d565b80516020808301519190811015611ae0576000198160200360031b1b821691505b50919050565b80356001600160e01b03198116811461179d57600080fd5b600060208284031215611b1057600080fd5b610b1b82611ae6565b6000808335601e19843603018112611b3057600080fd5b83018035915067ffffffffffffffff821115611b4b57600080fd5b602001915036819003821315611b6057600080fd5b9250929050565b60006001600160e01b03198089168352868860048501378683016004810160008152868882375093169390920160048101939093525050600801949350505050565b600060208284031215611bbb57600080fd5b8135610b1b81611708565b6000808335601e19843603018112611bdd57600080fd5b830160208101925035905067ffffffffffffffff811115611bfd57600080fd5b803603821315611b6057600080fd5b81835281816020850137506000828201602090810191909152601f909101601f19169091010190565b80356bffffffffffffffffffffffff198116811461179d57600080fd5b60006101008083526001600160e01b031980611c6d88611ae6565b1682850152611c7f6020880188611bc6565b92506080610120860152611c9861018086018483611c0c565b925050611ca86040880188611bc6565b85840360ff1901610140870152611cc0848284611c0c565b9350505080611cd160608901611ae6565b166101608501525090508335611ce681611708565b63ffffffff811660208401525060208401357fffffffffffffffff0000000000000000000000000000000000000000000000008116808214611d2757600080fd5b80604085015250506bffffffffffffffffffffffff19611d4960408601611c35565b166060830152611d5b60608501611c35565b6bffffffffffffffffffffffff198116608084015250611d7d60808501611ae6565b6001600160e01b0319811660a084015250611d9a60a08501611792565b6001600160a01b031660c083015260e09091019190915292915050565b60008060008060808587031215611dcd57600080fd5b8451611dd88161174a565b6020860151909450611de98161174a565b6040860151909350611dfa8161174a565b6060860151909250611e0b81611708565b939692955090935050565b600060208284031215611e2857600080fd5b81518015158114610b1b57600080fd5b6000825160005b81811015611e595760208186018101518583015201611e3f565b50600092019182525091905056fea264697066735822122002c7eb32e3904e28b17f5a021bf7537d2555b9fcc11539ff0c2e43648f0c778a64736f6c63430008150033",
  "devdoc": {
    "errors": {
      "AddressEmptyCode(address)": [
        {
          "details": "There's no code at `target` (it is not a contract)."
        }
      ],
      "AddressInsufficientBalance(address)": [
        {
          "details": "The ETH balance of the account is not enough to perform the operation."
        }
      ],
      "BridgingAlreadyCompleted()": [
        {
          "details": "Attempted to notify about completed bridging while the notification      was already submitted."
        }
      ],
      "BridgingNotCompleted()": [
        {
          "details": "Attempted to finalize a stake request, while bridging completion has not been notified yet."
        }
      ],
      "CallerNotReceiver()": [
        {
          "details": "Attempted to call function by an account that is not the receiver."
        }
      ],
      "FailedInnerCall()": [
        {
          "details": "A call to an address target failed. The target may have reverted."
        }
      ],
      "OwnableInvalidOwner(address)": [
        {
          "details": "The owner is not a valid owner account. (eg. `address(0)`)"
        }
      ],
      "OwnableUnauthorizedAccount(address)": [
        {
          "details": "The caller account is not authorized to perform an operation."
        }
      ],
      "ReceiverIsZeroAddress()": [
        {
          "details": "Receiver address is zero."
        }
      ],
      "SafeERC20FailedOperation(address)": [
        {
          "details": "An operation with an ERC20 token failed."
        }
      ],
      "StakeRequestAlreadyFinalized()": [
        {
          "details": "Attempted to finalize a stake request that was already finalized."
        }
      ],
      "StakeRequestAlreadyInProgress()": [
        {
          "details": "Attempted to initiate a stake request that was already initialized."
        }
      ],
      "StakeRequestNotInitialized()": [
        {
          "details": "Attempted to finalize a stake request that has not been initialized."
        }
      ],
      "TbtcDepositNotCompleted()": [
        {
          "details": "Deposit was not completed on the tBTC side and tBTC was not minted      to the depositor contract. It is thrown when the deposit neither has      been optimistically minted nor swept."
        }
      ],
      "UnexpectedDepositor(address)": [
        {
          "details": "Depositor address stored in the Deposit Request in the tBTC Bridge      contract doesn't match the current contract address."
        }
      ],
      "UnexpectedTbtcVault(address)": [
        {
          "details": "Vault address stored in the Deposit Request in the tBTC Bridge      contract doesn't match the expected tBTC Vault contract address."
        }
      ]
    },
    "events": {
      "BridgingCompleted(uint256,address,uint256)": {
        "params": {
          "amountToStake": "Amount of tBTC token that is available to stake.",
          "caller": "Address that notified about bridging completion.",
          "depositKey": "Deposit identifier."
        }
      },
      "DepositorFeeDivisorUpdated(uint64)": {
        "params": {
          "depositorFeeDivisor": "New value of the depositor fee divisor."
        }
      },
      "StakeFinalized(uint256,address)": {
        "details": "Deposit details can be fetched from {{ ERC4626.Deposit }}      event emitted in the same transaction.",
        "params": {
          "caller": "Address that finalized the stake request.",
          "depositKey": "Deposit identifier."
        }
      },
      "StakeInitialized(uint256,address,address,uint16)": {
        "details": "Deposit details can be fetched from {{ Bridge.DepositRevealed }}      event emitted in the same transaction.",
        "params": {
          "caller": "Address that initialized the stake request.",
          "depositKey": "Deposit identifier.",
          "receiver": "The address to which the stBTC shares will be minted.",
          "referral": "Data used for referral program."
        }
      },
      "StakeRecalled(uint256,address)": {
        "params": {
          "caller": "Address that called the function to recall the stake.",
          "depositKey": "Deposit identifier."
        }
      }
    },
    "kind": "dev",
    "methods": {
      "calculateDepositKey(bytes32,uint32)": {
        "details": "The deposit key is computed as      `keccak256(fundingTxHash | fundingOutputIndex)`.",
        "params": {
          "fundingOutputIndex": "Output in Bitcoin transaction used to fund        the deposit.",
          "fundingTxHash": "Bitcoin transaction hash (ordered as in Bitcoin internally)"
        },
        "returns": {
          "_0": "Calculated Deposit Key."
        }
      },
      "constructor": {
        "params": {
          "_acre": "Acre contract instance.",
          "_bridge": "tBTC Bridge contract instance.",
          "_tbtcVault": "tBTC Vault contract instance."
        }
      },
      "decodeExtraData(bytes32)": {
        "details": "Unpacks the data from bytes32: 20 bytes of receiver address and      2 bytes of referral, 10 bytes of trailing zeros.",
        "params": {
          "extraData": "Encoded extra data."
        },
        "returns": {
          "receiver": "The address to which the stBTC shares will be minted.",
          "referral": "Data used for referral program."
        }
      },
      "encodeExtraData(address,uint16)": {
        "details": "Packs the data to bytes32: 20 bytes of receiver address and      2 bytes of referral, 10 bytes of trailing zeros.",
        "params": {
          "receiver": "The address to which the stBTC shares will be minted.",
          "referral": "Data used for referral program."
        },
        "returns": {
          "_0": "Encoded extra data."
        }
      },
      "finalizeStakeRequest(uint256)": {
        "details": "This function is expected to be called after `notifyBridgingCompleted`.      In case the call to `Acre.stake` function fails (e.g. because of the      maximum deposit limit being reached), the function should be retried      after the limit is increased or other user withdraws their funds      from Acre contract to make place for another deposit.      The staker has a possibility to submit `recallStakeRequest` that      will withdraw the minted tBTC token and abort staking in Acre contract.",
        "params": {
          "depositKey": "Deposit key computed as                   `keccak256(fundingTxHash | fundingOutputIndex)`."
        }
      },
      "initializeStakeRequest((bytes4,bytes,bytes,bytes4),(uint32,bytes8,bytes20,bytes20,bytes4,address),address,uint16)": {
        "details": "Requirements:      - `reveal.walletPubKeyHash` must identify a `Live` wallet,      - `reveal.vault` must be 0x0 or point to a trusted vault,      - `reveal.fundingOutputIndex` must point to the actual P2(W)SH        output of the BTC deposit transaction,      - `reveal.blindingFactor` must be the blinding factor used in the        P2(W)SH BTC deposit transaction,      - `reveal.walletPubKeyHash` must be the wallet pub key hash used in        the P2(W)SH BTC deposit transaction,      - `reveal.refundPubKeyHash` must be the refund pub key hash used in        the P2(W)SH BTC deposit transaction,      - `reveal.refundLocktime` must be the refund locktime used in the        P2(W)SH BTC deposit transaction,      - `receiver` must be the receiver address used in the P2(W)SH BTC        deposit transaction as part of the extra data.      - `referral` must be the referral info used in the P2(W)SH BTC        deposit transaction as part of the extra data.      - BTC deposit for the given `fundingTxHash`, `fundingOutputIndex`        can be revealed only one time.      If any of these requirements is not met, the wallet _must_ refuse      to sweep the deposit and the depositor has to wait until the      deposit script unlocks to receive their BTC back.",
        "params": {
          "fundingTx": "Bitcoin funding transaction data, see `IBridge.BitcoinTxInfo`.",
          "receiver": "The address to which the stBTC shares will be minted.",
          "referral": "Data used for referral program.",
          "reveal": "Deposit reveal data, see `IBridge.DepositRevealInfo`."
        }
      },
      "notifyBridgingCompleted(uint256)": {
        "details": "It calculates the amount to stake in Acre contract by deducting      tBTC protocol minting fee and the Depositor fee from the initial      funding transaction amount.      The tBTC protocol minting fee is calculated depending on the process      the tBTC was minted in:      - for swept deposits:        `amount = depositAmount - depositTreasuryFee - depositTxMaxFee`      - for optimistically minted deposits:        ```        amount = depositAmount - depositTreasuryFee - depositTxMaxFee               - optimisticMintingFee        ```      These calculation are simplified and can leave some positive      imbalance in the Depositor contract.      - depositTxMaxFee - this is a maximum transaction fee that can be deducted        on Bitcoin transaction sweeping,      - optimisticMintingFee - this is a optimistic minting fee snapshotted        at the moment of the deposit reveal, there is a chance that the fee        parameter is updated in the tBTC Vault contract before the optimistic        minting is finalized.      The imbalance is left in the tBTC Depositor contract.      The Depositor fee is computed based on the `depositorFeeDivisor`      parameter. The fee is transferred to the treasury wallet on the      stake request finalization.",
        "params": {
          "depositKey": "Deposit key computed as                   `keccak256(fundingTxHash | fundingOutputIndex)`."
        }
      },
      "owner()": {
        "details": "Returns the address of the current owner."
      },
      "recallStakeRequest(uint256)": {
        "details": "This function can be called only after bridging in tBTC Bridge was      completed. Only receiver provided in the extra data of the stake      request can call this function.",
        "params": {
          "depositKey": "Deposit key computed as                   `keccak256(fundingTxHash | fundingOutputIndex)`."
        }
      },
      "renounceOwnership()": {
        "details": "Leaves the contract without owner. It will not be possible to call `onlyOwner` functions. Can only be called by the current owner. NOTE: Renouncing ownership will leave the contract without an owner, thereby disabling any functionality that is only available to the owner."
      },
      "transferOwnership(address)": {
        "details": "Transfers ownership of the contract to a new account (`newOwner`). Can only be called by the current owner."
      },
      "updateDepositorFeeDivisor(uint64)": {
        "params": {
          "newDepositorFeeDivisor": "New depositor fee divisor value."
        }
      }
    },
    "stateVariables": {
      "depositorFeeDivisor": {
        "details": "That fee is computed as follows:      `depositorFee = depositedAmount / depositorFeeDivisor`       for example, if the depositor fee needs to be 2% of each deposit,       the `depositorFeeDivisor` should be set to `50` because       `1/50 = 0.02 = 2%`."
      },
      "stakeRequests": {
        "details": "The key is a deposit key computed in the same way as in tBTC Bridge:      `keccak256(fundingTxHash | fundingOutputIndex)`."
      }
    },
    "title": "tBTC Depositor contract.",
    "version": 1
  },
  "userdoc": {
    "events": {
      "BridgingCompleted(uint256,address,uint256)": {
        "notice": "Emitted when bridging completion has been notified."
      },
      "DepositorFeeDivisorUpdated(uint64)": {
        "notice": "Emitted when a depositor fee divisor is updated."
      },
      "StakeFinalized(uint256,address)": {
        "notice": "Emitted when a stake request is finalized."
      },
      "StakeInitialized(uint256,address,address,uint16)": {
        "notice": "Emitted when a stake request is initialized."
      },
      "StakeRecalled(uint256,address)": {
        "notice": "Emitted when a stake request is recalled."
      }
    },
    "kind": "user",
    "methods": {
      "SATOSHI_MULTIPLIER()": {
        "notice": "Multiplier to convert satoshi (8 decimals precision) to tBTC         token units (18 decimals precision)."
      },
      "acre()": {
        "notice": "Acre contract."
      },
      "bridge()": {
        "notice": "tBTC Bridge contract."
      },
      "calculateDepositKey(bytes32,uint32)": {
        "notice": "Calculates deposit key the same way as the Bridge contract."
      },
      "constructor": {
        "notice": "Tbtc Depositor contract constructor."
      },
      "decodeExtraData(bytes32)": {
        "notice": "Decodes receiver address and referral from extra data,"
      },
      "depositorFeeDivisor()": {
        "notice": "Divisor used to compute the depositor fee taken from each deposit         and transferred to the treasury upon stake request finalization."
      },
      "encodeExtraData(address,uint16)": {
        "notice": "Encode receiver address and referral as extra data."
      },
      "finalizeStakeRequest(uint256)": {
        "notice": "This function should be called for previously initialized stake         request, after tBTC minting process completed and tBTC was deposited         in this contract.         It stakes the tBTC from the given deposit into Acre, emitting the         stBTC shares to the receiver specified in the deposit extra data         and using the referral provided in the extra data."
      },
      "initializeStakeRequest((bytes4,bytes,bytes,bytes4),(uint32,bytes8,bytes20,bytes20,bytes4,address),address,uint16)": {
        "notice": "This function allows staking process initialization for a Bitcoin         deposit made by an user with a P2(W)SH transaction. It uses the         supplied information to reveal a deposit to the tBTC Bridge contract."
      },
      "notifyBridgingCompleted(uint256)": {
        "notice": "This function should be called for previously initialized stake         request, after tBTC minting process completed and tBTC was deposited         in this Depositor contract."
      },
      "recallStakeRequest(uint256)": {
        "notice": "Recall bridged tBTC tokens from being requested to stake. This         function can be called by the staker to recover tBTC that cannot         be finalized to stake in Acre contract due to a deposit limit being         reached."
      },
      "stakeRequests(uint256)": {
        "notice": "Mapping of stake requests."
      },
      "tbtcToken()": {
        "notice": "tBTC Token contract."
      },
      "tbtcVault()": {
        "notice": "tBTC Vault contract."
      },
      "updateDepositorFeeDivisor(uint64)": {
        "notice": "Updates the depositor fee divisor."
      }
    },
    "notice": "The contract integrates Acre staking with tBTC minting.         User who wants to stake BTC in Acre should submit a Bitcoin transaction         to the most recently created off-chain ECDSA wallets of the tBTC Bridge         using pay-to-script-hash (P2SH) or pay-to-witness-script-hash (P2WSH)         containing hashed information about this Depositor contract address,         and staker's Ethereum address.         Then, the staker initiates tBTC minting by revealing their Ethereum         address along with their deposit blinding factor, refund public key         hash and refund locktime on the tBTC Bridge through this Depositor         contract.         The off-chain ECDSA wallet listens for these sorts of         messages and when it gets one, it checks the Bitcoin network to make         sure the deposit lines up. If it does, the off-chain ECDSA wallet         may decide to pick the deposit transaction for sweeping, and when         the sweep operation is confirmed on the Bitcoin network, the tBTC Bridge         and tBTC vault mint the tBTC token to the Depositor address.         After tBTC is minted to the Depositor, on the stake finalization         tBTC is staked in Acre contract and stBTC shares are emitted to the         receiver pointed by the staker.",
    "version": 1
  },
  "storageLayout": {
    "storage": [
      {
        "astId": 2672,
        "contract": "contracts/tbtc/TbtcDepositor.sol:TbtcDepositor",
        "label": "_owner",
        "offset": 0,
        "slot": "0",
        "type": "t_address"
      },
      {
        "astId": 7000,
        "contract": "contracts/tbtc/TbtcDepositor.sol:TbtcDepositor",
        "label": "bridge",
        "offset": 0,
        "slot": "1",
        "type": "t_contract(IBridge)6933"
      },
      {
        "astId": 7004,
        "contract": "contracts/tbtc/TbtcDepositor.sol:TbtcDepositor",
        "label": "tbtcVault",
        "offset": 0,
        "slot": "2",
        "type": "t_contract(ITBTCVault)6957"
      },
      {
        "astId": 7012,
        "contract": "contracts/tbtc/TbtcDepositor.sol:TbtcDepositor",
        "label": "acre",
        "offset": 0,
        "slot": "3",
        "type": "t_contract(Acre)6469"
      },
      {
        "astId": 7018,
        "contract": "contracts/tbtc/TbtcDepositor.sol:TbtcDepositor",
        "label": "stakeRequests",
        "offset": 0,
        "slot": "4",
        "type": "t_mapping(t_uint256,t_struct(StakeRequest)6996_storage)"
      },
      {
        "astId": 7027,
        "contract": "contracts/tbtc/TbtcDepositor.sol:TbtcDepositor",
        "label": "depositorFeeDivisor",
        "offset": 0,
        "slot": "5",
        "type": "t_uint64"
      }
    ],
    "types": {
      "t_address": {
        "encoding": "inplace",
        "label": "address",
        "numberOfBytes": "20"
      },
      "t_contract(Acre)6469": {
        "encoding": "inplace",
        "label": "contract Acre",
        "numberOfBytes": "20"
      },
      "t_contract(IBridge)6933": {
        "encoding": "inplace",
        "label": "contract IBridge",
        "numberOfBytes": "20"
      },
      "t_contract(ITBTCVault)6957": {
        "encoding": "inplace",
        "label": "contract ITBTCVault",
        "numberOfBytes": "20"
      },
      "t_mapping(t_uint256,t_struct(StakeRequest)6996_storage)": {
        "encoding": "mapping",
        "key": "t_uint256",
        "label": "mapping(uint256 => struct TbtcDepositor.StakeRequest)",
        "numberOfBytes": "32",
        "value": "t_struct(StakeRequest)6996_storage"
      },
      "t_struct(StakeRequest)6996_storage": {
        "encoding": "inplace",
        "label": "struct TbtcDepositor.StakeRequest",
        "members": [
          {
            "astId": 6987,
            "contract": "contracts/tbtc/TbtcDepositor.sol:TbtcDepositor",
            "label": "requestedAt",
            "offset": 0,
            "slot": "0",
            "type": "t_uint64"
          },
          {
            "astId": 6989,
            "contract": "contracts/tbtc/TbtcDepositor.sol:TbtcDepositor",
            "label": "finalizedAt",
            "offset": 8,
            "slot": "0",
            "type": "t_uint64"
          },
          {
            "astId": 6991,
            "contract": "contracts/tbtc/TbtcDepositor.sol:TbtcDepositor",
            "label": "tbtcDepositTxMaxFee",
            "offset": 16,
            "slot": "0",
            "type": "t_uint64"
          },
          {
            "astId": 6993,
            "contract": "contracts/tbtc/TbtcDepositor.sol:TbtcDepositor",
            "label": "tbtcOptimisticMintingFeeDivisor",
            "offset": 24,
            "slot": "0",
            "type": "t_uint32"
          },
          {
            "astId": 6995,
            "contract": "contracts/tbtc/TbtcDepositor.sol:TbtcDepositor",
            "label": "amountToStake",
            "offset": 0,
            "slot": "1",
            "type": "t_uint256"
          }
        ],
        "numberOfBytes": "64"
      },
      "t_uint256": {
        "encoding": "inplace",
        "label": "uint256",
        "numberOfBytes": "32"
      },
      "t_uint32": {
        "encoding": "inplace",
        "label": "uint32",
        "numberOfBytes": "4"
      },
      "t_uint64": {
        "encoding": "inplace",
        "label": "uint64",
        "numberOfBytes": "8"
      }
    }
  }
}