{
  "address": "0x94c99365944F122EeD3860696D3964D6B5c3c730",
  "abi": [
    {
      "inputs": [
        {
          "internalType": "address",
          "name": "_bridge",
          "type": "address"
        },
        {
          "internalType": "address",
          "name": "_tbtcVault",
          "type": "address"
        },
        {
          "internalType": "address",
          "name": "_tbtcToken",
          "type": "address"
        },
        {
          "internalType": "address",
          "name": "_stbtc",
          "type": "address"
        }
      ],
      "stateMutability": "nonpayable",
      "type": "constructor"
    },
    {
      "inputs": [
        {
          "internalType": "address",
          "name": "target",
          "type": "address"
        }
      ],
      "name": "AddressEmptyCode",
      "type": "error"
    },
    {
      "inputs": [
        {
          "internalType": "address",
          "name": "account",
          "type": "address"
        }
      ],
      "name": "AddressInsufficientBalance",
      "type": "error"
    },
    {
      "inputs": [],
      "name": "BridgingNotCompleted",
      "type": "error"
    },
    {
      "inputs": [],
      "name": "CallerNotReceiver",
      "type": "error"
    },
    {
      "inputs": [
        {
          "internalType": "uint256",
          "name": "depositorFee",
          "type": "uint256"
        },
        {
          "internalType": "uint256",
          "name": "bridgedAmount",
          "type": "uint256"
        }
      ],
      "name": "DepositorFeeExceedsBridgedAmount",
      "type": "error"
    },
    {
      "inputs": [],
      "name": "FailedInnerCall",
      "type": "error"
    },
    {
      "inputs": [
        {
          "internalType": "address",
          "name": "owner",
          "type": "address"
        }
      ],
      "name": "OwnableInvalidOwner",
      "type": "error"
    },
    {
      "inputs": [
        {
          "internalType": "address",
          "name": "account",
          "type": "address"
        }
      ],
      "name": "OwnableUnauthorizedAccount",
      "type": "error"
    },
    {
      "inputs": [],
      "name": "ReceiverIsZeroAddress",
      "type": "error"
    },
    {
      "inputs": [
        {
          "internalType": "address",
          "name": "token",
          "type": "address"
        }
      ],
      "name": "SafeERC20FailedOperation",
      "type": "error"
    },
    {
      "inputs": [],
      "name": "StakeRequestAlreadyFinalized",
      "type": "error"
    },
    {
      "anonymous": false,
      "inputs": [
        {
          "indexed": true,
          "internalType": "uint256",
          "name": "depositKey",
          "type": "uint256"
        },
        {
          "indexed": true,
          "internalType": "address",
          "name": "caller",
          "type": "address"
        },
        {
          "indexed": true,
          "internalType": "uint16",
          "name": "referral",
          "type": "uint16"
        },
        {
          "indexed": false,
          "internalType": "uint256",
          "name": "bridgedAmount",
          "type": "uint256"
        },
        {
          "indexed": false,
          "internalType": "uint256",
          "name": "depositorFee",
          "type": "uint256"
        }
      ],
      "name": "BridgingCompleted",
      "type": "event"
    },
    {
      "anonymous": false,
      "inputs": [
        {
          "indexed": true,
          "internalType": "uint256",
          "name": "depositKey",
          "type": "uint256"
        },
        {
          "indexed": false,
          "internalType": "uint256",
          "name": "tbtcAmount",
          "type": "uint256"
        },
        {
          "indexed": false,
          "internalType": "uint32",
          "name": "finalizedAt",
          "type": "uint32"
        }
      ],
      "name": "DepositFinalized",
      "type": "event"
    },
    {
      "anonymous": false,
      "inputs": [
        {
          "indexed": true,
          "internalType": "uint256",
          "name": "depositKey",
          "type": "uint256"
        },
        {
          "indexed": false,
          "internalType": "uint32",
          "name": "initializedAt",
          "type": "uint32"
        }
      ],
      "name": "DepositInitialized",
      "type": "event"
    },
    {
      "anonymous": false,
      "inputs": [
        {
          "indexed": false,
          "internalType": "uint64",
          "name": "depositorFeeDivisor",
          "type": "uint64"
        }
      ],
      "name": "DepositorFeeDivisorUpdated",
      "type": "event"
    },
    {
      "anonymous": false,
      "inputs": [
        {
          "indexed": true,
          "internalType": "address",
          "name": "previousOwner",
          "type": "address"
        },
        {
          "indexed": true,
          "internalType": "address",
          "name": "newOwner",
          "type": "address"
        }
      ],
      "name": "OwnershipTransferred",
      "type": "event"
    },
    {
      "anonymous": false,
      "inputs": [
        {
          "indexed": true,
          "internalType": "uint256",
          "name": "depositKey",
          "type": "uint256"
        },
        {
          "indexed": true,
          "internalType": "address",
          "name": "caller",
          "type": "address"
        },
        {
          "indexed": false,
          "internalType": "uint256",
          "name": "amountToStake",
          "type": "uint256"
        }
      ],
      "name": "StakeRequestFinalized",
      "type": "event"
    },
    {
      "anonymous": false,
      "inputs": [
        {
          "indexed": true,
          "internalType": "uint256",
          "name": "depositKey",
          "type": "uint256"
        },
        {
          "indexed": true,
          "internalType": "address",
          "name": "caller",
          "type": "address"
        },
        {
          "indexed": true,
          "internalType": "address",
          "name": "receiver",
          "type": "address"
        }
      ],
      "name": "StakeRequestInitialized",
      "type": "event"
    },
    {
      "anonymous": false,
      "inputs": [
        {
          "indexed": true,
          "internalType": "uint256",
          "name": "depositKey",
          "type": "uint256"
        },
        {
          "indexed": true,
          "internalType": "address",
          "name": "receiver",
          "type": "address"
        },
        {
          "indexed": false,
          "internalType": "uint256",
          "name": "amountToStake",
          "type": "uint256"
        }
      ],
      "name": "StakeRequestRecalled",
      "type": "event"
    },
    {
      "inputs": [],
      "name": "SATOSHI_MULTIPLIER",
      "outputs": [
        {
          "internalType": "uint256",
          "name": "",
          "type": "uint256"
        }
      ],
      "stateMutability": "view",
      "type": "function"
    },
    {
      "inputs": [],
      "name": "bridge",
      "outputs": [
        {
          "internalType": "contract IBridge",
          "name": "",
          "type": "address"
        }
      ],
      "stateMutability": "view",
      "type": "function"
    },
    {
      "inputs": [],
      "name": "depositorFeeDivisor",
      "outputs": [
        {
          "internalType": "uint64",
          "name": "",
          "type": "uint64"
        }
      ],
      "stateMutability": "view",
      "type": "function"
    },
    {
      "inputs": [
        {
          "internalType": "address",
          "name": "receiver",
          "type": "address"
        },
        {
          "internalType": "uint16",
          "name": "referral",
          "type": "uint16"
        }
      ],
      "name": "encodeExtraData",
      "outputs": [
        {
          "internalType": "bytes32",
          "name": "",
          "type": "bytes32"
        }
      ],
      "stateMutability": "pure",
      "type": "function"
    },
    {
      "inputs": [
        {
          "internalType": "uint256",
          "name": "depositKey",
          "type": "uint256"
        }
      ],
      "name": "finalizeStakeRequest",
      "outputs": [],
      "stateMutability": "nonpayable",
      "type": "function"
    },
    {
      "inputs": [
        {
          "components": [
            {
              "internalType": "bytes4",
              "name": "version",
              "type": "bytes4"
            },
            {
              "internalType": "bytes",
              "name": "inputVector",
              "type": "bytes"
            },
            {
              "internalType": "bytes",
              "name": "outputVector",
              "type": "bytes"
            },
            {
              "internalType": "bytes4",
              "name": "locktime",
              "type": "bytes4"
            }
          ],
          "internalType": "struct IBridgeTypes.BitcoinTxInfo",
          "name": "fundingTx",
          "type": "tuple"
        },
        {
          "components": [
            {
              "internalType": "uint32",
              "name": "fundingOutputIndex",
              "type": "uint32"
            },
            {
              "internalType": "bytes8",
              "name": "blindingFactor",
              "type": "bytes8"
            },
            {
              "internalType": "bytes20",
              "name": "walletPubKeyHash",
              "type": "bytes20"
            },
            {
              "internalType": "bytes20",
              "name": "refundPubKeyHash",
              "type": "bytes20"
            },
            {
              "internalType": "bytes4",
              "name": "refundLocktime",
              "type": "bytes4"
            },
            {
              "internalType": "address",
              "name": "vault",
              "type": "address"
            }
          ],
          "internalType": "struct IBridgeTypes.DepositRevealInfo",
          "name": "reveal",
          "type": "tuple"
        },
        {
          "internalType": "address",
          "name": "receiver",
          "type": "address"
        },
        {
          "internalType": "uint16",
          "name": "referral",
          "type": "uint16"
        }
      ],
      "name": "initializeStakeRequest",
      "outputs": [],
      "stateMutability": "nonpayable",
      "type": "function"
    },
    {
      "inputs": [
        {
          "internalType": "uint256",
          "name": "depositKey",
          "type": "uint256"
        }
      ],
      "name": "notifyBridgingCompleted",
      "outputs": [],
      "stateMutability": "nonpayable",
      "type": "function"
    },
    {
      "inputs": [],
      "name": "owner",
      "outputs": [
        {
          "internalType": "address",
          "name": "",
          "type": "address"
        }
      ],
      "stateMutability": "view",
      "type": "function"
    },
    {
      "inputs": [
        {
          "internalType": "uint256",
          "name": "",
          "type": "uint256"
        }
      ],
      "name": "pendingDeposits",
      "outputs": [
        {
          "internalType": "bool",
          "name": "",
          "type": "bool"
        }
      ],
      "stateMutability": "view",
      "type": "function"
    },
    {
      "inputs": [
        {
          "internalType": "uint256",
          "name": "depositKey",
          "type": "uint256"
        }
      ],
      "name": "recallStakeRequest",
      "outputs": [],
      "stateMutability": "nonpayable",
      "type": "function"
    },
    {
      "inputs": [],
      "name": "renounceOwnership",
      "outputs": [],
      "stateMutability": "nonpayable",
      "type": "function"
    },
    {
      "inputs": [
        {
          "internalType": "uint256",
          "name": "",
          "type": "uint256"
        }
      ],
      "name": "stakeRequests",
      "outputs": [
        {
          "internalType": "uint64",
          "name": "finalizedAt",
          "type": "uint64"
        },
        {
          "internalType": "address",
          "name": "receiver",
          "type": "address"
        },
        {
          "internalType": "uint16",
          "name": "referral",
          "type": "uint16"
        },
        {
          "internalType": "uint256",
          "name": "amountToStake",
          "type": "uint256"
        }
      ],
      "stateMutability": "view",
      "type": "function"
    },
    {
      "inputs": [],
      "name": "stbtc",
      "outputs": [
        {
          "internalType": "contract stBTC",
          "name": "",
          "type": "address"
        }
      ],
      "stateMutability": "view",
      "type": "function"
    },
    {
      "inputs": [],
      "name": "tbtcToken",
      "outputs": [
        {
          "internalType": "contract IERC20",
          "name": "",
          "type": "address"
        }
      ],
      "stateMutability": "view",
      "type": "function"
    },
    {
      "inputs": [],
      "name": "tbtcVault",
      "outputs": [
        {
          "internalType": "contract ITBTCVault",
          "name": "",
          "type": "address"
        }
      ],
      "stateMutability": "view",
      "type": "function"
    },
    {
      "inputs": [
        {
          "internalType": "address",
          "name": "newOwner",
          "type": "address"
        }
      ],
      "name": "transferOwnership",
      "outputs": [],
      "stateMutability": "nonpayable",
      "type": "function"
    },
    {
      "inputs": [
        {
          "internalType": "uint64",
          "name": "newDepositorFeeDivisor",
          "type": "uint64"
        }
      ],
      "name": "updateDepositorFeeDivisor",
      "outputs": [],
      "stateMutability": "nonpayable",
      "type": "function"
    }
  ],
  "transactionHash": "0x3011d3cfe0b5c46457b742615b27e2bf14d600d0b5065d9fbecf5a4aaa156f9a",
  "args": [
    "0x9b1a7fE5a16A15F2f9475C5B231750598b113403",
    "0xB5679dE944A79732A75CE556191DF11F489448d5",
    "0x517f2982701695D4E52f1ECFBEf3ba31Df470161",
    "0xF99139f09164B092bD9e8558984Becfb0d2eCb87"
  ],
  "numDeployments": 1,
  "solcInputHash": "b22c277b248ba02f9ec5bf62d176f9ce",
  "bytecode": "0x60c06040523480156200001157600080fd5b506040516200215538038062002155833981016040819052620000349162000322565b33806200005c57604051631e4fbdf760e01b8152600060048201526024015b60405180910390fd5b620000678162000152565b50620000748484620001a4565b6001600160a01b038216620000cc5760405162461bcd60e51b815260206004820181905260248201527f54425443546f6b656e20616464726573732063616e6e6f74206265207a65726f604482015260640162000053565b6001600160a01b038116620001245760405162461bcd60e51b815260206004820152601c60248201527f737442544320616464726573732063616e6e6f74206265207a65726f00000000604482015260640162000053565b6001600160a01b039182166080521660a0525050603480546001600160401b0319166103e81790556200037f565b603280546001600160a01b038381166001600160a01b0319831681179093556040519116919082907f8be0079c531659141344cd1fd0a4f28419497f9722a3daafe3b4186f6b6457e090600090a35050565b6000546001600160a01b0316158015620001c757506001546001600160a01b0316155b620002275760405162461bcd60e51b815260206004820152602960248201527f4162737472616374544254434465706f7369746f7220616c726561647920696e6044820152681a5d1a585b1a5e995960ba1b606482015260840162000053565b6001600160a01b0382166200027f5760405162461bcd60e51b815260206004820152601d60248201527f42726964676520616464726573732063616e6e6f74206265207a65726f000000604482015260640162000053565b6001600160a01b038116620002d75760405162461bcd60e51b815260206004820181905260248201527f544254435661756c7420616464726573732063616e6e6f74206265207a65726f604482015260640162000053565b600080546001600160a01b039384166001600160a01b03199182161790915560018054929093169116179055565b80516001600160a01b03811681146200031d57600080fd5b919050565b600080600080608085870312156200033957600080fd5b620003448562000305565b9350620003546020860162000305565b9250620003646040860162000305565b9150620003746060860162000305565b905092959194509250565b60805160a051611d86620003cf600039600081816101dd01528181610447015281816104bf015261063301526000818161031501528181610424015281816106bd01526108fa0152611d866000f3fe608060405234801561001057600080fd5b506004361061011b5760003560e01c80639bef6d52116100b2578063d0714ad511610081578063e5d3d71411610066578063e5d3d71414610310578063e78cea9214610337578063f2fde38b1461034a57600080fd5b8063d0714ad51461026b578063d7820273146102fd57600080fd5b80639bef6d52146101d8578063a7932794146101ff578063c143d67514610232578063c7ba03471461025f57600080fd5b80633d11a6ae116100ee5780633d11a6ae1461018b578063715018a6146101ac5780637cea8689146101b45780638da5cb5b146101c757600080fd5b80630e8491c5146101205780630f36403a146101355780631dc2004d146101655780633647b20514610178575b600080fd5b61013361012e366004611638565b61035d565b005b600154610148906001600160a01b031681565b6040516001600160a01b0390911681526020015b60405180910390f35b610133610173366004611638565b610531565b610133610186366004611667565b6106eb565b61019e6101993660046116bb565b610749565b60405190815260200161015c565b6101336107b8565b6101336101c2366004611638565b6107cc565b6032546001600160a01b0316610148565b6101487f000000000000000000000000000000000000000000000000000000000000000081565b61022261020d366004611638565b60026020526000908152604090205460ff1681565b604051901515815260200161015c565b6034546102469067ffffffffffffffff1681565b60405167ffffffffffffffff909116815260200161015c565b61019e6402540be40081565b6102c1610279366004611638565b6033602052600090815260409020805460019091015467ffffffffffffffff8216916801000000000000000081046001600160a01b031691600160e01b90910461ffff169084565b6040805167ffffffffffffffff90951685526001600160a01b03909316602085015261ffff90911691830191909152606082015260800161015c565b61013361030b3660046116f0565b610934565b6101487f000000000000000000000000000000000000000000000000000000000000000081565b600054610148906001600160a01b031681565b610133610358366004611774565b610a3f565b6000818152603360205260408120600181015490910361039057604051632f3d137560e11b815260040160405180910390fd5b805467ffffffffffffffff16156103ba57604051631960824560e01b815260040160405180910390fd5b805467ffffffffffffffff19164267ffffffffffffffff161781556001810154604051908152339083907f2b57d79a66895fd41ae6d27049952259b0d40a9b7c563a99b3f1844b288da08c9060200160405180910390a3600181015461046c906001600160a01b037f000000000000000000000000000000000000000000000000000000000000000016907f000000000000000000000000000000000000000000000000000000000000000090610a96565b600181015481546040517f6e553f6500000000000000000000000000000000000000000000000000000000815260048101929092526801000000000000000090046001600160a01b0390811660248301527f00000000000000000000000000000000000000000000000000000000000000001690636e553f65906044016020604051808303816000875af1158015610508573d6000803e3d6000fd5b505050506040513d601f19601f8201168201806040525081019061052c9190611791565b505050565b60008061053d83610b3f565b50603454919350915060009067ffffffffffffffff1661055e576000610575565b6034546105759067ffffffffffffffff16846117c0565b90508181106105bf576040517f2395edf200000000000000000000000000000000000000000000000000000000815260048101829052602481018390526044015b60405180910390fd5b60008481526033602052604090206105d782846117e2565b600182015580546040805185815260208101859052600160e01b90920461ffff1691339188917f6410e64d304208a5e90fc76ab4fbf4e7b8836705daeda8dde27611ae0524490a910160405180910390a481156106e4576106e47f00000000000000000000000000000000000000000000000000000000000000006001600160a01b03166361d027b36040518163ffffffff1660e01b8152600401602060405180830381865afa15801561068f573d6000803e3d6000fd5b505050506040513d601f19601f820116820180604052508101906106b39190611800565b6001600160a01b037f0000000000000000000000000000000000000000000000000000000000000000169084610de7565b5050505050565b6106f3610e5b565b6034805467ffffffffffffffff191667ffffffffffffffff83169081179091556040519081527f53a618edd6eab9ce346f438670ebd45da60fa3d85662375fae2b8beadf08faf39060200160405180910390a150565b6040516bffffffffffffffffffffffff19606084901b1660208201527fffff00000000000000000000000000000000000000000000000000000000000060f083901b1660348201526000906036016040516020818303038152906040526107af9061181d565b90505b92915050565b6107c0610e5b565b6107ca6000610ea1565b565b600081815260336020526040812060018101549091036107ff57604051632f3d137560e11b815260040160405180910390fd5b805467ffffffffffffffff161561082957604051631960824560e01b815260040160405180910390fd5b80546801000000000000000090046001600160a01b03163314610878576040517f93f2d2aa00000000000000000000000000000000000000000000000000000000815260040160405180910390fd5b805467ffffffffffffffff19164267ffffffffffffffff16178082556001820154604051908152680100000000000000009091046001600160a01b03169083907f27cfa5af2e7eaf7c58bf2ba2ee252e69260b83b8efc6fb2c1f4563e4d4b70f769060200160405180910390a380546001820154610930916001600160a01b037f0000000000000000000000000000000000000000000000000000000000000000811692680100000000000000009092041690610de7565b5050565b6001600160a01b038216610974576040517f80f67d2300000000000000000000000000000000000000000000000000000000815260040160405180910390fd5b600061098a85856109858686610749565b610f0b565b60008181526033602052604080822080547fffff00000000000000000000000000000000000000000000ffffffffffffffff16680100000000000000006001600160a01b0389169081027fffff0000ffffffffffffffffffffffffffffffffffffffffffffffffffffffff1691909117600160e01b61ffff8916021782559151939450929091339185917f8d019883471b734b0033fe25a5b76c3afefbbfa9e9b3dacdbabf505b9e4f455d91a4505050505050565b610a47610e5b565b6001600160a01b038116610a8a576040517f1e4fbdf7000000000000000000000000000000000000000000000000000000008152600060048201526024016105b6565b610a9381610ea1565b50565b6040517fdd62ed3e0000000000000000000000000000000000000000000000000000000081523060048201526001600160a01b0383811660248301526000919085169063dd62ed3e90604401602060405180830381865afa158015610aff573d6000803e3d6000fd5b505050506040513d601f19601f82011682018060405250810190610b239190611791565b9050610b398484610b348585611844565b611082565b50505050565b6000818152600260205260408120548190819060ff16610ba15760405162461bcd60e51b815260206004820152601760248201527f4465706f736974206e6f7420696e697469616c697a656400000000000000000060448201526064016105b6565b600080546040517fb02c43d0000000000000000000000000000000000000000000000000000000008152600481018790526001600160a01b039091169063b02c43d09060240160e060405180830381865afa158015610c04573d6000803e3d6000fd5b505050506040513d601f19601f82011682018060405250810190610c28919061187f565b6001546040517f6c626aa4000000000000000000000000000000000000000000000000000000008152600481018890529192506000916001600160a01b0390911690636c626aa49060240160408051808303816000875af1158015610c91573d6000803e3d6000fd5b505050506040513d601f19601f82011682018060405250810190610cb59190611939565b9150508160a0015163ffffffff166000141580610cdb575067ffffffffffffffff811615155b610d4d5760405162461bcd60e51b815260206004820152602360248201527f4465706f736974206e6f742066696e616c697a6564206279207468652062726960448201527f646765000000000000000000000000000000000000000000000000000000000060648201526084016105b6565b6000868152600260209081526040909120805460ff19169055820151610d83906402540be4009067ffffffffffffffff16611973565b9450610d9782602001518360800151611140565b6040805182815263ffffffff4216602082015291955087917f417b6288c9f637614f8b3f7a275fb4e44e517930fde949e463d58dfe0b97f28b910160405180910390a25060c00151929491935050565b6040516001600160a01b0383811660248301526044820183905261052c91859182169063a9059cbb906064015b604051602081830303815290604052915060e01b6020820180517bffffffffffffffffffffffffffffffffffffffffffffffffffffffff83818316178352505050506112c3565b6032546001600160a01b031633146107ca576040517f118cdaa70000000000000000000000000000000000000000000000000000000081523360048201526024016105b6565b603280546001600160a01b038381167fffffffffffffffffffffffff0000000000000000000000000000000000000000831681179093556040519116919082907f8be0079c531659141344cd1fd0a4f28419497f9722a3daafe3b4186f6b6457e090600090a35050565b6001546000906001600160a01b0316610f2a60c0850160a08601611774565b6001600160a01b031614610f805760405162461bcd60e51b815260206004820152601660248201527f5661756c742061646472657373206d69736d617463680000000000000000000060448201526064016105b6565b6000610fa0610f8e8661133f565b610f9b602087018761198a565b6113a4565b600081815260026020908152604091829020805460ff1916600117905590514263ffffffff16815291925082917fa3ed7aef0745e1a91addae9e5daee7a8ace74852fec840b9d93da747855dd7b9910160405180910390a26000546040517f86f014390000000000000000000000000000000000000000000000000000000081526001600160a01b03909116906386f014399061104590889088908890600401611a52565b600060405180830381600087803b15801561105f57600080fd5b505af1158015611073573d6000803e3d6000fd5b509293505050505b9392505050565b604080516001600160a01b038416602482015260448082018490528251808303909101815260649091019091526020810180517bffffffffffffffffffffffffffffffffffffffffffffffffffffffff167f095ea7b30000000000000000000000000000000000000000000000000000000017905261110184826113ee565b610b39576040516001600160a01b0384811660248301526000604483015261113691869182169063095ea7b390606401610e14565b610b3984826112c3565b6000806402540be4006111538486611bb7565b67ffffffffffffffff166111679190611973565b90506000600160009054906101000a90046001600160a01b03166001600160a01b03166309b53f516040518163ffffffff1660e01b8152600401602060405180830381865afa1580156111be573d6000803e3d6000fd5b505050506040513d601f19601f820116820180604052508101906111e29190611bdf565b63ffffffff16905060008082116111fa576000611204565b61120482846117c0565b905060008060009054906101000a90046001600160a01b03166001600160a01b031663c42b64d06040518163ffffffff1660e01b8152600401608060405180830381865afa15801561125a573d6000803e3d6000fd5b505050506040513d601f19601f8201168201806040525081019061127e9190611bfc565b509250505060006402540be4008267ffffffffffffffff166112a09190611973565b9050806112ad84876117e2565b6112b791906117e2565b98975050505050505050565b60006112d86001600160a01b03841683611496565b905080516000141580156112fd5750808060200190518101906112fb9190611c5b565b155b1561052c576040517f5274afe70000000000000000000000000000000000000000000000000000000081526001600160a01b03841660048201526024016105b6565b60006107b26113516020840184611c7d565b61135e6020850185611c98565b61136b6040870187611c98565b61137b6080890160608a01611c7d565b60405160200161139096959493929190611cdf565b6040516020818303038152906040526114a4565b600082826040516020016113cf92919091825260e01b6001600160e01b031916602082015260240190565b60408051601f1981840301815291905280516020909101209392505050565b6000806000846001600160a01b03168460405161140b9190611d21565b6000604051808303816000865af19150503d8060008114611448576040519150601f19603f3d011682016040523d82523d6000602084013e61144d565b606091505b50915091508180156114775750805115806114775750808060200190518101906114779190611c5b565b801561148d57506000856001600160a01b03163b115b95945050505050565b60606107af838360006114cb565b60006020600083516020850160025afa50602060006020600060025afa5050600051919050565b606081471015611509576040517fcd7860590000000000000000000000000000000000000000000000000000000081523060048201526024016105b6565b600080856001600160a01b031684866040516115259190611d21565b60006040518083038185875af1925050503d8060008114611562576040519150601f19603f3d011682016040523d82523d6000602084013e611567565b606091505b5091509150611577868383611581565b9695505050505050565b60608261159657611591826115f6565b61107b565b81511580156115ad57506001600160a01b0384163b155b156115ef576040517f9996b3150000000000000000000000000000000000000000000000000000000081526001600160a01b03851660048201526024016105b6565b508061107b565b8051156116065780518082602001fd5b6040517f1425ea4200000000000000000000000000000000000000000000000000000000815260040160405180910390fd5b60006020828403121561164a57600080fd5b5035919050565b67ffffffffffffffff81168114610a9357600080fd5b60006020828403121561167957600080fd5b813561107b81611651565b6001600160a01b0381168114610a9357600080fd5b80356116a481611684565b919050565b803561ffff811681146116a457600080fd5b600080604083850312156116ce57600080fd5b82356116d981611684565b91506116e7602084016116a9565b90509250929050565b60008060008084860361012081121561170857600080fd5b853567ffffffffffffffff81111561171f57600080fd5b86016080818903121561173157600080fd5b945060c0601f198201121561174557600080fd5b5060208501925060e085013561175a81611684565b915061176961010086016116a9565b905092959194509250565b60006020828403121561178657600080fd5b813561107b81611684565b6000602082840312156117a357600080fd5b5051919050565b634e487b7160e01b600052601160045260246000fd5b6000826117dd57634e487b7160e01b600052601260045260246000fd5b500490565b818103818111156107b2576107b26117aa565b80516116a481611684565b60006020828403121561181257600080fd5b815161107b81611684565b8051602080830151919081101561183e576000198160200360031b1b821691505b50919050565b808201808211156107b2576107b26117aa565b80516116a481611651565b63ffffffff81168114610a9357600080fd5b80516116a481611862565b600060e0828403121561189157600080fd5b60405160e0810181811067ffffffffffffffff821117156118c257634e487b7160e01b600052604160045260246000fd5b6040526118ce836117f5565b81526118dc60208401611857565b60208201526118ed60408401611874565b60408201526118fe606084016117f5565b606082015261190f60808401611857565b608082015261192060a08401611874565b60a082015260c083015160c08201528091505092915050565b6000806040838503121561194c57600080fd5b825161195781611651565b602084015190925061196881611651565b809150509250929050565b80820281158282048414176107b2576107b26117aa565b60006020828403121561199c57600080fd5b813561107b81611862565b80356001600160e01b0319811681146116a457600080fd5b6000808335601e198436030181126119d657600080fd5b830160208101925035905067ffffffffffffffff8111156119f657600080fd5b803603821315611a0557600080fd5b9250929050565b81835281816020850137506000828201602090810191909152601f909101601f19169091010190565b80356bffffffffffffffffffffffff19811681146116a457600080fd5b60006101008083526001600160e01b031980611a6d886119a7565b1682850152611a7f60208801886119bf565b92506080610120860152611a9861018086018483611a0c565b925050611aa860408801886119bf565b85840360ff1901610140870152611ac0848284611a0c565b9350505080611ad1606089016119a7565b166101608501525090508335611ae681611862565b63ffffffff811660208401525060208401357fffffffffffffffff0000000000000000000000000000000000000000000000008116808214611b2757600080fd5b80604085015250506bffffffffffffffffffffffff19611b4960408601611a35565b166060830152611b5b60608501611a35565b6bffffffffffffffffffffffff198116608084015250611b7d608085016119a7565b6001600160e01b0319811660a084015250611b9a60a08501611699565b6001600160a01b031660c083015260e09091019190915292915050565b67ffffffffffffffff828116828216039080821115611bd857611bd86117aa565b5092915050565b600060208284031215611bf157600080fd5b815161107b81611862565b60008060008060808587031215611c1257600080fd5b8451611c1d81611651565b6020860151909450611c2e81611651565b6040860151909350611c3f81611651565b6060860151909250611c5081611862565b939692955090935050565b600060208284031215611c6d57600080fd5b8151801515811461107b57600080fd5b600060208284031215611c8f57600080fd5b6107af826119a7565b6000808335601e19843603018112611caf57600080fd5b83018035915067ffffffffffffffff821115611cca57600080fd5b602001915036819003821315611a0557600080fd5b60006001600160e01b03198089168352868860048501378683016004810160008152868882375093169390920160048101939093525050600801949350505050565b6000825160005b81811015611d425760208186018101518583015201611d28565b50600092019182525091905056fea2646970667358221220d7e96a88169fbbb6355b500c970d1027a84d03bce2cf68304d33d263b06d67d964736f6c63430008150033",
  "devdoc": {
    "errors": {
      "AddressEmptyCode(address)": [
        {
          "details": "There's no code at `target` (it is not a contract)."
        }
      ],
      "AddressInsufficientBalance(address)": [
        {
          "details": "The ETH balance of the account is not enough to perform the operation."
        }
      ],
      "BridgingNotCompleted()": [
        {
          "details": "Attempted to finalize a stake request, while bridging completion has not been notified yet."
        }
      ],
      "CallerNotReceiver()": [
        {
          "details": "Attempted to call function by an account that is not the receiver."
        }
      ],
      "DepositorFeeExceedsBridgedAmount(uint256,uint256)": [
        {
          "details": "Calculated depositor fee exceeds the amount of minted tBTC tokens."
        }
      ],
      "FailedInnerCall()": [
        {
          "details": "A call to an address target failed. The target may have reverted."
        }
      ],
      "OwnableInvalidOwner(address)": [
        {
          "details": "The owner is not a valid owner account. (eg. `address(0)`)"
        }
      ],
      "OwnableUnauthorizedAccount(address)": [
        {
          "details": "The caller account is not authorized to perform an operation."
        }
      ],
      "ReceiverIsZeroAddress()": [
        {
          "details": "Receiver address is zero."
        }
      ],
      "SafeERC20FailedOperation(address)": [
        {
          "details": "An operation with an ERC20 token failed."
        }
      ],
      "StakeRequestAlreadyFinalized()": [
        {
          "details": "Attempted to finalize a stake request that was already finalized."
        }
      ]
    },
    "events": {
      "BridgingCompleted(uint256,address,uint16,uint256,uint256)": {
        "params": {
          "bridgedAmount": "Amount of tBTC tokens that was bridged by the tBTC bridge.",
          "caller": "Address that notified about bridging completion.",
          "depositKey": "Deposit key identifying the deposit.",
          "depositorFee": "Depositor fee amount.",
          "referral": "Identifier of a partner in the referral program."
        }
      },
      "DepositorFeeDivisorUpdated(uint64)": {
        "params": {
          "depositorFeeDivisor": "New value of the depositor fee divisor."
        }
      },
      "StakeRequestFinalized(uint256,address,uint256)": {
        "details": "Deposit details can be fetched from {{ ERC4626.Deposit }}      event emitted in the same transaction.",
        "params": {
          "amountToStake": "Amount of staked tBTC tokens.",
          "caller": "Address that finalized the stake request.",
          "depositKey": "Deposit key identifying the deposit."
        }
      },
      "StakeRequestInitialized(uint256,address,address)": {
        "details": "Deposit details can be fetched from {{ Bridge.DepositRevealed }}      event emitted in the same transaction.",
        "params": {
          "caller": "Address that initialized the stake request.",
          "depositKey": "Deposit key identifying the deposit.",
          "receiver": "The address to which the stBTC shares will be minted."
        }
      },
      "StakeRequestRecalled(uint256,address,uint256)": {
        "params": {
          "amountToStake": "Amount of recalled tBTC tokens.",
          "depositKey": "Deposit key identifying the deposit.",
          "receiver": "Address of the receiver."
        }
      }
    },
    "kind": "dev",
    "methods": {
      "constructor": {
        "params": {
          "_bridge": "tBTC Bridge contract instance.",
          "_stbtc": "stBTC contract instance.",
          "_tbtcVault": "tBTC Vault contract instance."
        }
      },
      "encodeExtraData(address,uint16)": {
        "details": "Packs the data to bytes32: 20 bytes of receiver address and      2 bytes of referral, 10 bytes of trailing zeros.",
        "params": {
          "receiver": "The address to which the stBTC shares will be minted.",
          "referral": "Data used for referral program."
        },
        "returns": {
          "_0": "Encoded extra data."
        }
      },
      "finalizeStakeRequest(uint256)": {
        "details": "This function is expected to be called after `notifyBridgingCompleted`.      In case depositing in stBTC vault fails (e.g. because of the      maximum deposit limit being reached), the function should be retried      after the limit is increased or other user withdraws their funds      from the stBTC contract to make place for another deposit.      The staker has a possibility to submit `recallStakeRequest` that      will withdraw the minted tBTC token and abort staking process.",
        "params": {
          "depositKey": "Deposit key identifying the deposit."
        }
      },
      "initializeStakeRequest((bytes4,bytes,bytes,bytes4),(uint32,bytes8,bytes20,bytes20,bytes4,address),address,uint16)": {
        "details": "Requirements:      - The revealed vault address must match the TBTCVault address,      - All requirements from {Bridge#revealDepositWithExtraData}        function must be met.      - `receiver` must be the receiver address used in the P2(W)SH BTC        deposit transaction as part of the extra data.      - `referral` must be the referral info used in the P2(W)SH BTC        deposit transaction as part of the extra data.      - BTC deposit for the given `fundingTxHash`, `fundingOutputIndex`        can be revealed only one time.",
        "params": {
          "fundingTx": "Bitcoin funding transaction data, see `IBridgeTypes.BitcoinTxInfo`.",
          "receiver": "The address to which the stBTC shares will be minted.",
          "referral": "Data used for referral program.",
          "reveal": "Deposit reveal data, see `IBridgeTypes.DepositRevealInfo`."
        }
      },
      "notifyBridgingCompleted(uint256)": {
        "details": "It calculates the amount to stake based on the approximate minted      tBTC amount reduced by the depositor fee.IMPORTANT NOTE: The minted tBTC amount used by this function is an      approximation. See documentation of the      {{TBTCDepositorProxy#_calculateTbtcAmount}} responsible for calculating      this value for more details.",
        "params": {
          "depositKey": "Deposit key identifying the deposit."
        }
      },
      "owner()": {
        "details": "Returns the address of the current owner."
      },
      "recallStakeRequest(uint256)": {
        "details": "This function can be called only after bridging in tBTC Bridge was      completed. Only receiver provided in the extra data of the stake      request can call this function.",
        "params": {
          "depositKey": "Deposit key identifying the deposit."
        }
      },
      "renounceOwnership()": {
        "details": "Leaves the contract without owner. It will not be possible to call `onlyOwner` functions. Can only be called by the current owner. NOTE: Renouncing ownership will leave the contract without an owner, thereby disabling any functionality that is only available to the owner."
      },
      "transferOwnership(address)": {
        "details": "Transfers ownership of the contract to a new account (`newOwner`). Can only be called by the current owner."
      },
      "updateDepositorFeeDivisor(uint64)": {
        "params": {
          "newDepositorFeeDivisor": "New depositor fee divisor value."
        }
      }
    },
    "stateVariables": {
      "depositorFeeDivisor": {
        "details": "That fee is computed as follows:      `depositorFee = depositedAmount / depositorFeeDivisor`       for example, if the depositor fee needs to be 2% of each deposit,       the `depositorFeeDivisor` should be set to `50` because       `1/50 = 0.02 = 2%`."
      },
      "stakeRequests": {
        "details": "The key is a deposit key identifying the deposit."
      }
    },
    "title": "tBTC Depositor contract.",
    "version": 1
  },
  "userdoc": {
    "events": {
      "BridgingCompleted(uint256,address,uint16,uint256,uint256)": {
        "notice": "Emitted when bridging completion has been notified."
      },
      "DepositorFeeDivisorUpdated(uint64)": {
        "notice": "Emitted when a depositor fee divisor is updated."
      },
      "StakeRequestFinalized(uint256,address,uint256)": {
        "notice": "Emitted when a stake request is finalized."
      },
      "StakeRequestInitialized(uint256,address,address)": {
        "notice": "Emitted when a stake request is initialized."
      },
      "StakeRequestRecalled(uint256,address,uint256)": {
        "notice": "Emitted when a stake request is recalled."
      }
    },
    "kind": "user",
    "methods": {
      "SATOSHI_MULTIPLIER()": {
        "notice": "Multiplier to convert satoshi to TBTC token units."
      },
      "bridge()": {
        "notice": "Bridge contract address."
      },
      "constructor": {
        "notice": "Tbtc Depositor contract constructor."
      },
      "depositorFeeDivisor()": {
        "notice": "Divisor used to compute the depositor fee taken from each deposit         and transferred to the treasury upon stake request finalization."
      },
      "encodeExtraData(address,uint16)": {
        "notice": "Encode receiver address and referral as extra data."
      },
      "finalizeStakeRequest(uint256)": {
        "notice": "This function should be called for previously initialized stake         request, after tBTC bridging process was finalized.         It stakes the tBTC from the given deposit into stBTC, emitting the         stBTC shares to the receiver specified in the deposit extra data         and using the referral provided in the extra data."
      },
      "initializeStakeRequest((bytes4,bytes,bytes,bytes4),(uint32,bytes8,bytes20,bytes20,bytes4,address),address,uint16)": {
        "notice": "This function allows staking process initialization for a Bitcoin         deposit made by an user with a P2(W)SH transaction. It uses the         supplied information to reveal a deposit to the tBTC Bridge contract."
      },
      "notifyBridgingCompleted(uint256)": {
        "notice": "This function should be called for previously initialized stake         request, after tBTC minting process completed, meaning tBTC was         minted to this contract."
      },
      "pendingDeposits(uint256)": {
        "notice": "Mapping holding information about pending deposits that have         been initialized but not finalized yet. If the deposit is not         in this mapping it means it has already been finalized or it         has not been initialized yet."
      },
      "recallStakeRequest(uint256)": {
        "notice": "Recall bridged tBTC tokens from being requested to stake. This         function can be called by the staker to recover tBTC that cannot         be finalized to stake in stBTC contract due to a deposit limit being         reached."
      },
      "stakeRequests(uint256)": {
        "notice": "Mapping of stake requests."
      },
      "stbtc()": {
        "notice": "stBTC contract."
      },
      "tbtcToken()": {
        "notice": "tBTC Token contract."
      },
      "tbtcVault()": {
        "notice": "TBTCVault contract address."
      },
      "updateDepositorFeeDivisor(uint64)": {
        "notice": "Updates the depositor fee divisor."
      }
    },
    "notice": "The contract integrates Acre staking with tBTC minting.         User who wants to stake BTC in Acre should submit a Bitcoin transaction         to the most recently created off-chain ECDSA wallets of the tBTC Bridge         using pay-to-script-hash (P2SH) or pay-to-witness-script-hash (P2WSH)         containing hashed information about this Depositor contract address,         and staker's Ethereum address.         Then, the staker initiates tBTC minting by revealing their Ethereum         address along with their deposit blinding factor, refund public key         hash and refund locktime on the tBTC Bridge through this Depositor         contract.         The off-chain ECDSA wallet listens for these sorts of         messages and when it gets one, it checks the Bitcoin network to make         sure the deposit lines up. If it does, the off-chain ECDSA wallet         may decide to pick the deposit transaction for sweeping, and when         the sweep operation is confirmed on the Bitcoin network, the tBTC Bridge         and tBTC vault mint the tBTC token to the Depositor address.         After tBTC is minted to the Depositor, on the stake finalization         tBTC is staked in stBTC contract and stBTC shares are emitted to the         receiver pointed by the staker.",
    "version": 1
  },
  "storageLayout": {
    "storage": [
      {
        "astId": 2683,
        "contract": "contracts/TbtcDepositor.sol:TbtcDepositor",
        "label": "bridge",
        "offset": 0,
        "slot": "0",
        "type": "t_contract(IBridge)3102"
      },
      {
        "astId": 2687,
        "contract": "contracts/TbtcDepositor.sol:TbtcDepositor",
        "label": "tbtcVault",
        "offset": 0,
        "slot": "1",
        "type": "t_contract(ITBTCVault)3122"
      },
      {
        "astId": 2692,
        "contract": "contracts/TbtcDepositor.sol:TbtcDepositor",
        "label": "pendingDeposits",
        "offset": 0,
        "slot": "2",
        "type": "t_mapping(t_uint256,t_bool)"
      },
      {
        "astId": 2696,
        "contract": "contracts/TbtcDepositor.sol:TbtcDepositor",
        "label": "__gap",
        "offset": 0,
        "slot": "3",
        "type": "t_array(t_uint256)47_storage"
      },
      {
        "astId": 3597,
        "contract": "contracts/TbtcDepositor.sol:TbtcDepositor",
        "label": "_owner",
        "offset": 0,
        "slot": "50",
        "type": "t_address"
      },
      {
        "astId": 7435,
        "contract": "contracts/TbtcDepositor.sol:TbtcDepositor",
        "label": "stakeRequests",
        "offset": 0,
        "slot": "51",
        "type": "t_mapping(t_uint256,t_struct(StakeRequest)7421_storage)"
      },
      {
        "astId": 7438,
        "contract": "contracts/TbtcDepositor.sol:TbtcDepositor",
        "label": "depositorFeeDivisor",
        "offset": 0,
        "slot": "52",
        "type": "t_uint64"
      }
    ],
    "types": {
      "t_address": {
        "encoding": "inplace",
        "label": "address",
        "numberOfBytes": "20"
      },
      "t_array(t_uint256)47_storage": {
        "base": "t_uint256",
        "encoding": "inplace",
        "label": "uint256[47]",
        "numberOfBytes": "1504"
      },
      "t_bool": {
        "encoding": "inplace",
        "label": "bool",
        "numberOfBytes": "1"
      },
      "t_contract(IBridge)3102": {
        "encoding": "inplace",
        "label": "contract IBridge",
        "numberOfBytes": "20"
      },
      "t_contract(ITBTCVault)3122": {
        "encoding": "inplace",
        "label": "contract ITBTCVault",
        "numberOfBytes": "20"
      },
      "t_mapping(t_uint256,t_bool)": {
        "encoding": "mapping",
        "key": "t_uint256",
        "label": "mapping(uint256 => bool)",
        "numberOfBytes": "32",
        "value": "t_bool"
      },
      "t_mapping(t_uint256,t_struct(StakeRequest)7421_storage)": {
        "encoding": "mapping",
        "key": "t_uint256",
        "label": "mapping(uint256 => struct TbtcDepositor.StakeRequest)",
        "numberOfBytes": "32",
        "value": "t_struct(StakeRequest)7421_storage"
      },
      "t_struct(StakeRequest)7421_storage": {
        "encoding": "inplace",
        "label": "struct TbtcDepositor.StakeRequest",
        "members": [
          {
            "astId": 7414,
            "contract": "contracts/TbtcDepositor.sol:TbtcDepositor",
            "label": "finalizedAt",
            "offset": 0,
            "slot": "0",
            "type": "t_uint64"
          },
          {
            "astId": 7416,
            "contract": "contracts/TbtcDepositor.sol:TbtcDepositor",
            "label": "receiver",
            "offset": 8,
            "slot": "0",
            "type": "t_address"
          },
          {
            "astId": 7418,
            "contract": "contracts/TbtcDepositor.sol:TbtcDepositor",
            "label": "referral",
            "offset": 28,
            "slot": "0",
            "type": "t_uint16"
          },
          {
            "astId": 7420,
            "contract": "contracts/TbtcDepositor.sol:TbtcDepositor",
            "label": "amountToStake",
            "offset": 0,
            "slot": "1",
            "type": "t_uint256"
          }
        ],
        "numberOfBytes": "64"
      },
      "t_uint16": {
        "encoding": "inplace",
        "label": "uint16",
        "numberOfBytes": "2"
      },
      "t_uint256": {
        "encoding": "inplace",
        "label": "uint256",
        "numberOfBytes": "32"
      },
      "t_uint64": {
        "encoding": "inplace",
        "label": "uint64",
        "numberOfBytes": "8"
      }
    }
  }
}